
FREERTOS_SAM_EXAMPLE1.elf:     file format elf32-littlearm

Sections:
Idx Name          Size      VMA       LMA       File off  Algn
  0 .text         00006470  00400000  00400000  00010000  2**6
                  CONTENTS, ALLOC, LOAD, READONLY, CODE
  1 .ARM.exidx    00000008  00406470  00406470  00016470  2**2
                  CONTENTS, ALLOC, LOAD, READONLY, DATA
  2 .relocate     000009c8  20400000  00406478  00020000  2**3
                  CONTENTS, ALLOC, LOAD, CODE
  3 .bss          00000290  204009c8  00406e40  000209c8  2**2
                  ALLOC
  4 .stack        00002000  20400c58  004070d0  000209c8  2**0
                  ALLOC
  5 .heap         00000200  20402c58  004090d0  000209c8  2**0
                  ALLOC
  6 .ARM.attributes 0000002e  00000000  00000000  000209c8  2**0
                  CONTENTS, READONLY
  7 .comment      00000059  00000000  00000000  000209f6  2**0
                  CONTENTS, READONLY
  8 .debug_info   0001df90  00000000  00000000  00020a4f  2**0
                  CONTENTS, READONLY, DEBUGGING
  9 .debug_abbrev 00003dff  00000000  00000000  0003e9df  2**0
                  CONTENTS, READONLY, DEBUGGING
 10 .debug_loc    00008ac3  00000000  00000000  000427de  2**0
                  CONTENTS, READONLY, DEBUGGING
 11 .debug_aranges 00000e18  00000000  00000000  0004b2a1  2**0
                  CONTENTS, READONLY, DEBUGGING
 12 .debug_ranges 00001058  00000000  00000000  0004c0b9  2**0
                  CONTENTS, READONLY, DEBUGGING
 13 .debug_macro  00021863  00000000  00000000  0004d111  2**0
                  CONTENTS, READONLY, DEBUGGING
 14 .debug_line   0001062d  00000000  00000000  0006e974  2**0
                  CONTENTS, READONLY, DEBUGGING
 15 .debug_str    00093790  00000000  00000000  0007efa1  2**0
                  CONTENTS, READONLY, DEBUGGING
 16 .debug_frame  00002e24  00000000  00000000  00112734  2**2
                  CONTENTS, READONLY, DEBUGGING

Disassembly of section .text:

00400000 <exception_table>:
  400000:	58 2c 40 20 f5 09 40 00 f3 09 40 00 f3 09 40 00     X,@ ..@...@...@.
  400010:	f3 09 40 00 f3 09 40 00 f3 09 40 00 00 00 00 00     ..@...@...@.....
	...
  40002c:	cd 0d 40 00 f3 09 40 00 00 00 00 00 6d 0e 40 00     ..@...@.....m.@.
  40003c:	d5 0e 40 00 f3 09 40 00 f3 09 40 00 f3 09 40 00     ..@...@...@...@.
  40004c:	f3 09 40 00 f3 09 40 00 f3 09 40 00 f3 09 40 00     ..@...@...@...@.
  40005c:	f3 09 40 00 f3 09 40 00 00 00 00 00 dd 06 40 00     ..@...@.......@.
  40006c:	f1 06 40 00 05 07 40 00 f3 09 40 00 85 2e 40 00     ..@...@...@...@.
  40007c:	f3 09 40 00 19 07 40 00 2d 07 40 00 f3 09 40 00     ..@...@.-.@...@.
  40008c:	f3 09 40 00 f3 09 40 00 f3 09 40 00 f3 09 40 00     ..@...@...@...@.
  40009c:	f3 09 40 00 f3 09 40 00 f3 09 40 00 f3 09 40 00     ..@...@...@...@.
  4000ac:	f3 09 40 00 f3 09 40 00 f3 09 40 00 f3 09 40 00     ..@...@...@...@.
  4000bc:	f3 09 40 00 f3 09 40 00 f3 09 40 00 f3 09 40 00     ..@...@...@...@.
  4000cc:	f3 09 40 00 00 00 00 00 f3 09 40 00 00 00 00 00     ..@.......@.....
  4000dc:	f3 09 40 00 f3 09 40 00 f3 09 40 00 f3 09 40 00     ..@...@...@...@.
  4000ec:	f3 09 40 00 f3 09 40 00 f3 09 40 00 f3 09 40 00     ..@...@...@...@.
  4000fc:	f3 09 40 00 f3 09 40 00 f3 09 40 00 f3 09 40 00     ..@...@...@...@.
  40010c:	f3 09 40 00 f3 09 40 00 00 00 00 00 00 00 00 00     ..@...@.........
  40011c:	00 00 00 00 f3 09 40 00 f3 09 40 00 f3 09 40 00     ......@...@...@.
  40012c:	f3 09 40 00 f3 09 40 00 00 00 00 00 f3 09 40 00     ..@...@.......@.
  40013c:	f3 09 40 00                                         ..@.

00400140 <__do_global_dtors_aux>:
  400140:	b510      	push	{r4, lr}
  400142:	4c05      	ldr	r4, [pc, #20]	; (400158 <__do_global_dtors_aux+0x18>)
  400144:	7823      	ldrb	r3, [r4, #0]
  400146:	b933      	cbnz	r3, 400156 <__do_global_dtors_aux+0x16>
  400148:	4b04      	ldr	r3, [pc, #16]	; (40015c <__do_global_dtors_aux+0x1c>)
  40014a:	b113      	cbz	r3, 400152 <__do_global_dtors_aux+0x12>
  40014c:	4804      	ldr	r0, [pc, #16]	; (400160 <__do_global_dtors_aux+0x20>)
  40014e:	f3af 8000 	nop.w
  400152:	2301      	movs	r3, #1
  400154:	7023      	strb	r3, [r4, #0]
  400156:	bd10      	pop	{r4, pc}
  400158:	204009c8 	.word	0x204009c8
  40015c:	00000000 	.word	0x00000000
  400160:	00406478 	.word	0x00406478

00400164 <frame_dummy>:
  400164:	4b0c      	ldr	r3, [pc, #48]	; (400198 <frame_dummy+0x34>)
  400166:	b143      	cbz	r3, 40017a <frame_dummy+0x16>
  400168:	480c      	ldr	r0, [pc, #48]	; (40019c <frame_dummy+0x38>)
  40016a:	490d      	ldr	r1, [pc, #52]	; (4001a0 <frame_dummy+0x3c>)
  40016c:	b510      	push	{r4, lr}
  40016e:	f3af 8000 	nop.w
  400172:	480c      	ldr	r0, [pc, #48]	; (4001a4 <frame_dummy+0x40>)
  400174:	6803      	ldr	r3, [r0, #0]
  400176:	b923      	cbnz	r3, 400182 <frame_dummy+0x1e>
  400178:	bd10      	pop	{r4, pc}
  40017a:	480a      	ldr	r0, [pc, #40]	; (4001a4 <frame_dummy+0x40>)
  40017c:	6803      	ldr	r3, [r0, #0]
  40017e:	b933      	cbnz	r3, 40018e <frame_dummy+0x2a>
  400180:	4770      	bx	lr
  400182:	4b09      	ldr	r3, [pc, #36]	; (4001a8 <frame_dummy+0x44>)
  400184:	2b00      	cmp	r3, #0
  400186:	d0f7      	beq.n	400178 <frame_dummy+0x14>
  400188:	e8bd 4010 	ldmia.w	sp!, {r4, lr}
  40018c:	4718      	bx	r3
  40018e:	4b06      	ldr	r3, [pc, #24]	; (4001a8 <frame_dummy+0x44>)
  400190:	2b00      	cmp	r3, #0
  400192:	d0f5      	beq.n	400180 <frame_dummy+0x1c>
  400194:	4718      	bx	r3
  400196:	bf00      	nop
  400198:	00000000 	.word	0x00000000
  40019c:	00406478 	.word	0x00406478
  4001a0:	204009cc 	.word	0x204009cc
  4001a4:	00406478 	.word	0x00406478
  4001a8:	00000000 	.word	0x00000000

004001ac <sysclk_init>:
  4001ac:	b510      	push	{r4, lr}
  4001ae:	4810      	ldr	r0, [pc, #64]	; (4001f0 <sysclk_init+0x44>)
  4001b0:	4b10      	ldr	r3, [pc, #64]	; (4001f4 <sysclk_init+0x48>)
  4001b2:	4798      	blx	r3
  4001b4:	213e      	movs	r1, #62	; 0x3e
  4001b6:	2000      	movs	r0, #0
  4001b8:	4b0f      	ldr	r3, [pc, #60]	; (4001f8 <sysclk_init+0x4c>)
  4001ba:	4798      	blx	r3
  4001bc:	4c0f      	ldr	r4, [pc, #60]	; (4001fc <sysclk_init+0x50>)
  4001be:	47a0      	blx	r4
  4001c0:	2800      	cmp	r0, #0
  4001c2:	d0fc      	beq.n	4001be <sysclk_init+0x12>
  4001c4:	4b0e      	ldr	r3, [pc, #56]	; (400200 <sysclk_init+0x54>)
  4001c6:	4798      	blx	r3
  4001c8:	4a0e      	ldr	r2, [pc, #56]	; (400204 <sysclk_init+0x58>)
  4001ca:	4b0f      	ldr	r3, [pc, #60]	; (400208 <sysclk_init+0x5c>)
  4001cc:	629a      	str	r2, [r3, #40]	; 0x28
  4001ce:	4c0f      	ldr	r4, [pc, #60]	; (40020c <sysclk_init+0x60>)
  4001d0:	47a0      	blx	r4
  4001d2:	2800      	cmp	r0, #0
  4001d4:	d0fc      	beq.n	4001d0 <sysclk_init+0x24>
  4001d6:	2002      	movs	r0, #2
  4001d8:	4b0d      	ldr	r3, [pc, #52]	; (400210 <sysclk_init+0x64>)
  4001da:	4798      	blx	r3
  4001dc:	2000      	movs	r0, #0
  4001de:	4b0d      	ldr	r3, [pc, #52]	; (400214 <sysclk_init+0x68>)
  4001e0:	4798      	blx	r3
  4001e2:	4b0d      	ldr	r3, [pc, #52]	; (400218 <sysclk_init+0x6c>)
  4001e4:	4798      	blx	r3
  4001e6:	4802      	ldr	r0, [pc, #8]	; (4001f0 <sysclk_init+0x44>)
  4001e8:	4b02      	ldr	r3, [pc, #8]	; (4001f4 <sysclk_init+0x48>)
  4001ea:	4798      	blx	r3
  4001ec:	bd10      	pop	{r4, pc}
  4001ee:	bf00      	nop
  4001f0:	11e1a300 	.word	0x11e1a300
  4001f4:	00400bc9 	.word	0x00400bc9
  4001f8:	004007dd 	.word	0x004007dd
  4001fc:	00400831 	.word	0x00400831
  400200:	00400841 	.word	0x00400841
  400204:	20183f01 	.word	0x20183f01
  400208:	400e0600 	.word	0x400e0600
  40020c:	00400851 	.word	0x00400851
  400210:	00400741 	.word	0x00400741
  400214:	00400779 	.word	0x00400779
  400218:	00400abd 	.word	0x00400abd

0040021c <_read>:
  40021c:	e92d 41f0 	stmdb	sp!, {r4, r5, r6, r7, r8, lr}
  400220:	b980      	cbnz	r0, 400244 <_read+0x28>
  400222:	460c      	mov	r4, r1
  400224:	4690      	mov	r8, r2
  400226:	2a00      	cmp	r2, #0
  400228:	dd0f      	ble.n	40024a <_read+0x2e>
  40022a:	188f      	adds	r7, r1, r2
  40022c:	4e08      	ldr	r6, [pc, #32]	; (400250 <_read+0x34>)
  40022e:	4d09      	ldr	r5, [pc, #36]	; (400254 <_read+0x38>)
  400230:	6830      	ldr	r0, [r6, #0]
  400232:	4621      	mov	r1, r4
  400234:	682b      	ldr	r3, [r5, #0]
  400236:	4798      	blx	r3
  400238:	3401      	adds	r4, #1
  40023a:	42bc      	cmp	r4, r7
  40023c:	d1f8      	bne.n	400230 <_read+0x14>
  40023e:	4640      	mov	r0, r8
  400240:	e8bd 81f0 	ldmia.w	sp!, {r4, r5, r6, r7, r8, pc}
  400244:	f04f 38ff 	mov.w	r8, #4294967295
  400248:	e7f9      	b.n	40023e <_read+0x22>
  40024a:	4680      	mov	r8, r0
  40024c:	e7f7      	b.n	40023e <_read+0x22>
  40024e:	bf00      	nop
  400250:	20400bdc 	.word	0x20400bdc
  400254:	20400bd4 	.word	0x20400bd4

00400258 <_write>:
  400258:	3801      	subs	r0, #1
  40025a:	2802      	cmp	r0, #2
  40025c:	d815      	bhi.n	40028a <_write+0x32>
  40025e:	e92d 41f0 	stmdb	sp!, {r4, r5, r6, r7, r8, lr}
  400262:	460e      	mov	r6, r1
  400264:	4614      	mov	r4, r2
  400266:	b19a      	cbz	r2, 400290 <_write+0x38>
  400268:	460d      	mov	r5, r1
  40026a:	f8df 8038 	ldr.w	r8, [pc, #56]	; 4002a4 <_write+0x4c>
  40026e:	4f0c      	ldr	r7, [pc, #48]	; (4002a0 <_write+0x48>)
  400270:	f8d8 0000 	ldr.w	r0, [r8]
  400274:	f815 1b01 	ldrb.w	r1, [r5], #1
  400278:	683b      	ldr	r3, [r7, #0]
  40027a:	4798      	blx	r3
  40027c:	2800      	cmp	r0, #0
  40027e:	db0a      	blt.n	400296 <_write+0x3e>
  400280:	1ba8      	subs	r0, r5, r6
  400282:	3c01      	subs	r4, #1
  400284:	d1f4      	bne.n	400270 <_write+0x18>
  400286:	e8bd 81f0 	ldmia.w	sp!, {r4, r5, r6, r7, r8, pc}
  40028a:	f04f 30ff 	mov.w	r0, #4294967295
  40028e:	4770      	bx	lr
  400290:	4610      	mov	r0, r2
  400292:	e8bd 81f0 	ldmia.w	sp!, {r4, r5, r6, r7, r8, pc}
  400296:	f04f 30ff 	mov.w	r0, #4294967295
  40029a:	e8bd 81f0 	ldmia.w	sp!, {r4, r5, r6, r7, r8, pc}
  40029e:	bf00      	nop
  4002a0:	20400bd8 	.word	0x20400bd8
  4002a4:	20400bdc 	.word	0x20400bdc

004002a8 <board_init>:
  4002a8:	b5f8      	push	{r3, r4, r5, r6, r7, lr}
  4002aa:	f44f 4200 	mov.w	r2, #32768	; 0x8000
  4002ae:	4b5c      	ldr	r3, [pc, #368]	; (400420 <board_init+0x178>)
  4002b0:	605a      	str	r2, [r3, #4]
  4002b2:	f3bf 8f4f 	dsb	sy
  4002b6:	f3bf 8f6f 	isb	sy
  4002ba:	4b5a      	ldr	r3, [pc, #360]	; (400424 <board_init+0x17c>)
  4002bc:	2200      	movs	r2, #0
  4002be:	f8c3 2250 	str.w	r2, [r3, #592]	; 0x250
  4002c2:	695a      	ldr	r2, [r3, #20]
  4002c4:	f442 3200 	orr.w	r2, r2, #131072	; 0x20000
  4002c8:	615a      	str	r2, [r3, #20]
  4002ca:	f3bf 8f4f 	dsb	sy
  4002ce:	f3bf 8f6f 	isb	sy
  4002d2:	f8d3 7080 	ldr.w	r7, [r3, #128]	; 0x80
  4002d6:	f3c7 364e 	ubfx	r6, r7, #13, #15
  4002da:	f007 0007 	and.w	r0, r7, #7
  4002de:	3004      	adds	r0, #4
  4002e0:	f3c7 07c9 	ubfx	r7, r7, #3, #10
  4002e4:	fab7 fe87 	clz	lr, r7
  4002e8:	f00e 0e1f 	and.w	lr, lr, #31
  4002ec:	f3bf 8f4f 	dsb	sy
  4002f0:	f04f 34ff 	mov.w	r4, #4294967295
  4002f4:	fa04 fc00 	lsl.w	ip, r4, r0
  4002f8:	fa06 f000 	lsl.w	r0, r6, r0
  4002fc:	fa04 f40e 	lsl.w	r4, r4, lr
  400300:	fa07 fe0e 	lsl.w	lr, r7, lr
  400304:	461d      	mov	r5, r3
  400306:	463a      	mov	r2, r7
  400308:	4673      	mov	r3, lr
  40030a:	ea40 0103 	orr.w	r1, r0, r3
  40030e:	f8c5 1260 	str.w	r1, [r5, #608]	; 0x260
  400312:	3a01      	subs	r2, #1
  400314:	4423      	add	r3, r4
  400316:	f1b2 3fff 	cmp.w	r2, #4294967295
  40031a:	d1f6      	bne.n	40030a <board_init+0x62>
  40031c:	3e01      	subs	r6, #1
  40031e:	4460      	add	r0, ip
  400320:	f1b6 3fff 	cmp.w	r6, #4294967295
  400324:	d1ef      	bne.n	400306 <board_init+0x5e>
  400326:	f3bf 8f4f 	dsb	sy
  40032a:	4b3e      	ldr	r3, [pc, #248]	; (400424 <board_init+0x17c>)
  40032c:	695a      	ldr	r2, [r3, #20]
  40032e:	f442 3280 	orr.w	r2, r2, #65536	; 0x10000
  400332:	615a      	str	r2, [r3, #20]
  400334:	f3bf 8f4f 	dsb	sy
  400338:	f3bf 8f6f 	isb	sy
  40033c:	4a3a      	ldr	r2, [pc, #232]	; (400428 <board_init+0x180>)
  40033e:	493b      	ldr	r1, [pc, #236]	; (40042c <board_init+0x184>)
  400340:	6051      	str	r1, [r2, #4]
  400342:	f5a1 7180 	sub.w	r1, r1, #256	; 0x100
  400346:	6051      	str	r1, [r2, #4]
  400348:	f3bf 8f4f 	dsb	sy
  40034c:	f3bf 8f6f 	isb	sy
  400350:	f8d3 2290 	ldr.w	r2, [r3, #656]	; 0x290
  400354:	f022 0201 	bic.w	r2, r2, #1
  400358:	f8c3 2290 	str.w	r2, [r3, #656]	; 0x290
  40035c:	f8d3 2294 	ldr.w	r2, [r3, #660]	; 0x294
  400360:	f022 0201 	bic.w	r2, r2, #1
  400364:	f8c3 2294 	str.w	r2, [r3, #660]	; 0x294
  400368:	f3bf 8f4f 	dsb	sy
  40036c:	f3bf 8f6f 	isb	sy
  400370:	200a      	movs	r0, #10
  400372:	4c2f      	ldr	r4, [pc, #188]	; (400430 <board_init+0x188>)
  400374:	47a0      	blx	r4
  400376:	200b      	movs	r0, #11
  400378:	47a0      	blx	r4
  40037a:	200c      	movs	r0, #12
  40037c:	47a0      	blx	r4
  40037e:	2010      	movs	r0, #16
  400380:	47a0      	blx	r4
  400382:	2011      	movs	r0, #17
  400384:	47a0      	blx	r4
  400386:	4b2b      	ldr	r3, [pc, #172]	; (400434 <board_init+0x18c>)
  400388:	f44f 7280 	mov.w	r2, #256	; 0x100
  40038c:	611a      	str	r2, [r3, #16]
  40038e:	f8c3 20a0 	str.w	r2, [r3, #160]	; 0xa0
  400392:	631a      	str	r2, [r3, #48]	; 0x30
  400394:	f5a3 6380 	sub.w	r3, r3, #1024	; 0x400
  400398:	f44f 6200 	mov.w	r2, #2048	; 0x800
  40039c:	615a      	str	r2, [r3, #20]
  40039e:	f8c3 20a0 	str.w	r2, [r3, #160]	; 0xa0
  4003a2:	665a      	str	r2, [r3, #100]	; 0x64
  4003a4:	f8c3 2090 	str.w	r2, [r3, #144]	; 0x90
  4003a8:	655a      	str	r2, [r3, #84]	; 0x54
  4003aa:	621a      	str	r2, [r3, #32]
  4003ac:	f8c3 2084 	str.w	r2, [r3, #132]	; 0x84
  4003b0:	6f19      	ldr	r1, [r3, #112]	; 0x70
  4003b2:	f421 6100 	bic.w	r1, r1, #2048	; 0x800
  4003b6:	6719      	str	r1, [r3, #112]	; 0x70
  4003b8:	6f59      	ldr	r1, [r3, #116]	; 0x74
  4003ba:	f421 6100 	bic.w	r1, r1, #2048	; 0x800
  4003be:	6759      	str	r1, [r3, #116]	; 0x74
  4003c0:	f8c3 20c0 	str.w	r2, [r3, #192]	; 0xc0
  4003c4:	f8c3 20d4 	str.w	r2, [r3, #212]	; 0xd4
  4003c8:	f8c3 20b0 	str.w	r2, [r3, #176]	; 0xb0
  4003cc:	f44f 1200 	mov.w	r2, #2097152	; 0x200000
  4003d0:	661a      	str	r2, [r3, #96]	; 0x60
  4003d2:	f8c3 2090 	str.w	r2, [r3, #144]	; 0x90
  4003d6:	655a      	str	r2, [r3, #84]	; 0x54
  4003d8:	625a      	str	r2, [r3, #36]	; 0x24
  4003da:	f8c3 2080 	str.w	r2, [r3, #128]	; 0x80
  4003de:	6f19      	ldr	r1, [r3, #112]	; 0x70
  4003e0:	f421 1100 	bic.w	r1, r1, #2097152	; 0x200000
  4003e4:	6719      	str	r1, [r3, #112]	; 0x70
  4003e6:	6f59      	ldr	r1, [r3, #116]	; 0x74
  4003e8:	f421 1100 	bic.w	r1, r1, #2097152	; 0x200000
  4003ec:	6759      	str	r1, [r3, #116]	; 0x74
  4003ee:	605a      	str	r2, [r3, #4]
  4003f0:	4a11      	ldr	r2, [pc, #68]	; (400438 <board_init+0x190>)
  4003f2:	f8d2 3114 	ldr.w	r3, [r2, #276]	; 0x114
  4003f6:	f043 0310 	orr.w	r3, r3, #16
  4003fa:	f8c2 3114 	str.w	r3, [r2, #276]	; 0x114
  4003fe:	4b0f      	ldr	r3, [pc, #60]	; (40043c <board_init+0x194>)
  400400:	2210      	movs	r2, #16
  400402:	661a      	str	r2, [r3, #96]	; 0x60
  400404:	f8c3 2090 	str.w	r2, [r3, #144]	; 0x90
  400408:	655a      	str	r2, [r3, #84]	; 0x54
  40040a:	625a      	str	r2, [r3, #36]	; 0x24
  40040c:	f8c3 2080 	str.w	r2, [r3, #128]	; 0x80
  400410:	6f19      	ldr	r1, [r3, #112]	; 0x70
  400412:	4311      	orrs	r1, r2
  400414:	6719      	str	r1, [r3, #112]	; 0x70
  400416:	6f59      	ldr	r1, [r3, #116]	; 0x74
  400418:	4311      	orrs	r1, r2
  40041a:	6759      	str	r1, [r3, #116]	; 0x74
  40041c:	605a      	str	r2, [r3, #4]
  40041e:	bdf8      	pop	{r3, r4, r5, r6, r7, pc}
  400420:	400e1850 	.word	0x400e1850
  400424:	e000ed00 	.word	0xe000ed00
  400428:	400e0c00 	.word	0x400e0c00
  40042c:	5a00080c 	.word	0x5a00080c
  400430:	00400861 	.word	0x00400861
  400434:	400e1200 	.word	0x400e1200
  400438:	40088000 	.word	0x40088000
  40043c:	400e1000 	.word	0x400e1000

00400440 <pio_set_debounce_filter>:
  400440:	f8c0 1084 	str.w	r1, [r0, #132]	; 0x84
  400444:	0053      	lsls	r3, r2, #1
  400446:	f44f 4200 	mov.w	r2, #32768	; 0x8000
  40044a:	fbb2 f2f3 	udiv	r2, r2, r3
  40044e:	3a01      	subs	r2, #1
  400450:	f3c2 020d 	ubfx	r2, r2, #0, #14
  400454:	f8c0 208c 	str.w	r2, [r0, #140]	; 0x8c
  400458:	4770      	bx	lr

0040045a <pio_set_peripheral>:
  40045a:	6442      	str	r2, [r0, #68]	; 0x44
  40045c:	f1b1 5fc0 	cmp.w	r1, #402653184	; 0x18000000
  400460:	d03a      	beq.n	4004d8 <pio_set_peripheral+0x7e>
  400462:	d813      	bhi.n	40048c <pio_set_peripheral+0x32>
  400464:	f1b1 6f00 	cmp.w	r1, #134217728	; 0x8000000
  400468:	d025      	beq.n	4004b6 <pio_set_peripheral+0x5c>
  40046a:	f1b1 5f80 	cmp.w	r1, #268435456	; 0x10000000
  40046e:	d10a      	bne.n	400486 <pio_set_peripheral+0x2c>
  400470:	6f03      	ldr	r3, [r0, #112]	; 0x70
  400472:	4313      	orrs	r3, r2
  400474:	6703      	str	r3, [r0, #112]	; 0x70
  400476:	6f43      	ldr	r3, [r0, #116]	; 0x74
  400478:	6f41      	ldr	r1, [r0, #116]	; 0x74
  40047a:	400b      	ands	r3, r1
  40047c:	ea23 0302 	bic.w	r3, r3, r2
  400480:	6743      	str	r3, [r0, #116]	; 0x74
  400482:	6042      	str	r2, [r0, #4]
  400484:	4770      	bx	lr
  400486:	2900      	cmp	r1, #0
  400488:	d1fb      	bne.n	400482 <pio_set_peripheral+0x28>
  40048a:	4770      	bx	lr
  40048c:	f1b1 5f20 	cmp.w	r1, #671088640	; 0x28000000
  400490:	d021      	beq.n	4004d6 <pio_set_peripheral+0x7c>
  400492:	d809      	bhi.n	4004a8 <pio_set_peripheral+0x4e>
  400494:	f1b1 5f00 	cmp.w	r1, #536870912	; 0x20000000
  400498:	d1f3      	bne.n	400482 <pio_set_peripheral+0x28>
  40049a:	6f03      	ldr	r3, [r0, #112]	; 0x70
  40049c:	4313      	orrs	r3, r2
  40049e:	6703      	str	r3, [r0, #112]	; 0x70
  4004a0:	6f43      	ldr	r3, [r0, #116]	; 0x74
  4004a2:	4313      	orrs	r3, r2
  4004a4:	6743      	str	r3, [r0, #116]	; 0x74
  4004a6:	e7ec      	b.n	400482 <pio_set_peripheral+0x28>
  4004a8:	f1b1 5f40 	cmp.w	r1, #805306368	; 0x30000000
  4004ac:	d013      	beq.n	4004d6 <pio_set_peripheral+0x7c>
  4004ae:	f1b1 5f60 	cmp.w	r1, #939524096	; 0x38000000
  4004b2:	d010      	beq.n	4004d6 <pio_set_peripheral+0x7c>
  4004b4:	e7e5      	b.n	400482 <pio_set_peripheral+0x28>
  4004b6:	b410      	push	{r4}
  4004b8:	6f01      	ldr	r1, [r0, #112]	; 0x70
  4004ba:	6f04      	ldr	r4, [r0, #112]	; 0x70
  4004bc:	43d3      	mvns	r3, r2
  4004be:	4021      	ands	r1, r4
  4004c0:	461c      	mov	r4, r3
  4004c2:	4019      	ands	r1, r3
  4004c4:	6701      	str	r1, [r0, #112]	; 0x70
  4004c6:	6f43      	ldr	r3, [r0, #116]	; 0x74
  4004c8:	6f41      	ldr	r1, [r0, #116]	; 0x74
  4004ca:	400b      	ands	r3, r1
  4004cc:	4023      	ands	r3, r4
  4004ce:	6743      	str	r3, [r0, #116]	; 0x74
  4004d0:	6042      	str	r2, [r0, #4]
  4004d2:	f85d 4b04 	ldr.w	r4, [sp], #4
  4004d6:	4770      	bx	lr
  4004d8:	6f03      	ldr	r3, [r0, #112]	; 0x70
  4004da:	6f01      	ldr	r1, [r0, #112]	; 0x70
  4004dc:	400b      	ands	r3, r1
  4004de:	ea23 0302 	bic.w	r3, r3, r2
  4004e2:	6703      	str	r3, [r0, #112]	; 0x70
  4004e4:	6f43      	ldr	r3, [r0, #116]	; 0x74
  4004e6:	4313      	orrs	r3, r2
  4004e8:	6743      	str	r3, [r0, #116]	; 0x74
  4004ea:	e7ca      	b.n	400482 <pio_set_peripheral+0x28>

004004ec <pio_set_input>:
  4004ec:	6441      	str	r1, [r0, #68]	; 0x44
  4004ee:	f012 0f01 	tst.w	r2, #1
  4004f2:	d10d      	bne.n	400510 <pio_set_input+0x24>
  4004f4:	6601      	str	r1, [r0, #96]	; 0x60
  4004f6:	f012 0f0a 	tst.w	r2, #10
  4004fa:	d00b      	beq.n	400514 <pio_set_input+0x28>
  4004fc:	6201      	str	r1, [r0, #32]
  4004fe:	f012 0f02 	tst.w	r2, #2
  400502:	d109      	bne.n	400518 <pio_set_input+0x2c>
  400504:	f012 0f08 	tst.w	r2, #8
  400508:	d008      	beq.n	40051c <pio_set_input+0x30>
  40050a:	f8c0 1084 	str.w	r1, [r0, #132]	; 0x84
  40050e:	e005      	b.n	40051c <pio_set_input+0x30>
  400510:	6641      	str	r1, [r0, #100]	; 0x64
  400512:	e7f0      	b.n	4004f6 <pio_set_input+0xa>
  400514:	6241      	str	r1, [r0, #36]	; 0x24
  400516:	e7f2      	b.n	4004fe <pio_set_input+0x12>
  400518:	f8c0 1080 	str.w	r1, [r0, #128]	; 0x80
  40051c:	6141      	str	r1, [r0, #20]
  40051e:	6001      	str	r1, [r0, #0]
  400520:	4770      	bx	lr

00400522 <pio_set_output>:
  400522:	b410      	push	{r4}
  400524:	9c01      	ldr	r4, [sp, #4]
  400526:	6441      	str	r1, [r0, #68]	; 0x44
  400528:	b94c      	cbnz	r4, 40053e <pio_set_output+0x1c>
  40052a:	6601      	str	r1, [r0, #96]	; 0x60
  40052c:	b14b      	cbz	r3, 400542 <pio_set_output+0x20>
  40052e:	6501      	str	r1, [r0, #80]	; 0x50
  400530:	b94a      	cbnz	r2, 400546 <pio_set_output+0x24>
  400532:	6341      	str	r1, [r0, #52]	; 0x34
  400534:	6101      	str	r1, [r0, #16]
  400536:	6001      	str	r1, [r0, #0]
  400538:	f85d 4b04 	ldr.w	r4, [sp], #4
  40053c:	4770      	bx	lr
  40053e:	6641      	str	r1, [r0, #100]	; 0x64
  400540:	e7f4      	b.n	40052c <pio_set_output+0xa>
  400542:	6541      	str	r1, [r0, #84]	; 0x54
  400544:	e7f4      	b.n	400530 <pio_set_output+0xe>
  400546:	6301      	str	r1, [r0, #48]	; 0x30
  400548:	e7f4      	b.n	400534 <pio_set_output+0x12>
	...

0040054c <pio_configure>:
  40054c:	b570      	push	{r4, r5, r6, lr}
  40054e:	b082      	sub	sp, #8
  400550:	4605      	mov	r5, r0
  400552:	4616      	mov	r6, r2
  400554:	461c      	mov	r4, r3
  400556:	f1b1 5f00 	cmp.w	r1, #536870912	; 0x20000000
  40055a:	d014      	beq.n	400586 <pio_configure+0x3a>
  40055c:	d90a      	bls.n	400574 <pio_configure+0x28>
  40055e:	f1b1 5f40 	cmp.w	r1, #805306368	; 0x30000000
  400562:	d024      	beq.n	4005ae <pio_configure+0x62>
  400564:	f1b1 5f60 	cmp.w	r1, #939524096	; 0x38000000
  400568:	d021      	beq.n	4005ae <pio_configure+0x62>
  40056a:	f1b1 5f20 	cmp.w	r1, #671088640	; 0x28000000
  40056e:	d017      	beq.n	4005a0 <pio_configure+0x54>
  400570:	2000      	movs	r0, #0
  400572:	e01a      	b.n	4005aa <pio_configure+0x5e>
  400574:	f1b1 5f80 	cmp.w	r1, #268435456	; 0x10000000
  400578:	d005      	beq.n	400586 <pio_configure+0x3a>
  40057a:	f1b1 5fc0 	cmp.w	r1, #402653184	; 0x18000000
  40057e:	d002      	beq.n	400586 <pio_configure+0x3a>
  400580:	f1b1 6f00 	cmp.w	r1, #134217728	; 0x8000000
  400584:	d1f4      	bne.n	400570 <pio_configure+0x24>
  400586:	4632      	mov	r2, r6
  400588:	4628      	mov	r0, r5
  40058a:	4b11      	ldr	r3, [pc, #68]	; (4005d0 <pio_configure+0x84>)
  40058c:	4798      	blx	r3
  40058e:	f014 0f01 	tst.w	r4, #1
  400592:	d102      	bne.n	40059a <pio_configure+0x4e>
  400594:	662e      	str	r6, [r5, #96]	; 0x60
  400596:	2001      	movs	r0, #1
  400598:	e007      	b.n	4005aa <pio_configure+0x5e>
  40059a:	666e      	str	r6, [r5, #100]	; 0x64
  40059c:	2001      	movs	r0, #1
  40059e:	e004      	b.n	4005aa <pio_configure+0x5e>
  4005a0:	461a      	mov	r2, r3
  4005a2:	4631      	mov	r1, r6
  4005a4:	4b0b      	ldr	r3, [pc, #44]	; (4005d4 <pio_configure+0x88>)
  4005a6:	4798      	blx	r3
  4005a8:	2001      	movs	r0, #1
  4005aa:	b002      	add	sp, #8
  4005ac:	bd70      	pop	{r4, r5, r6, pc}
  4005ae:	f004 0301 	and.w	r3, r4, #1
  4005b2:	9300      	str	r3, [sp, #0]
  4005b4:	f3c4 0380 	ubfx	r3, r4, #2, #1
  4005b8:	f1b1 5f60 	cmp.w	r1, #939524096	; 0x38000000
  4005bc:	bf14      	ite	ne
  4005be:	2200      	movne	r2, #0
  4005c0:	2201      	moveq	r2, #1
  4005c2:	4631      	mov	r1, r6
  4005c4:	4628      	mov	r0, r5
  4005c6:	4c04      	ldr	r4, [pc, #16]	; (4005d8 <pio_configure+0x8c>)
  4005c8:	47a0      	blx	r4
  4005ca:	2001      	movs	r0, #1
  4005cc:	e7ed      	b.n	4005aa <pio_configure+0x5e>
  4005ce:	bf00      	nop
  4005d0:	0040045b 	.word	0x0040045b
  4005d4:	004004ed 	.word	0x004004ed
  4005d8:	00400523 	.word	0x00400523

004005dc <pio_configure_interrupt>:
  4005dc:	f012 0f10 	tst.w	r2, #16
  4005e0:	d012      	beq.n	400608 <pio_configure_interrupt+0x2c>
  4005e2:	f8c0 10b0 	str.w	r1, [r0, #176]	; 0xb0
  4005e6:	f012 0f20 	tst.w	r2, #32
  4005ea:	d007      	beq.n	4005fc <pio_configure_interrupt+0x20>
  4005ec:	f8c0 10d4 	str.w	r1, [r0, #212]	; 0xd4
  4005f0:	f012 0f40 	tst.w	r2, #64	; 0x40
  4005f4:	d005      	beq.n	400602 <pio_configure_interrupt+0x26>
  4005f6:	f8c0 10c0 	str.w	r1, [r0, #192]	; 0xc0
  4005fa:	4770      	bx	lr
  4005fc:	f8c0 10d0 	str.w	r1, [r0, #208]	; 0xd0
  400600:	e7f6      	b.n	4005f0 <pio_configure_interrupt+0x14>
  400602:	f8c0 10c4 	str.w	r1, [r0, #196]	; 0xc4
  400606:	4770      	bx	lr
  400608:	f8c0 10b4 	str.w	r1, [r0, #180]	; 0xb4
  40060c:	4770      	bx	lr

0040060e <pio_enable_interrupt>:
  40060e:	6401      	str	r1, [r0, #64]	; 0x40
  400610:	4770      	bx	lr

00400612 <pio_get_interrupt_status>:
  400612:	6cc0      	ldr	r0, [r0, #76]	; 0x4c
  400614:	4770      	bx	lr

00400616 <pio_get_interrupt_mask>:
  400616:	6c80      	ldr	r0, [r0, #72]	; 0x48
  400618:	4770      	bx	lr
	...

0040061c <pio_handler_process>:
  40061c:	e92d 41f0 	stmdb	sp!, {r4, r5, r6, r7, r8, lr}
  400620:	4604      	mov	r4, r0
  400622:	4688      	mov	r8, r1
  400624:	4b0e      	ldr	r3, [pc, #56]	; (400660 <pio_handler_process+0x44>)
  400626:	4798      	blx	r3
  400628:	4605      	mov	r5, r0
  40062a:	4620      	mov	r0, r4
  40062c:	4b0d      	ldr	r3, [pc, #52]	; (400664 <pio_handler_process+0x48>)
  40062e:	4798      	blx	r3
  400630:	4005      	ands	r5, r0
  400632:	d013      	beq.n	40065c <pio_handler_process+0x40>
  400634:	4c0c      	ldr	r4, [pc, #48]	; (400668 <pio_handler_process+0x4c>)
  400636:	f104 0660 	add.w	r6, r4, #96	; 0x60
  40063a:	e003      	b.n	400644 <pio_handler_process+0x28>
  40063c:	42b4      	cmp	r4, r6
  40063e:	d00d      	beq.n	40065c <pio_handler_process+0x40>
  400640:	3410      	adds	r4, #16
  400642:	b15d      	cbz	r5, 40065c <pio_handler_process+0x40>
  400644:	6820      	ldr	r0, [r4, #0]
  400646:	4540      	cmp	r0, r8
  400648:	d1f8      	bne.n	40063c <pio_handler_process+0x20>
  40064a:	6861      	ldr	r1, [r4, #4]
  40064c:	4229      	tst	r1, r5
  40064e:	d0f5      	beq.n	40063c <pio_handler_process+0x20>
  400650:	68e3      	ldr	r3, [r4, #12]
  400652:	4798      	blx	r3
  400654:	6863      	ldr	r3, [r4, #4]
  400656:	ea25 0503 	bic.w	r5, r5, r3
  40065a:	e7ef      	b.n	40063c <pio_handler_process+0x20>
  40065c:	e8bd 81f0 	ldmia.w	sp!, {r4, r5, r6, r7, r8, pc}
  400660:	00400613 	.word	0x00400613
  400664:	00400617 	.word	0x00400617
  400668:	204009e4 	.word	0x204009e4

0040066c <pio_handler_set>:
  40066c:	b5f8      	push	{r3, r4, r5, r6, r7, lr}
  40066e:	4c18      	ldr	r4, [pc, #96]	; (4006d0 <pio_handler_set+0x64>)
  400670:	6826      	ldr	r6, [r4, #0]
  400672:	2e06      	cmp	r6, #6
  400674:	d82a      	bhi.n	4006cc <pio_handler_set+0x60>
  400676:	f04f 0c00 	mov.w	ip, #0
  40067a:	4664      	mov	r4, ip
  40067c:	4f15      	ldr	r7, [pc, #84]	; (4006d4 <pio_handler_set+0x68>)
  40067e:	e004      	b.n	40068a <pio_handler_set+0x1e>
  400680:	3401      	adds	r4, #1
  400682:	b2e4      	uxtb	r4, r4
  400684:	46a4      	mov	ip, r4
  400686:	42a6      	cmp	r6, r4
  400688:	d309      	bcc.n	40069e <pio_handler_set+0x32>
  40068a:	46a6      	mov	lr, r4
  40068c:	0125      	lsls	r5, r4, #4
  40068e:	597d      	ldr	r5, [r7, r5]
  400690:	428d      	cmp	r5, r1
  400692:	d1f5      	bne.n	400680 <pio_handler_set+0x14>
  400694:	eb07 1504 	add.w	r5, r7, r4, lsl #4
  400698:	686d      	ldr	r5, [r5, #4]
  40069a:	4295      	cmp	r5, r2
  40069c:	d1f0      	bne.n	400680 <pio_handler_set+0x14>
  40069e:	4d0d      	ldr	r5, [pc, #52]	; (4006d4 <pio_handler_set+0x68>)
  4006a0:	ea4f 1e0e 	mov.w	lr, lr, lsl #4
  4006a4:	eb05 040e 	add.w	r4, r5, lr
  4006a8:	f845 100e 	str.w	r1, [r5, lr]
  4006ac:	6062      	str	r2, [r4, #4]
  4006ae:	60a3      	str	r3, [r4, #8]
  4006b0:	9906      	ldr	r1, [sp, #24]
  4006b2:	60e1      	str	r1, [r4, #12]
  4006b4:	3601      	adds	r6, #1
  4006b6:	4566      	cmp	r6, ip
  4006b8:	d005      	beq.n	4006c6 <pio_handler_set+0x5a>
  4006ba:	4611      	mov	r1, r2
  4006bc:	461a      	mov	r2, r3
  4006be:	4b06      	ldr	r3, [pc, #24]	; (4006d8 <pio_handler_set+0x6c>)
  4006c0:	4798      	blx	r3
  4006c2:	2000      	movs	r0, #0
  4006c4:	bdf8      	pop	{r3, r4, r5, r6, r7, pc}
  4006c6:	4902      	ldr	r1, [pc, #8]	; (4006d0 <pio_handler_set+0x64>)
  4006c8:	600e      	str	r6, [r1, #0]
  4006ca:	e7f6      	b.n	4006ba <pio_handler_set+0x4e>
  4006cc:	2001      	movs	r0, #1
  4006ce:	bdf8      	pop	{r3, r4, r5, r6, r7, pc}
  4006d0:	20400a54 	.word	0x20400a54
  4006d4:	204009e4 	.word	0x204009e4
  4006d8:	004005dd 	.word	0x004005dd

004006dc <PIOA_Handler>:
  4006dc:	b508      	push	{r3, lr}
  4006de:	210a      	movs	r1, #10
  4006e0:	4801      	ldr	r0, [pc, #4]	; (4006e8 <PIOA_Handler+0xc>)
  4006e2:	4b02      	ldr	r3, [pc, #8]	; (4006ec <PIOA_Handler+0x10>)
  4006e4:	4798      	blx	r3
  4006e6:	bd08      	pop	{r3, pc}
  4006e8:	400e0e00 	.word	0x400e0e00
  4006ec:	0040061d 	.word	0x0040061d

004006f0 <PIOB_Handler>:
  4006f0:	b508      	push	{r3, lr}
  4006f2:	210b      	movs	r1, #11
  4006f4:	4801      	ldr	r0, [pc, #4]	; (4006fc <PIOB_Handler+0xc>)
  4006f6:	4b02      	ldr	r3, [pc, #8]	; (400700 <PIOB_Handler+0x10>)
  4006f8:	4798      	blx	r3
  4006fa:	bd08      	pop	{r3, pc}
  4006fc:	400e1000 	.word	0x400e1000
  400700:	0040061d 	.word	0x0040061d

00400704 <PIOC_Handler>:
  400704:	b508      	push	{r3, lr}
  400706:	210c      	movs	r1, #12
  400708:	4801      	ldr	r0, [pc, #4]	; (400710 <PIOC_Handler+0xc>)
  40070a:	4b02      	ldr	r3, [pc, #8]	; (400714 <PIOC_Handler+0x10>)
  40070c:	4798      	blx	r3
  40070e:	bd08      	pop	{r3, pc}
  400710:	400e1200 	.word	0x400e1200
  400714:	0040061d 	.word	0x0040061d

00400718 <PIOD_Handler>:
  400718:	b508      	push	{r3, lr}
  40071a:	2110      	movs	r1, #16
  40071c:	4801      	ldr	r0, [pc, #4]	; (400724 <PIOD_Handler+0xc>)
  40071e:	4b02      	ldr	r3, [pc, #8]	; (400728 <PIOD_Handler+0x10>)
  400720:	4798      	blx	r3
  400722:	bd08      	pop	{r3, pc}
  400724:	400e1400 	.word	0x400e1400
  400728:	0040061d 	.word	0x0040061d

0040072c <PIOE_Handler>:
  40072c:	b508      	push	{r3, lr}
  40072e:	2111      	movs	r1, #17
  400730:	4801      	ldr	r0, [pc, #4]	; (400738 <PIOE_Handler+0xc>)
  400732:	4b02      	ldr	r3, [pc, #8]	; (40073c <PIOE_Handler+0x10>)
  400734:	4798      	blx	r3
  400736:	bd08      	pop	{r3, pc}
  400738:	400e1600 	.word	0x400e1600
  40073c:	0040061d 	.word	0x0040061d

00400740 <pmc_mck_set_division>:
  400740:	2803      	cmp	r0, #3
  400742:	d011      	beq.n	400768 <pmc_mck_set_division+0x28>
  400744:	2804      	cmp	r0, #4
  400746:	d012      	beq.n	40076e <pmc_mck_set_division+0x2e>
  400748:	2802      	cmp	r0, #2
  40074a:	bf0c      	ite	eq
  40074c:	f44f 7180 	moveq.w	r1, #256	; 0x100
  400750:	2100      	movne	r1, #0
  400752:	4a08      	ldr	r2, [pc, #32]	; (400774 <pmc_mck_set_division+0x34>)
  400754:	6b13      	ldr	r3, [r2, #48]	; 0x30
  400756:	f423 7340 	bic.w	r3, r3, #768	; 0x300
  40075a:	430b      	orrs	r3, r1
  40075c:	6313      	str	r3, [r2, #48]	; 0x30
  40075e:	6e93      	ldr	r3, [r2, #104]	; 0x68
  400760:	f013 0f08 	tst.w	r3, #8
  400764:	d0fb      	beq.n	40075e <pmc_mck_set_division+0x1e>
  400766:	4770      	bx	lr
  400768:	f44f 7140 	mov.w	r1, #768	; 0x300
  40076c:	e7f1      	b.n	400752 <pmc_mck_set_division+0x12>
  40076e:	f44f 7100 	mov.w	r1, #512	; 0x200
  400772:	e7ee      	b.n	400752 <pmc_mck_set_division+0x12>
  400774:	400e0600 	.word	0x400e0600

00400778 <pmc_switch_mck_to_pllack>:
  400778:	4a17      	ldr	r2, [pc, #92]	; (4007d8 <pmc_switch_mck_to_pllack+0x60>)
  40077a:	6b13      	ldr	r3, [r2, #48]	; 0x30
  40077c:	f023 0370 	bic.w	r3, r3, #112	; 0x70
  400780:	4318      	orrs	r0, r3
  400782:	6310      	str	r0, [r2, #48]	; 0x30
  400784:	6e93      	ldr	r3, [r2, #104]	; 0x68
  400786:	f013 0f08 	tst.w	r3, #8
  40078a:	d10a      	bne.n	4007a2 <pmc_switch_mck_to_pllack+0x2a>
  40078c:	f44f 5380 	mov.w	r3, #4096	; 0x1000
  400790:	4911      	ldr	r1, [pc, #68]	; (4007d8 <pmc_switch_mck_to_pllack+0x60>)
  400792:	6e8a      	ldr	r2, [r1, #104]	; 0x68
  400794:	f012 0f08 	tst.w	r2, #8
  400798:	d103      	bne.n	4007a2 <pmc_switch_mck_to_pllack+0x2a>
  40079a:	3b01      	subs	r3, #1
  40079c:	d1f9      	bne.n	400792 <pmc_switch_mck_to_pllack+0x1a>
  40079e:	2001      	movs	r0, #1
  4007a0:	4770      	bx	lr
  4007a2:	4a0d      	ldr	r2, [pc, #52]	; (4007d8 <pmc_switch_mck_to_pllack+0x60>)
  4007a4:	6b13      	ldr	r3, [r2, #48]	; 0x30
  4007a6:	f023 0303 	bic.w	r3, r3, #3
  4007aa:	f043 0302 	orr.w	r3, r3, #2
  4007ae:	6313      	str	r3, [r2, #48]	; 0x30
  4007b0:	6e93      	ldr	r3, [r2, #104]	; 0x68
  4007b2:	f013 0f08 	tst.w	r3, #8
  4007b6:	d10a      	bne.n	4007ce <pmc_switch_mck_to_pllack+0x56>
  4007b8:	f44f 5380 	mov.w	r3, #4096	; 0x1000
  4007bc:	4906      	ldr	r1, [pc, #24]	; (4007d8 <pmc_switch_mck_to_pllack+0x60>)
  4007be:	6e8a      	ldr	r2, [r1, #104]	; 0x68
  4007c0:	f012 0f08 	tst.w	r2, #8
  4007c4:	d105      	bne.n	4007d2 <pmc_switch_mck_to_pllack+0x5a>
  4007c6:	3b01      	subs	r3, #1
  4007c8:	d1f9      	bne.n	4007be <pmc_switch_mck_to_pllack+0x46>
  4007ca:	2001      	movs	r0, #1
  4007cc:	4770      	bx	lr
  4007ce:	2000      	movs	r0, #0
  4007d0:	4770      	bx	lr
  4007d2:	2000      	movs	r0, #0
  4007d4:	4770      	bx	lr
  4007d6:	bf00      	nop
  4007d8:	400e0600 	.word	0x400e0600

004007dc <pmc_switch_mainck_to_xtal>:
  4007dc:	b9a0      	cbnz	r0, 400808 <pmc_switch_mainck_to_xtal+0x2c>
  4007de:	480e      	ldr	r0, [pc, #56]	; (400818 <pmc_switch_mainck_to_xtal+0x3c>)
  4007e0:	6a03      	ldr	r3, [r0, #32]
  4007e2:	0209      	lsls	r1, r1, #8
  4007e4:	b289      	uxth	r1, r1
  4007e6:	4a0d      	ldr	r2, [pc, #52]	; (40081c <pmc_switch_mainck_to_xtal+0x40>)
  4007e8:	401a      	ands	r2, r3
  4007ea:	4b0d      	ldr	r3, [pc, #52]	; (400820 <pmc_switch_mainck_to_xtal+0x44>)
  4007ec:	4313      	orrs	r3, r2
  4007ee:	4319      	orrs	r1, r3
  4007f0:	6201      	str	r1, [r0, #32]
  4007f2:	4602      	mov	r2, r0
  4007f4:	6e93      	ldr	r3, [r2, #104]	; 0x68
  4007f6:	f013 0f01 	tst.w	r3, #1
  4007fa:	d0fb      	beq.n	4007f4 <pmc_switch_mainck_to_xtal+0x18>
  4007fc:	4a06      	ldr	r2, [pc, #24]	; (400818 <pmc_switch_mainck_to_xtal+0x3c>)
  4007fe:	6a11      	ldr	r1, [r2, #32]
  400800:	4b08      	ldr	r3, [pc, #32]	; (400824 <pmc_switch_mainck_to_xtal+0x48>)
  400802:	430b      	orrs	r3, r1
  400804:	6213      	str	r3, [r2, #32]
  400806:	4770      	bx	lr
  400808:	4903      	ldr	r1, [pc, #12]	; (400818 <pmc_switch_mainck_to_xtal+0x3c>)
  40080a:	6a0b      	ldr	r3, [r1, #32]
  40080c:	4a06      	ldr	r2, [pc, #24]	; (400828 <pmc_switch_mainck_to_xtal+0x4c>)
  40080e:	401a      	ands	r2, r3
  400810:	4b06      	ldr	r3, [pc, #24]	; (40082c <pmc_switch_mainck_to_xtal+0x50>)
  400812:	4313      	orrs	r3, r2
  400814:	620b      	str	r3, [r1, #32]
  400816:	4770      	bx	lr
  400818:	400e0600 	.word	0x400e0600
  40081c:	ffc8fffc 	.word	0xffc8fffc
  400820:	00370001 	.word	0x00370001
  400824:	01370000 	.word	0x01370000
  400828:	fec8fffc 	.word	0xfec8fffc
  40082c:	01370002 	.word	0x01370002

00400830 <pmc_osc_is_ready_mainck>:
  400830:	4b02      	ldr	r3, [pc, #8]	; (40083c <pmc_osc_is_ready_mainck+0xc>)
  400832:	6e98      	ldr	r0, [r3, #104]	; 0x68
  400834:	f400 3080 	and.w	r0, r0, #65536	; 0x10000
  400838:	4770      	bx	lr
  40083a:	bf00      	nop
  40083c:	400e0600 	.word	0x400e0600

00400840 <pmc_disable_pllack>:
  400840:	f04f 5200 	mov.w	r2, #536870912	; 0x20000000
  400844:	4b01      	ldr	r3, [pc, #4]	; (40084c <pmc_disable_pllack+0xc>)
  400846:	629a      	str	r2, [r3, #40]	; 0x28
  400848:	4770      	bx	lr
  40084a:	bf00      	nop
  40084c:	400e0600 	.word	0x400e0600

00400850 <pmc_is_locked_pllack>:
  400850:	4b02      	ldr	r3, [pc, #8]	; (40085c <pmc_is_locked_pllack+0xc>)
  400852:	6e98      	ldr	r0, [r3, #104]	; 0x68
  400854:	f000 0002 	and.w	r0, r0, #2
  400858:	4770      	bx	lr
  40085a:	bf00      	nop
  40085c:	400e0600 	.word	0x400e0600

00400860 <pmc_enable_periph_clk>:
  400860:	283f      	cmp	r0, #63	; 0x3f
  400862:	d81e      	bhi.n	4008a2 <pmc_enable_periph_clk+0x42>
  400864:	281f      	cmp	r0, #31
  400866:	d80c      	bhi.n	400882 <pmc_enable_periph_clk+0x22>
  400868:	4b11      	ldr	r3, [pc, #68]	; (4008b0 <pmc_enable_periph_clk+0x50>)
  40086a:	699a      	ldr	r2, [r3, #24]
  40086c:	2301      	movs	r3, #1
  40086e:	4083      	lsls	r3, r0
  400870:	4393      	bics	r3, r2
  400872:	d018      	beq.n	4008a6 <pmc_enable_periph_clk+0x46>
  400874:	2301      	movs	r3, #1
  400876:	fa03 f000 	lsl.w	r0, r3, r0
  40087a:	4b0d      	ldr	r3, [pc, #52]	; (4008b0 <pmc_enable_periph_clk+0x50>)
  40087c:	6118      	str	r0, [r3, #16]
  40087e:	2000      	movs	r0, #0
  400880:	4770      	bx	lr
  400882:	3820      	subs	r0, #32
  400884:	4b0a      	ldr	r3, [pc, #40]	; (4008b0 <pmc_enable_periph_clk+0x50>)
  400886:	f8d3 2108 	ldr.w	r2, [r3, #264]	; 0x108
  40088a:	2301      	movs	r3, #1
  40088c:	4083      	lsls	r3, r0
  40088e:	4393      	bics	r3, r2
  400890:	d00b      	beq.n	4008aa <pmc_enable_periph_clk+0x4a>
  400892:	2301      	movs	r3, #1
  400894:	fa03 f000 	lsl.w	r0, r3, r0
  400898:	4b05      	ldr	r3, [pc, #20]	; (4008b0 <pmc_enable_periph_clk+0x50>)
  40089a:	f8c3 0100 	str.w	r0, [r3, #256]	; 0x100
  40089e:	2000      	movs	r0, #0
  4008a0:	4770      	bx	lr
  4008a2:	2001      	movs	r0, #1
  4008a4:	4770      	bx	lr
  4008a6:	2000      	movs	r0, #0
  4008a8:	4770      	bx	lr
  4008aa:	2000      	movs	r0, #0
  4008ac:	4770      	bx	lr
  4008ae:	bf00      	nop
  4008b0:	400e0600 	.word	0x400e0600

004008b4 <uart_write>:
  4008b4:	6943      	ldr	r3, [r0, #20]
  4008b6:	f013 0f02 	tst.w	r3, #2
  4008ba:	d002      	beq.n	4008c2 <uart_write+0xe>
  4008bc:	61c1      	str	r1, [r0, #28]
  4008be:	2000      	movs	r0, #0
  4008c0:	4770      	bx	lr
  4008c2:	2001      	movs	r0, #1
  4008c4:	4770      	bx	lr

004008c6 <uart_read>:
  4008c6:	6943      	ldr	r3, [r0, #20]
  4008c8:	f013 0f01 	tst.w	r3, #1
  4008cc:	d003      	beq.n	4008d6 <uart_read+0x10>
  4008ce:	6983      	ldr	r3, [r0, #24]
  4008d0:	700b      	strb	r3, [r1, #0]
  4008d2:	2000      	movs	r0, #0
  4008d4:	4770      	bx	lr
  4008d6:	2001      	movs	r0, #1
  4008d8:	4770      	bx	lr

004008da <usart_set_async_baudrate>:
  4008da:	b410      	push	{r4}
  4008dc:	010b      	lsls	r3, r1, #4
  4008de:	4293      	cmp	r3, r2
  4008e0:	d914      	bls.n	40090c <usart_set_async_baudrate+0x32>
  4008e2:	00c9      	lsls	r1, r1, #3
  4008e4:	084b      	lsrs	r3, r1, #1
  4008e6:	eb03 02c2 	add.w	r2, r3, r2, lsl #3
  4008ea:	fbb2 f2f1 	udiv	r2, r2, r1
  4008ee:	08d3      	lsrs	r3, r2, #3
  4008f0:	1e5c      	subs	r4, r3, #1
  4008f2:	f64f 71fe 	movw	r1, #65534	; 0xfffe
  4008f6:	428c      	cmp	r4, r1
  4008f8:	d901      	bls.n	4008fe <usart_set_async_baudrate+0x24>
  4008fa:	2001      	movs	r0, #1
  4008fc:	e017      	b.n	40092e <usart_set_async_baudrate+0x54>
  4008fe:	6841      	ldr	r1, [r0, #4]
  400900:	f441 2100 	orr.w	r1, r1, #524288	; 0x80000
  400904:	6041      	str	r1, [r0, #4]
  400906:	e00c      	b.n	400922 <usart_set_async_baudrate+0x48>
  400908:	2001      	movs	r0, #1
  40090a:	e010      	b.n	40092e <usart_set_async_baudrate+0x54>
  40090c:	0859      	lsrs	r1, r3, #1
  40090e:	eb01 02c2 	add.w	r2, r1, r2, lsl #3
  400912:	fbb2 f2f3 	udiv	r2, r2, r3
  400916:	08d3      	lsrs	r3, r2, #3
  400918:	1e5c      	subs	r4, r3, #1
  40091a:	f64f 71fe 	movw	r1, #65534	; 0xfffe
  40091e:	428c      	cmp	r4, r1
  400920:	d8f2      	bhi.n	400908 <usart_set_async_baudrate+0x2e>
  400922:	0412      	lsls	r2, r2, #16
  400924:	f402 22e0 	and.w	r2, r2, #458752	; 0x70000
  400928:	431a      	orrs	r2, r3
  40092a:	6202      	str	r2, [r0, #32]
  40092c:	2000      	movs	r0, #0
  40092e:	f85d 4b04 	ldr.w	r4, [sp], #4
  400932:	4770      	bx	lr

00400934 <usart_reset>:
  400934:	4b08      	ldr	r3, [pc, #32]	; (400958 <usart_reset+0x24>)
  400936:	f8c0 30e4 	str.w	r3, [r0, #228]	; 0xe4
  40093a:	2300      	movs	r3, #0
  40093c:	6043      	str	r3, [r0, #4]
  40093e:	6243      	str	r3, [r0, #36]	; 0x24
  400940:	6283      	str	r3, [r0, #40]	; 0x28
  400942:	2388      	movs	r3, #136	; 0x88
  400944:	6003      	str	r3, [r0, #0]
  400946:	2324      	movs	r3, #36	; 0x24
  400948:	6003      	str	r3, [r0, #0]
  40094a:	f44f 7380 	mov.w	r3, #256	; 0x100
  40094e:	6003      	str	r3, [r0, #0]
  400950:	f44f 2300 	mov.w	r3, #524288	; 0x80000
  400954:	6003      	str	r3, [r0, #0]
  400956:	4770      	bx	lr
  400958:	55534100 	.word	0x55534100

0040095c <usart_init_rs232>:
  40095c:	b570      	push	{r4, r5, r6, lr}
  40095e:	4605      	mov	r5, r0
  400960:	460c      	mov	r4, r1
  400962:	4616      	mov	r6, r2
  400964:	4b0f      	ldr	r3, [pc, #60]	; (4009a4 <usart_init_rs232+0x48>)
  400966:	4798      	blx	r3
  400968:	2200      	movs	r2, #0
  40096a:	4b0f      	ldr	r3, [pc, #60]	; (4009a8 <usart_init_rs232+0x4c>)
  40096c:	601a      	str	r2, [r3, #0]
  40096e:	b1a4      	cbz	r4, 40099a <usart_init_rs232+0x3e>
  400970:	4632      	mov	r2, r6
  400972:	6821      	ldr	r1, [r4, #0]
  400974:	4628      	mov	r0, r5
  400976:	4b0d      	ldr	r3, [pc, #52]	; (4009ac <usart_init_rs232+0x50>)
  400978:	4798      	blx	r3
  40097a:	4602      	mov	r2, r0
  40097c:	b978      	cbnz	r0, 40099e <usart_init_rs232+0x42>
  40097e:	6863      	ldr	r3, [r4, #4]
  400980:	68a1      	ldr	r1, [r4, #8]
  400982:	430b      	orrs	r3, r1
  400984:	6921      	ldr	r1, [r4, #16]
  400986:	430b      	orrs	r3, r1
  400988:	68e1      	ldr	r1, [r4, #12]
  40098a:	430b      	orrs	r3, r1
  40098c:	4906      	ldr	r1, [pc, #24]	; (4009a8 <usart_init_rs232+0x4c>)
  40098e:	600b      	str	r3, [r1, #0]
  400990:	6869      	ldr	r1, [r5, #4]
  400992:	430b      	orrs	r3, r1
  400994:	606b      	str	r3, [r5, #4]
  400996:	4610      	mov	r0, r2
  400998:	bd70      	pop	{r4, r5, r6, pc}
  40099a:	2201      	movs	r2, #1
  40099c:	e7fb      	b.n	400996 <usart_init_rs232+0x3a>
  40099e:	2201      	movs	r2, #1
  4009a0:	e7f9      	b.n	400996 <usart_init_rs232+0x3a>
  4009a2:	bf00      	nop
  4009a4:	00400935 	.word	0x00400935
  4009a8:	20400a58 	.word	0x20400a58
  4009ac:	004008db 	.word	0x004008db

004009b0 <usart_enable_tx>:
  4009b0:	2340      	movs	r3, #64	; 0x40
  4009b2:	6003      	str	r3, [r0, #0]
  4009b4:	4770      	bx	lr

004009b6 <usart_enable_rx>:
  4009b6:	2310      	movs	r3, #16
  4009b8:	6003      	str	r3, [r0, #0]
  4009ba:	4770      	bx	lr

004009bc <usart_enable_interrupt>:
  4009bc:	6081      	str	r1, [r0, #8]
  4009be:	4770      	bx	lr

004009c0 <usart_get_status>:
  4009c0:	6940      	ldr	r0, [r0, #20]
  4009c2:	4770      	bx	lr

004009c4 <usart_write>:
  4009c4:	6943      	ldr	r3, [r0, #20]
  4009c6:	f013 0f02 	tst.w	r3, #2
  4009ca:	d004      	beq.n	4009d6 <usart_write+0x12>
  4009cc:	f3c1 0108 	ubfx	r1, r1, #0, #9
  4009d0:	61c1      	str	r1, [r0, #28]
  4009d2:	2000      	movs	r0, #0
  4009d4:	4770      	bx	lr
  4009d6:	2001      	movs	r0, #1
  4009d8:	4770      	bx	lr

004009da <usart_read>:
  4009da:	6943      	ldr	r3, [r0, #20]
  4009dc:	f013 0f01 	tst.w	r3, #1
  4009e0:	d005      	beq.n	4009ee <usart_read+0x14>
  4009e2:	6983      	ldr	r3, [r0, #24]
  4009e4:	f3c3 0308 	ubfx	r3, r3, #0, #9
  4009e8:	600b      	str	r3, [r1, #0]
  4009ea:	2000      	movs	r0, #0
  4009ec:	4770      	bx	lr
  4009ee:	2001      	movs	r0, #1
  4009f0:	4770      	bx	lr

004009f2 <Dummy_Handler>:
  4009f2:	e7fe      	b.n	4009f2 <Dummy_Handler>

004009f4 <Reset_Handler>:
  4009f4:	b500      	push	{lr}
  4009f6:	b083      	sub	sp, #12
  4009f8:	4b25      	ldr	r3, [pc, #148]	; (400a90 <Reset_Handler+0x9c>)
  4009fa:	4a26      	ldr	r2, [pc, #152]	; (400a94 <Reset_Handler+0xa0>)
  4009fc:	429a      	cmp	r2, r3
  4009fe:	d010      	beq.n	400a22 <Reset_Handler+0x2e>
  400a00:	4b25      	ldr	r3, [pc, #148]	; (400a98 <Reset_Handler+0xa4>)
  400a02:	4a23      	ldr	r2, [pc, #140]	; (400a90 <Reset_Handler+0x9c>)
  400a04:	429a      	cmp	r2, r3
  400a06:	d20c      	bcs.n	400a22 <Reset_Handler+0x2e>
  400a08:	3b01      	subs	r3, #1
  400a0a:	1a9b      	subs	r3, r3, r2
  400a0c:	f023 0303 	bic.w	r3, r3, #3
  400a10:	3304      	adds	r3, #4
  400a12:	4413      	add	r3, r2
  400a14:	491f      	ldr	r1, [pc, #124]	; (400a94 <Reset_Handler+0xa0>)
  400a16:	f851 0b04 	ldr.w	r0, [r1], #4
  400a1a:	f842 0b04 	str.w	r0, [r2], #4
  400a1e:	429a      	cmp	r2, r3
  400a20:	d1f9      	bne.n	400a16 <Reset_Handler+0x22>
  400a22:	4b1e      	ldr	r3, [pc, #120]	; (400a9c <Reset_Handler+0xa8>)
  400a24:	4a1e      	ldr	r2, [pc, #120]	; (400aa0 <Reset_Handler+0xac>)
  400a26:	429a      	cmp	r2, r3
  400a28:	d20a      	bcs.n	400a40 <Reset_Handler+0x4c>
  400a2a:	3b01      	subs	r3, #1
  400a2c:	1a9b      	subs	r3, r3, r2
  400a2e:	f023 0303 	bic.w	r3, r3, #3
  400a32:	3304      	adds	r3, #4
  400a34:	4413      	add	r3, r2
  400a36:	2100      	movs	r1, #0
  400a38:	f842 1b04 	str.w	r1, [r2], #4
  400a3c:	4293      	cmp	r3, r2
  400a3e:	d1fb      	bne.n	400a38 <Reset_Handler+0x44>
  400a40:	4a18      	ldr	r2, [pc, #96]	; (400aa4 <Reset_Handler+0xb0>)
  400a42:	4b19      	ldr	r3, [pc, #100]	; (400aa8 <Reset_Handler+0xb4>)
  400a44:	f023 037f 	bic.w	r3, r3, #127	; 0x7f
  400a48:	6093      	str	r3, [r2, #8]
  400a4a:	f3ef 8310 	mrs	r3, PRIMASK
  400a4e:	fab3 f383 	clz	r3, r3
  400a52:	095b      	lsrs	r3, r3, #5
  400a54:	9301      	str	r3, [sp, #4]
  400a56:	b672      	cpsid	i
  400a58:	f3bf 8f5f 	dmb	sy
  400a5c:	2200      	movs	r2, #0
  400a5e:	4b13      	ldr	r3, [pc, #76]	; (400aac <Reset_Handler+0xb8>)
  400a60:	701a      	strb	r2, [r3, #0]
  400a62:	9901      	ldr	r1, [sp, #4]
  400a64:	4a12      	ldr	r2, [pc, #72]	; (400ab0 <Reset_Handler+0xbc>)
  400a66:	6813      	ldr	r3, [r2, #0]
  400a68:	f443 0370 	orr.w	r3, r3, #15728640	; 0xf00000
  400a6c:	6013      	str	r3, [r2, #0]
  400a6e:	f3bf 8f4f 	dsb	sy
  400a72:	f3bf 8f6f 	isb	sy
  400a76:	b129      	cbz	r1, 400a84 <Reset_Handler+0x90>
  400a78:	2201      	movs	r2, #1
  400a7a:	4b0c      	ldr	r3, [pc, #48]	; (400aac <Reset_Handler+0xb8>)
  400a7c:	701a      	strb	r2, [r3, #0]
  400a7e:	f3bf 8f5f 	dmb	sy
  400a82:	b662      	cpsie	i
  400a84:	4b0b      	ldr	r3, [pc, #44]	; (400ab4 <Reset_Handler+0xc0>)
  400a86:	4798      	blx	r3
  400a88:	4b0b      	ldr	r3, [pc, #44]	; (400ab8 <Reset_Handler+0xc4>)
  400a8a:	4798      	blx	r3
  400a8c:	e7fe      	b.n	400a8c <Reset_Handler+0x98>
  400a8e:	bf00      	nop
  400a90:	20400000 	.word	0x20400000
  400a94:	00406478 	.word	0x00406478
  400a98:	204009c8 	.word	0x204009c8
  400a9c:	20400c58 	.word	0x20400c58
  400aa0:	204009c8 	.word	0x204009c8
  400aa4:	e000ed00 	.word	0xe000ed00
  400aa8:	00400000 	.word	0x00400000
  400aac:	2040000a 	.word	0x2040000a
  400ab0:	e000ed88 	.word	0xe000ed88
  400ab4:	00403131 	.word	0x00403131
  400ab8:	00402ee1 	.word	0x00402ee1

00400abc <SystemCoreClockUpdate>:
  400abc:	4b3b      	ldr	r3, [pc, #236]	; (400bac <SystemCoreClockUpdate+0xf0>)
  400abe:	6b1b      	ldr	r3, [r3, #48]	; 0x30
  400ac0:	f003 0303 	and.w	r3, r3, #3
  400ac4:	2b01      	cmp	r3, #1
  400ac6:	d01d      	beq.n	400b04 <SystemCoreClockUpdate+0x48>
  400ac8:	b183      	cbz	r3, 400aec <SystemCoreClockUpdate+0x30>
  400aca:	2b02      	cmp	r3, #2
  400acc:	d036      	beq.n	400b3c <SystemCoreClockUpdate+0x80>
  400ace:	4b37      	ldr	r3, [pc, #220]	; (400bac <SystemCoreClockUpdate+0xf0>)
  400ad0:	6b1b      	ldr	r3, [r3, #48]	; 0x30
  400ad2:	f003 0370 	and.w	r3, r3, #112	; 0x70
  400ad6:	2b70      	cmp	r3, #112	; 0x70
  400ad8:	d05f      	beq.n	400b9a <SystemCoreClockUpdate+0xde>
  400ada:	4b34      	ldr	r3, [pc, #208]	; (400bac <SystemCoreClockUpdate+0xf0>)
  400adc:	6b1a      	ldr	r2, [r3, #48]	; 0x30
  400ade:	4934      	ldr	r1, [pc, #208]	; (400bb0 <SystemCoreClockUpdate+0xf4>)
  400ae0:	f3c2 1202 	ubfx	r2, r2, #4, #3
  400ae4:	680b      	ldr	r3, [r1, #0]
  400ae6:	40d3      	lsrs	r3, r2
  400ae8:	600b      	str	r3, [r1, #0]
  400aea:	4770      	bx	lr
  400aec:	4b31      	ldr	r3, [pc, #196]	; (400bb4 <SystemCoreClockUpdate+0xf8>)
  400aee:	695b      	ldr	r3, [r3, #20]
  400af0:	f013 0f80 	tst.w	r3, #128	; 0x80
  400af4:	bf14      	ite	ne
  400af6:	f44f 4200 	movne.w	r2, #32768	; 0x8000
  400afa:	f44f 42fa 	moveq.w	r2, #32000	; 0x7d00
  400afe:	4b2c      	ldr	r3, [pc, #176]	; (400bb0 <SystemCoreClockUpdate+0xf4>)
  400b00:	601a      	str	r2, [r3, #0]
  400b02:	e7e4      	b.n	400ace <SystemCoreClockUpdate+0x12>
  400b04:	4b29      	ldr	r3, [pc, #164]	; (400bac <SystemCoreClockUpdate+0xf0>)
  400b06:	6a1b      	ldr	r3, [r3, #32]
  400b08:	f013 7f80 	tst.w	r3, #16777216	; 0x1000000
  400b0c:	d003      	beq.n	400b16 <SystemCoreClockUpdate+0x5a>
  400b0e:	4a2a      	ldr	r2, [pc, #168]	; (400bb8 <SystemCoreClockUpdate+0xfc>)
  400b10:	4b27      	ldr	r3, [pc, #156]	; (400bb0 <SystemCoreClockUpdate+0xf4>)
  400b12:	601a      	str	r2, [r3, #0]
  400b14:	e7db      	b.n	400ace <SystemCoreClockUpdate+0x12>
  400b16:	4a29      	ldr	r2, [pc, #164]	; (400bbc <SystemCoreClockUpdate+0x100>)
  400b18:	4b25      	ldr	r3, [pc, #148]	; (400bb0 <SystemCoreClockUpdate+0xf4>)
  400b1a:	601a      	str	r2, [r3, #0]
  400b1c:	4b23      	ldr	r3, [pc, #140]	; (400bac <SystemCoreClockUpdate+0xf0>)
  400b1e:	6a1b      	ldr	r3, [r3, #32]
  400b20:	f003 0370 	and.w	r3, r3, #112	; 0x70
  400b24:	2b10      	cmp	r3, #16
  400b26:	d005      	beq.n	400b34 <SystemCoreClockUpdate+0x78>
  400b28:	2b20      	cmp	r3, #32
  400b2a:	d1d0      	bne.n	400ace <SystemCoreClockUpdate+0x12>
  400b2c:	4a22      	ldr	r2, [pc, #136]	; (400bb8 <SystemCoreClockUpdate+0xfc>)
  400b2e:	4b20      	ldr	r3, [pc, #128]	; (400bb0 <SystemCoreClockUpdate+0xf4>)
  400b30:	601a      	str	r2, [r3, #0]
  400b32:	e7cc      	b.n	400ace <SystemCoreClockUpdate+0x12>
  400b34:	4a22      	ldr	r2, [pc, #136]	; (400bc0 <SystemCoreClockUpdate+0x104>)
  400b36:	4b1e      	ldr	r3, [pc, #120]	; (400bb0 <SystemCoreClockUpdate+0xf4>)
  400b38:	601a      	str	r2, [r3, #0]
  400b3a:	e7c8      	b.n	400ace <SystemCoreClockUpdate+0x12>
  400b3c:	4b1b      	ldr	r3, [pc, #108]	; (400bac <SystemCoreClockUpdate+0xf0>)
  400b3e:	6a1b      	ldr	r3, [r3, #32]
  400b40:	f013 7f80 	tst.w	r3, #16777216	; 0x1000000
  400b44:	d016      	beq.n	400b74 <SystemCoreClockUpdate+0xb8>
  400b46:	4a1c      	ldr	r2, [pc, #112]	; (400bb8 <SystemCoreClockUpdate+0xfc>)
  400b48:	4b19      	ldr	r3, [pc, #100]	; (400bb0 <SystemCoreClockUpdate+0xf4>)
  400b4a:	601a      	str	r2, [r3, #0]
  400b4c:	4b17      	ldr	r3, [pc, #92]	; (400bac <SystemCoreClockUpdate+0xf0>)
  400b4e:	6b1b      	ldr	r3, [r3, #48]	; 0x30
  400b50:	f003 0303 	and.w	r3, r3, #3
  400b54:	2b02      	cmp	r3, #2
  400b56:	d1ba      	bne.n	400ace <SystemCoreClockUpdate+0x12>
  400b58:	4a14      	ldr	r2, [pc, #80]	; (400bac <SystemCoreClockUpdate+0xf0>)
  400b5a:	6a91      	ldr	r1, [r2, #40]	; 0x28
  400b5c:	6a92      	ldr	r2, [r2, #40]	; 0x28
  400b5e:	4814      	ldr	r0, [pc, #80]	; (400bb0 <SystemCoreClockUpdate+0xf4>)
  400b60:	f3c1 410a 	ubfx	r1, r1, #16, #11
  400b64:	6803      	ldr	r3, [r0, #0]
  400b66:	fb01 3303 	mla	r3, r1, r3, r3
  400b6a:	b2d2      	uxtb	r2, r2
  400b6c:	fbb3 f3f2 	udiv	r3, r3, r2
  400b70:	6003      	str	r3, [r0, #0]
  400b72:	e7ac      	b.n	400ace <SystemCoreClockUpdate+0x12>
  400b74:	4a11      	ldr	r2, [pc, #68]	; (400bbc <SystemCoreClockUpdate+0x100>)
  400b76:	4b0e      	ldr	r3, [pc, #56]	; (400bb0 <SystemCoreClockUpdate+0xf4>)
  400b78:	601a      	str	r2, [r3, #0]
  400b7a:	4b0c      	ldr	r3, [pc, #48]	; (400bac <SystemCoreClockUpdate+0xf0>)
  400b7c:	6a1b      	ldr	r3, [r3, #32]
  400b7e:	f003 0370 	and.w	r3, r3, #112	; 0x70
  400b82:	2b10      	cmp	r3, #16
  400b84:	d005      	beq.n	400b92 <SystemCoreClockUpdate+0xd6>
  400b86:	2b20      	cmp	r3, #32
  400b88:	d1e0      	bne.n	400b4c <SystemCoreClockUpdate+0x90>
  400b8a:	4a0b      	ldr	r2, [pc, #44]	; (400bb8 <SystemCoreClockUpdate+0xfc>)
  400b8c:	4b08      	ldr	r3, [pc, #32]	; (400bb0 <SystemCoreClockUpdate+0xf4>)
  400b8e:	601a      	str	r2, [r3, #0]
  400b90:	e7dc      	b.n	400b4c <SystemCoreClockUpdate+0x90>
  400b92:	4a0b      	ldr	r2, [pc, #44]	; (400bc0 <SystemCoreClockUpdate+0x104>)
  400b94:	4b06      	ldr	r3, [pc, #24]	; (400bb0 <SystemCoreClockUpdate+0xf4>)
  400b96:	601a      	str	r2, [r3, #0]
  400b98:	e7d8      	b.n	400b4c <SystemCoreClockUpdate+0x90>
  400b9a:	4a05      	ldr	r2, [pc, #20]	; (400bb0 <SystemCoreClockUpdate+0xf4>)
  400b9c:	6813      	ldr	r3, [r2, #0]
  400b9e:	4909      	ldr	r1, [pc, #36]	; (400bc4 <SystemCoreClockUpdate+0x108>)
  400ba0:	fba1 1303 	umull	r1, r3, r1, r3
  400ba4:	085b      	lsrs	r3, r3, #1
  400ba6:	6013      	str	r3, [r2, #0]
  400ba8:	4770      	bx	lr
  400baa:	bf00      	nop
  400bac:	400e0600 	.word	0x400e0600
  400bb0:	2040000c 	.word	0x2040000c
  400bb4:	400e1810 	.word	0x400e1810
  400bb8:	00b71b00 	.word	0x00b71b00
  400bbc:	003d0900 	.word	0x003d0900
  400bc0:	007a1200 	.word	0x007a1200
  400bc4:	aaaaaaab 	.word	0xaaaaaaab

00400bc8 <system_init_flash>:
  400bc8:	4b16      	ldr	r3, [pc, #88]	; (400c24 <system_init_flash+0x5c>)
  400bca:	4298      	cmp	r0, r3
  400bcc:	d913      	bls.n	400bf6 <system_init_flash+0x2e>
  400bce:	4b16      	ldr	r3, [pc, #88]	; (400c28 <system_init_flash+0x60>)
  400bd0:	4298      	cmp	r0, r3
  400bd2:	d915      	bls.n	400c00 <system_init_flash+0x38>
  400bd4:	4b15      	ldr	r3, [pc, #84]	; (400c2c <system_init_flash+0x64>)
  400bd6:	4298      	cmp	r0, r3
  400bd8:	d916      	bls.n	400c08 <system_init_flash+0x40>
  400bda:	4b15      	ldr	r3, [pc, #84]	; (400c30 <system_init_flash+0x68>)
  400bdc:	4298      	cmp	r0, r3
  400bde:	d917      	bls.n	400c10 <system_init_flash+0x48>
  400be0:	4b14      	ldr	r3, [pc, #80]	; (400c34 <system_init_flash+0x6c>)
  400be2:	4298      	cmp	r0, r3
  400be4:	d918      	bls.n	400c18 <system_init_flash+0x50>
  400be6:	4b14      	ldr	r3, [pc, #80]	; (400c38 <system_init_flash+0x70>)
  400be8:	4298      	cmp	r0, r3
  400bea:	bf94      	ite	ls
  400bec:	4a13      	ldrls	r2, [pc, #76]	; (400c3c <system_init_flash+0x74>)
  400bee:	4a14      	ldrhi	r2, [pc, #80]	; (400c40 <system_init_flash+0x78>)
  400bf0:	4b14      	ldr	r3, [pc, #80]	; (400c44 <system_init_flash+0x7c>)
  400bf2:	601a      	str	r2, [r3, #0]
  400bf4:	4770      	bx	lr
  400bf6:	f04f 6280 	mov.w	r2, #67108864	; 0x4000000
  400bfa:	4b12      	ldr	r3, [pc, #72]	; (400c44 <system_init_flash+0x7c>)
  400bfc:	601a      	str	r2, [r3, #0]
  400bfe:	4770      	bx	lr
  400c00:	4a11      	ldr	r2, [pc, #68]	; (400c48 <system_init_flash+0x80>)
  400c02:	4b10      	ldr	r3, [pc, #64]	; (400c44 <system_init_flash+0x7c>)
  400c04:	601a      	str	r2, [r3, #0]
  400c06:	4770      	bx	lr
  400c08:	4a10      	ldr	r2, [pc, #64]	; (400c4c <system_init_flash+0x84>)
  400c0a:	4b0e      	ldr	r3, [pc, #56]	; (400c44 <system_init_flash+0x7c>)
  400c0c:	601a      	str	r2, [r3, #0]
  400c0e:	4770      	bx	lr
  400c10:	4a0f      	ldr	r2, [pc, #60]	; (400c50 <system_init_flash+0x88>)
  400c12:	4b0c      	ldr	r3, [pc, #48]	; (400c44 <system_init_flash+0x7c>)
  400c14:	601a      	str	r2, [r3, #0]
  400c16:	4770      	bx	lr
  400c18:	f04f 2204 	mov.w	r2, #67109888	; 0x4000400
  400c1c:	4b09      	ldr	r3, [pc, #36]	; (400c44 <system_init_flash+0x7c>)
  400c1e:	601a      	str	r2, [r3, #0]
  400c20:	4770      	bx	lr
  400c22:	bf00      	nop
  400c24:	015ef3bf 	.word	0x015ef3bf
  400c28:	02bde77f 	.word	0x02bde77f
  400c2c:	041cdb3f 	.word	0x041cdb3f
  400c30:	057bceff 	.word	0x057bceff
  400c34:	06dac2bf 	.word	0x06dac2bf
  400c38:	0839b67f 	.word	0x0839b67f
  400c3c:	04000500 	.word	0x04000500
  400c40:	04000600 	.word	0x04000600
  400c44:	400e0c00 	.word	0x400e0c00
  400c48:	04000100 	.word	0x04000100
  400c4c:	04000200 	.word	0x04000200
  400c50:	04000300 	.word	0x04000300

00400c54 <_sbrk>:
  400c54:	4b0a      	ldr	r3, [pc, #40]	; (400c80 <_sbrk+0x2c>)
  400c56:	681b      	ldr	r3, [r3, #0]
  400c58:	b153      	cbz	r3, 400c70 <_sbrk+0x1c>
  400c5a:	4b09      	ldr	r3, [pc, #36]	; (400c80 <_sbrk+0x2c>)
  400c5c:	681b      	ldr	r3, [r3, #0]
  400c5e:	181a      	adds	r2, r3, r0
  400c60:	4908      	ldr	r1, [pc, #32]	; (400c84 <_sbrk+0x30>)
  400c62:	4291      	cmp	r1, r2
  400c64:	db08      	blt.n	400c78 <_sbrk+0x24>
  400c66:	4610      	mov	r0, r2
  400c68:	4a05      	ldr	r2, [pc, #20]	; (400c80 <_sbrk+0x2c>)
  400c6a:	6010      	str	r0, [r2, #0]
  400c6c:	4618      	mov	r0, r3
  400c6e:	4770      	bx	lr
  400c70:	4a05      	ldr	r2, [pc, #20]	; (400c88 <_sbrk+0x34>)
  400c72:	4b03      	ldr	r3, [pc, #12]	; (400c80 <_sbrk+0x2c>)
  400c74:	601a      	str	r2, [r3, #0]
  400c76:	e7f0      	b.n	400c5a <_sbrk+0x6>
  400c78:	f04f 30ff 	mov.w	r0, #4294967295
  400c7c:	4770      	bx	lr
  400c7e:	bf00      	nop
  400c80:	20400a5c 	.word	0x20400a5c
  400c84:	2045fffc 	.word	0x2045fffc
  400c88:	20402e58 	.word	0x20402e58

00400c8c <_close>:
  400c8c:	f04f 30ff 	mov.w	r0, #4294967295
  400c90:	4770      	bx	lr

00400c92 <_fstat>:
  400c92:	f44f 5300 	mov.w	r3, #8192	; 0x2000
  400c96:	604b      	str	r3, [r1, #4]
  400c98:	2000      	movs	r0, #0
  400c9a:	4770      	bx	lr

00400c9c <_isatty>:
  400c9c:	2001      	movs	r0, #1
  400c9e:	4770      	bx	lr

00400ca0 <_lseek>:
  400ca0:	2000      	movs	r0, #0
  400ca2:	4770      	bx	lr

00400ca4 <vListInitialise>:
  400ca4:	f100 0308 	add.w	r3, r0, #8
  400ca8:	6043      	str	r3, [r0, #4]
  400caa:	f04f 32ff 	mov.w	r2, #4294967295
  400cae:	6082      	str	r2, [r0, #8]
  400cb0:	60c3      	str	r3, [r0, #12]
  400cb2:	6103      	str	r3, [r0, #16]
  400cb4:	2300      	movs	r3, #0
  400cb6:	6003      	str	r3, [r0, #0]
  400cb8:	4770      	bx	lr

00400cba <vListInitialiseItem>:
  400cba:	2300      	movs	r3, #0
  400cbc:	6103      	str	r3, [r0, #16]
  400cbe:	4770      	bx	lr

00400cc0 <vListInsertEnd>:
  400cc0:	6843      	ldr	r3, [r0, #4]
  400cc2:	604b      	str	r3, [r1, #4]
  400cc4:	689a      	ldr	r2, [r3, #8]
  400cc6:	608a      	str	r2, [r1, #8]
  400cc8:	689a      	ldr	r2, [r3, #8]
  400cca:	6051      	str	r1, [r2, #4]
  400ccc:	6099      	str	r1, [r3, #8]
  400cce:	6108      	str	r0, [r1, #16]
  400cd0:	6803      	ldr	r3, [r0, #0]
  400cd2:	3301      	adds	r3, #1
  400cd4:	6003      	str	r3, [r0, #0]
  400cd6:	4770      	bx	lr

00400cd8 <vListInsert>:
  400cd8:	b430      	push	{r4, r5}
  400cda:	680d      	ldr	r5, [r1, #0]
  400cdc:	f1b5 3fff 	cmp.w	r5, #4294967295
  400ce0:	d002      	beq.n	400ce8 <vListInsert+0x10>
  400ce2:	f100 0208 	add.w	r2, r0, #8
  400ce6:	e002      	b.n	400cee <vListInsert+0x16>
  400ce8:	6902      	ldr	r2, [r0, #16]
  400cea:	e004      	b.n	400cf6 <vListInsert+0x1e>
  400cec:	461a      	mov	r2, r3
  400cee:	6853      	ldr	r3, [r2, #4]
  400cf0:	681c      	ldr	r4, [r3, #0]
  400cf2:	42a5      	cmp	r5, r4
  400cf4:	d2fa      	bcs.n	400cec <vListInsert+0x14>
  400cf6:	6853      	ldr	r3, [r2, #4]
  400cf8:	604b      	str	r3, [r1, #4]
  400cfa:	6099      	str	r1, [r3, #8]
  400cfc:	608a      	str	r2, [r1, #8]
  400cfe:	6051      	str	r1, [r2, #4]
  400d00:	6108      	str	r0, [r1, #16]
  400d02:	6803      	ldr	r3, [r0, #0]
  400d04:	3301      	adds	r3, #1
  400d06:	6003      	str	r3, [r0, #0]
  400d08:	bc30      	pop	{r4, r5}
  400d0a:	4770      	bx	lr

00400d0c <uxListRemove>:
  400d0c:	6903      	ldr	r3, [r0, #16]
  400d0e:	6842      	ldr	r2, [r0, #4]
  400d10:	6881      	ldr	r1, [r0, #8]
  400d12:	6091      	str	r1, [r2, #8]
  400d14:	6882      	ldr	r2, [r0, #8]
  400d16:	6841      	ldr	r1, [r0, #4]
  400d18:	6051      	str	r1, [r2, #4]
  400d1a:	685a      	ldr	r2, [r3, #4]
  400d1c:	4290      	cmp	r0, r2
  400d1e:	d005      	beq.n	400d2c <uxListRemove+0x20>
  400d20:	2200      	movs	r2, #0
  400d22:	6102      	str	r2, [r0, #16]
  400d24:	6818      	ldr	r0, [r3, #0]
  400d26:	3801      	subs	r0, #1
  400d28:	6018      	str	r0, [r3, #0]
  400d2a:	4770      	bx	lr
  400d2c:	6882      	ldr	r2, [r0, #8]
  400d2e:	605a      	str	r2, [r3, #4]
  400d30:	e7f6      	b.n	400d20 <uxListRemove+0x14>
	...

00400d34 <prvTaskExitError>:
  400d34:	4b0d      	ldr	r3, [pc, #52]	; (400d6c <prvTaskExitError+0x38>)
  400d36:	681b      	ldr	r3, [r3, #0]
  400d38:	f1b3 3fff 	cmp.w	r3, #4294967295
  400d3c:	d00a      	beq.n	400d54 <prvTaskExitError+0x20>
  400d3e:	f04f 0380 	mov.w	r3, #128	; 0x80
  400d42:	b672      	cpsid	i
  400d44:	f383 8811 	msr	BASEPRI, r3
  400d48:	f3bf 8f6f 	isb	sy
  400d4c:	f3bf 8f4f 	dsb	sy
  400d50:	b662      	cpsie	i
  400d52:	e7fe      	b.n	400d52 <prvTaskExitError+0x1e>
  400d54:	f04f 0380 	mov.w	r3, #128	; 0x80
  400d58:	b672      	cpsid	i
  400d5a:	f383 8811 	msr	BASEPRI, r3
  400d5e:	f3bf 8f6f 	isb	sy
  400d62:	f3bf 8f4f 	dsb	sy
  400d66:	b662      	cpsie	i
  400d68:	e7fe      	b.n	400d68 <prvTaskExitError+0x34>
  400d6a:	bf00      	nop
  400d6c:	20400010 	.word	0x20400010

00400d70 <prvPortStartFirstTask>:
  400d70:	4806      	ldr	r0, [pc, #24]	; (400d8c <prvPortStartFirstTask+0x1c>)
  400d72:	6800      	ldr	r0, [r0, #0]
  400d74:	6800      	ldr	r0, [r0, #0]
  400d76:	f380 8808 	msr	MSP, r0
  400d7a:	b662      	cpsie	i
  400d7c:	b661      	cpsie	f
  400d7e:	f3bf 8f4f 	dsb	sy
  400d82:	f3bf 8f6f 	isb	sy
  400d86:	df00      	svc	0
  400d88:	bf00      	nop
  400d8a:	0000      	.short	0x0000
  400d8c:	e000ed08 	.word	0xe000ed08

00400d90 <vPortEnableVFP>:
  400d90:	f8df 000c 	ldr.w	r0, [pc, #12]	; 400da0 <vPortEnableVFP+0x10>
  400d94:	6801      	ldr	r1, [r0, #0]
  400d96:	f441 0170 	orr.w	r1, r1, #15728640	; 0xf00000
  400d9a:	6001      	str	r1, [r0, #0]
  400d9c:	4770      	bx	lr
  400d9e:	0000      	.short	0x0000
  400da0:	e000ed88 	.word	0xe000ed88

00400da4 <pxPortInitialiseStack>:
  400da4:	f04f 7380 	mov.w	r3, #16777216	; 0x1000000
  400da8:	f840 3c04 	str.w	r3, [r0, #-4]
  400dac:	f840 1c08 	str.w	r1, [r0, #-8]
  400db0:	4b05      	ldr	r3, [pc, #20]	; (400dc8 <pxPortInitialiseStack+0x24>)
  400db2:	f840 3c0c 	str.w	r3, [r0, #-12]
  400db6:	f840 2c20 	str.w	r2, [r0, #-32]
  400dba:	f06f 0302 	mvn.w	r3, #2
  400dbe:	f840 3c24 	str.w	r3, [r0, #-36]
  400dc2:	3844      	subs	r0, #68	; 0x44
  400dc4:	4770      	bx	lr
  400dc6:	bf00      	nop
  400dc8:	00400d35 	.word	0x00400d35

00400dcc <SVC_Handler>:
  400dcc:	4b06      	ldr	r3, [pc, #24]	; (400de8 <pxCurrentTCBConst2>)
  400dce:	6819      	ldr	r1, [r3, #0]
  400dd0:	6808      	ldr	r0, [r1, #0]
  400dd2:	e8b0 4ff0 	ldmia.w	r0!, {r4, r5, r6, r7, r8, r9, sl, fp, lr}
  400dd6:	f380 8809 	msr	PSP, r0
  400dda:	f3bf 8f6f 	isb	sy
  400dde:	f04f 0000 	mov.w	r0, #0
  400de2:	f380 8811 	msr	BASEPRI, r0
  400de6:	4770      	bx	lr

00400de8 <pxCurrentTCBConst2>:
  400de8:	20400a68 	.word	0x20400a68
  400dec:	4770      	bx	lr
  400dee:	bf00      	nop

00400df0 <vPortEnterCritical>:
  400df0:	f04f 0380 	mov.w	r3, #128	; 0x80
  400df4:	b672      	cpsid	i
  400df6:	f383 8811 	msr	BASEPRI, r3
  400dfa:	f3bf 8f6f 	isb	sy
  400dfe:	f3bf 8f4f 	dsb	sy
  400e02:	b662      	cpsie	i
  400e04:	4a0b      	ldr	r2, [pc, #44]	; (400e34 <vPortEnterCritical+0x44>)
  400e06:	6813      	ldr	r3, [r2, #0]
  400e08:	3301      	adds	r3, #1
  400e0a:	6013      	str	r3, [r2, #0]
  400e0c:	2b01      	cmp	r3, #1
  400e0e:	d10f      	bne.n	400e30 <vPortEnterCritical+0x40>
  400e10:	4b09      	ldr	r3, [pc, #36]	; (400e38 <vPortEnterCritical+0x48>)
  400e12:	681b      	ldr	r3, [r3, #0]
  400e14:	f013 0fff 	tst.w	r3, #255	; 0xff
  400e18:	d00a      	beq.n	400e30 <vPortEnterCritical+0x40>
  400e1a:	f04f 0380 	mov.w	r3, #128	; 0x80
  400e1e:	b672      	cpsid	i
  400e20:	f383 8811 	msr	BASEPRI, r3
  400e24:	f3bf 8f6f 	isb	sy
  400e28:	f3bf 8f4f 	dsb	sy
  400e2c:	b662      	cpsie	i
  400e2e:	e7fe      	b.n	400e2e <vPortEnterCritical+0x3e>
  400e30:	4770      	bx	lr
  400e32:	bf00      	nop
  400e34:	20400010 	.word	0x20400010
  400e38:	e000ed04 	.word	0xe000ed04

00400e3c <vPortExitCritical>:
  400e3c:	4b0a      	ldr	r3, [pc, #40]	; (400e68 <vPortExitCritical+0x2c>)
  400e3e:	681b      	ldr	r3, [r3, #0]
  400e40:	b953      	cbnz	r3, 400e58 <vPortExitCritical+0x1c>
  400e42:	f04f 0380 	mov.w	r3, #128	; 0x80
  400e46:	b672      	cpsid	i
  400e48:	f383 8811 	msr	BASEPRI, r3
  400e4c:	f3bf 8f6f 	isb	sy
  400e50:	f3bf 8f4f 	dsb	sy
  400e54:	b662      	cpsie	i
  400e56:	e7fe      	b.n	400e56 <vPortExitCritical+0x1a>
  400e58:	3b01      	subs	r3, #1
  400e5a:	4a03      	ldr	r2, [pc, #12]	; (400e68 <vPortExitCritical+0x2c>)
  400e5c:	6013      	str	r3, [r2, #0]
  400e5e:	b90b      	cbnz	r3, 400e64 <vPortExitCritical+0x28>
  400e60:	f383 8811 	msr	BASEPRI, r3
  400e64:	4770      	bx	lr
  400e66:	bf00      	nop
  400e68:	20400010 	.word	0x20400010

00400e6c <PendSV_Handler>:
  400e6c:	f3ef 8009 	mrs	r0, PSP
  400e70:	f3bf 8f6f 	isb	sy
  400e74:	4b15      	ldr	r3, [pc, #84]	; (400ecc <pxCurrentTCBConst>)
  400e76:	681a      	ldr	r2, [r3, #0]
  400e78:	f01e 0f10 	tst.w	lr, #16
  400e7c:	bf08      	it	eq
  400e7e:	ed20 8a10 	vstmdbeq	r0!, {s16-s31}
  400e82:	e920 4ff0 	stmdb	r0!, {r4, r5, r6, r7, r8, r9, sl, fp, lr}
  400e86:	6010      	str	r0, [r2, #0]
  400e88:	f84d 3d04 	str.w	r3, [sp, #-4]!
  400e8c:	f04f 0080 	mov.w	r0, #128	; 0x80
  400e90:	b672      	cpsid	i
  400e92:	f380 8811 	msr	BASEPRI, r0
  400e96:	f3bf 8f4f 	dsb	sy
  400e9a:	f3bf 8f6f 	isb	sy
  400e9e:	b662      	cpsie	i
  400ea0:	f001 f8fe 	bl	4020a0 <vTaskSwitchContext>
  400ea4:	f04f 0000 	mov.w	r0, #0
  400ea8:	f380 8811 	msr	BASEPRI, r0
  400eac:	bc08      	pop	{r3}
  400eae:	6819      	ldr	r1, [r3, #0]
  400eb0:	6808      	ldr	r0, [r1, #0]
  400eb2:	e8b0 4ff0 	ldmia.w	r0!, {r4, r5, r6, r7, r8, r9, sl, fp, lr}
  400eb6:	f01e 0f10 	tst.w	lr, #16
  400eba:	bf08      	it	eq
  400ebc:	ecb0 8a10 	vldmiaeq	r0!, {s16-s31}
  400ec0:	f380 8809 	msr	PSP, r0
  400ec4:	f3bf 8f6f 	isb	sy
  400ec8:	4770      	bx	lr
  400eca:	bf00      	nop

00400ecc <pxCurrentTCBConst>:
  400ecc:	20400a68 	.word	0x20400a68
  400ed0:	4770      	bx	lr
  400ed2:	bf00      	nop

00400ed4 <SysTick_Handler>:
  400ed4:	b508      	push	{r3, lr}
  400ed6:	f3ef 8311 	mrs	r3, BASEPRI
  400eda:	f04f 0280 	mov.w	r2, #128	; 0x80
  400ede:	b672      	cpsid	i
  400ee0:	f382 8811 	msr	BASEPRI, r2
  400ee4:	f3bf 8f6f 	isb	sy
  400ee8:	f3bf 8f4f 	dsb	sy
  400eec:	b662      	cpsie	i
  400eee:	4b05      	ldr	r3, [pc, #20]	; (400f04 <SysTick_Handler+0x30>)
  400ef0:	4798      	blx	r3
  400ef2:	b118      	cbz	r0, 400efc <SysTick_Handler+0x28>
  400ef4:	f04f 5280 	mov.w	r2, #268435456	; 0x10000000
  400ef8:	4b03      	ldr	r3, [pc, #12]	; (400f08 <SysTick_Handler+0x34>)
  400efa:	601a      	str	r2, [r3, #0]
  400efc:	2300      	movs	r3, #0
  400efe:	f383 8811 	msr	BASEPRI, r3
  400f02:	bd08      	pop	{r3, pc}
  400f04:	00401d0d 	.word	0x00401d0d
  400f08:	e000ed04 	.word	0xe000ed04

00400f0c <vPortSetupTimerInterrupt>:
  400f0c:	4a03      	ldr	r2, [pc, #12]	; (400f1c <vPortSetupTimerInterrupt+0x10>)
  400f0e:	4b04      	ldr	r3, [pc, #16]	; (400f20 <vPortSetupTimerInterrupt+0x14>)
  400f10:	601a      	str	r2, [r3, #0]
  400f12:	2207      	movs	r2, #7
  400f14:	3b04      	subs	r3, #4
  400f16:	601a      	str	r2, [r3, #0]
  400f18:	4770      	bx	lr
  400f1a:	bf00      	nop
  400f1c:	000927bf 	.word	0x000927bf
  400f20:	e000e014 	.word	0xe000e014

00400f24 <xPortStartScheduler>:
  400f24:	b500      	push	{lr}
  400f26:	b083      	sub	sp, #12
  400f28:	4b25      	ldr	r3, [pc, #148]	; (400fc0 <xPortStartScheduler+0x9c>)
  400f2a:	781a      	ldrb	r2, [r3, #0]
  400f2c:	b2d2      	uxtb	r2, r2
  400f2e:	9201      	str	r2, [sp, #4]
  400f30:	22ff      	movs	r2, #255	; 0xff
  400f32:	701a      	strb	r2, [r3, #0]
  400f34:	781b      	ldrb	r3, [r3, #0]
  400f36:	b2db      	uxtb	r3, r3
  400f38:	f88d 3003 	strb.w	r3, [sp, #3]
  400f3c:	f89d 3003 	ldrb.w	r3, [sp, #3]
  400f40:	f003 0380 	and.w	r3, r3, #128	; 0x80
  400f44:	4a1f      	ldr	r2, [pc, #124]	; (400fc4 <xPortStartScheduler+0xa0>)
  400f46:	7013      	strb	r3, [r2, #0]
  400f48:	2207      	movs	r2, #7
  400f4a:	4b1f      	ldr	r3, [pc, #124]	; (400fc8 <xPortStartScheduler+0xa4>)
  400f4c:	601a      	str	r2, [r3, #0]
  400f4e:	f89d 3003 	ldrb.w	r3, [sp, #3]
  400f52:	f013 0f80 	tst.w	r3, #128	; 0x80
  400f56:	d010      	beq.n	400f7a <xPortStartScheduler+0x56>
  400f58:	2206      	movs	r2, #6
  400f5a:	e000      	b.n	400f5e <xPortStartScheduler+0x3a>
  400f5c:	460a      	mov	r2, r1
  400f5e:	f89d 3003 	ldrb.w	r3, [sp, #3]
  400f62:	005b      	lsls	r3, r3, #1
  400f64:	b2db      	uxtb	r3, r3
  400f66:	f88d 3003 	strb.w	r3, [sp, #3]
  400f6a:	f89d 3003 	ldrb.w	r3, [sp, #3]
  400f6e:	1e51      	subs	r1, r2, #1
  400f70:	f013 0f80 	tst.w	r3, #128	; 0x80
  400f74:	d1f2      	bne.n	400f5c <xPortStartScheduler+0x38>
  400f76:	4b14      	ldr	r3, [pc, #80]	; (400fc8 <xPortStartScheduler+0xa4>)
  400f78:	601a      	str	r2, [r3, #0]
  400f7a:	4a13      	ldr	r2, [pc, #76]	; (400fc8 <xPortStartScheduler+0xa4>)
  400f7c:	6813      	ldr	r3, [r2, #0]
  400f7e:	021b      	lsls	r3, r3, #8
  400f80:	f403 63e0 	and.w	r3, r3, #1792	; 0x700
  400f84:	6013      	str	r3, [r2, #0]
  400f86:	9b01      	ldr	r3, [sp, #4]
  400f88:	b2db      	uxtb	r3, r3
  400f8a:	4a0d      	ldr	r2, [pc, #52]	; (400fc0 <xPortStartScheduler+0x9c>)
  400f8c:	7013      	strb	r3, [r2, #0]
  400f8e:	4b0f      	ldr	r3, [pc, #60]	; (400fcc <xPortStartScheduler+0xa8>)
  400f90:	681a      	ldr	r2, [r3, #0]
  400f92:	f442 0260 	orr.w	r2, r2, #14680064	; 0xe00000
  400f96:	601a      	str	r2, [r3, #0]
  400f98:	681a      	ldr	r2, [r3, #0]
  400f9a:	f042 4260 	orr.w	r2, r2, #3758096384	; 0xe0000000
  400f9e:	601a      	str	r2, [r3, #0]
  400fa0:	4b0b      	ldr	r3, [pc, #44]	; (400fd0 <xPortStartScheduler+0xac>)
  400fa2:	4798      	blx	r3
  400fa4:	2200      	movs	r2, #0
  400fa6:	4b0b      	ldr	r3, [pc, #44]	; (400fd4 <xPortStartScheduler+0xb0>)
  400fa8:	601a      	str	r2, [r3, #0]
  400faa:	4b0b      	ldr	r3, [pc, #44]	; (400fd8 <xPortStartScheduler+0xb4>)
  400fac:	4798      	blx	r3
  400fae:	4a0b      	ldr	r2, [pc, #44]	; (400fdc <xPortStartScheduler+0xb8>)
  400fb0:	6813      	ldr	r3, [r2, #0]
  400fb2:	f043 4340 	orr.w	r3, r3, #3221225472	; 0xc0000000
  400fb6:	6013      	str	r3, [r2, #0]
  400fb8:	4b09      	ldr	r3, [pc, #36]	; (400fe0 <xPortStartScheduler+0xbc>)
  400fba:	4798      	blx	r3
  400fbc:	4b09      	ldr	r3, [pc, #36]	; (400fe4 <xPortStartScheduler+0xc0>)
  400fbe:	4798      	blx	r3
  400fc0:	e000e400 	.word	0xe000e400
  400fc4:	20400a60 	.word	0x20400a60
  400fc8:	20400a64 	.word	0x20400a64
  400fcc:	e000ed20 	.word	0xe000ed20
  400fd0:	00400f0d 	.word	0x00400f0d
  400fd4:	20400010 	.word	0x20400010
  400fd8:	00400d91 	.word	0x00400d91
  400fdc:	e000ef34 	.word	0xe000ef34
  400fe0:	00400d71 	.word	0x00400d71
  400fe4:	00400d35 	.word	0x00400d35

00400fe8 <vPortValidateInterruptPriority>:
  400fe8:	f3ef 8305 	mrs	r3, IPSR
  400fec:	2b0f      	cmp	r3, #15
  400fee:	d911      	bls.n	401014 <vPortValidateInterruptPriority+0x2c>
  400ff0:	4a12      	ldr	r2, [pc, #72]	; (40103c <vPortValidateInterruptPriority+0x54>)
  400ff2:	5c9b      	ldrb	r3, [r3, r2]
  400ff4:	b2db      	uxtb	r3, r3
  400ff6:	4a12      	ldr	r2, [pc, #72]	; (401040 <vPortValidateInterruptPriority+0x58>)
  400ff8:	7812      	ldrb	r2, [r2, #0]
  400ffa:	429a      	cmp	r2, r3
  400ffc:	d90a      	bls.n	401014 <vPortValidateInterruptPriority+0x2c>
  400ffe:	f04f 0380 	mov.w	r3, #128	; 0x80
  401002:	b672      	cpsid	i
  401004:	f383 8811 	msr	BASEPRI, r3
  401008:	f3bf 8f6f 	isb	sy
  40100c:	f3bf 8f4f 	dsb	sy
  401010:	b662      	cpsie	i
  401012:	e7fe      	b.n	401012 <vPortValidateInterruptPriority+0x2a>
  401014:	4b0b      	ldr	r3, [pc, #44]	; (401044 <vPortValidateInterruptPriority+0x5c>)
  401016:	681b      	ldr	r3, [r3, #0]
  401018:	f403 63e0 	and.w	r3, r3, #1792	; 0x700
  40101c:	4a0a      	ldr	r2, [pc, #40]	; (401048 <vPortValidateInterruptPriority+0x60>)
  40101e:	6812      	ldr	r2, [r2, #0]
  401020:	4293      	cmp	r3, r2
  401022:	d90a      	bls.n	40103a <vPortValidateInterruptPriority+0x52>
  401024:	f04f 0380 	mov.w	r3, #128	; 0x80
  401028:	b672      	cpsid	i
  40102a:	f383 8811 	msr	BASEPRI, r3
  40102e:	f3bf 8f6f 	isb	sy
  401032:	f3bf 8f4f 	dsb	sy
  401036:	b662      	cpsie	i
  401038:	e7fe      	b.n	401038 <vPortValidateInterruptPriority+0x50>
  40103a:	4770      	bx	lr
  40103c:	e000e3f0 	.word	0xe000e3f0
  401040:	20400a60 	.word	0x20400a60
  401044:	e000ed0c 	.word	0xe000ed0c
  401048:	20400a64 	.word	0x20400a64

0040104c <pvPortMalloc>:
  40104c:	b510      	push	{r4, lr}
  40104e:	4604      	mov	r4, r0
  401050:	4b06      	ldr	r3, [pc, #24]	; (40106c <pvPortMalloc+0x20>)
  401052:	4798      	blx	r3
  401054:	4620      	mov	r0, r4
  401056:	4b06      	ldr	r3, [pc, #24]	; (401070 <pvPortMalloc+0x24>)
  401058:	4798      	blx	r3
  40105a:	4604      	mov	r4, r0
  40105c:	4b05      	ldr	r3, [pc, #20]	; (401074 <pvPortMalloc+0x28>)
  40105e:	4798      	blx	r3
  401060:	b10c      	cbz	r4, 401066 <pvPortMalloc+0x1a>
  401062:	4620      	mov	r0, r4
  401064:	bd10      	pop	{r4, pc}
  401066:	4b04      	ldr	r3, [pc, #16]	; (401078 <pvPortMalloc+0x2c>)
  401068:	4798      	blx	r3
  40106a:	e7fa      	b.n	401062 <pvPortMalloc+0x16>
  40106c:	00401cf1 	.word	0x00401cf1
  401070:	004031a9 	.word	0x004031a9
  401074:	00401e59 	.word	0x00401e59
  401078:	00402e6f 	.word	0x00402e6f

0040107c <vPortFree>:
  40107c:	b148      	cbz	r0, 401092 <vPortFree+0x16>
  40107e:	b510      	push	{r4, lr}
  401080:	4604      	mov	r4, r0
  401082:	4b04      	ldr	r3, [pc, #16]	; (401094 <vPortFree+0x18>)
  401084:	4798      	blx	r3
  401086:	4620      	mov	r0, r4
  401088:	4b03      	ldr	r3, [pc, #12]	; (401098 <vPortFree+0x1c>)
  40108a:	4798      	blx	r3
  40108c:	4b03      	ldr	r3, [pc, #12]	; (40109c <vPortFree+0x20>)
  40108e:	4798      	blx	r3
  401090:	bd10      	pop	{r4, pc}
  401092:	4770      	bx	lr
  401094:	00401cf1 	.word	0x00401cf1
  401098:	004031b9 	.word	0x004031b9
  40109c:	00401e59 	.word	0x00401e59

004010a0 <prvCopyDataToQueue>:
  4010a0:	b538      	push	{r3, r4, r5, lr}
  4010a2:	4604      	mov	r4, r0
  4010a4:	4615      	mov	r5, r2
  4010a6:	6c02      	ldr	r2, [r0, #64]	; 0x40
  4010a8:	b95a      	cbnz	r2, 4010c2 <prvCopyDataToQueue+0x22>
  4010aa:	6803      	ldr	r3, [r0, #0]
  4010ac:	2b00      	cmp	r3, #0
  4010ae:	d12e      	bne.n	40110e <prvCopyDataToQueue+0x6e>
  4010b0:	6840      	ldr	r0, [r0, #4]
  4010b2:	4b1b      	ldr	r3, [pc, #108]	; (401120 <prvCopyDataToQueue+0x80>)
  4010b4:	4798      	blx	r3
  4010b6:	2300      	movs	r3, #0
  4010b8:	6063      	str	r3, [r4, #4]
  4010ba:	6ba3      	ldr	r3, [r4, #56]	; 0x38
  4010bc:	3301      	adds	r3, #1
  4010be:	63a3      	str	r3, [r4, #56]	; 0x38
  4010c0:	bd38      	pop	{r3, r4, r5, pc}
  4010c2:	b96d      	cbnz	r5, 4010e0 <prvCopyDataToQueue+0x40>
  4010c4:	6880      	ldr	r0, [r0, #8]
  4010c6:	4b17      	ldr	r3, [pc, #92]	; (401124 <prvCopyDataToQueue+0x84>)
  4010c8:	4798      	blx	r3
  4010ca:	68a3      	ldr	r3, [r4, #8]
  4010cc:	6c22      	ldr	r2, [r4, #64]	; 0x40
  4010ce:	4413      	add	r3, r2
  4010d0:	60a3      	str	r3, [r4, #8]
  4010d2:	6862      	ldr	r2, [r4, #4]
  4010d4:	4293      	cmp	r3, r2
  4010d6:	d31c      	bcc.n	401112 <prvCopyDataToQueue+0x72>
  4010d8:	6823      	ldr	r3, [r4, #0]
  4010da:	60a3      	str	r3, [r4, #8]
  4010dc:	2000      	movs	r0, #0
  4010de:	e7ec      	b.n	4010ba <prvCopyDataToQueue+0x1a>
  4010e0:	68c0      	ldr	r0, [r0, #12]
  4010e2:	4b10      	ldr	r3, [pc, #64]	; (401124 <prvCopyDataToQueue+0x84>)
  4010e4:	4798      	blx	r3
  4010e6:	6c23      	ldr	r3, [r4, #64]	; 0x40
  4010e8:	425b      	negs	r3, r3
  4010ea:	68e2      	ldr	r2, [r4, #12]
  4010ec:	441a      	add	r2, r3
  4010ee:	60e2      	str	r2, [r4, #12]
  4010f0:	6821      	ldr	r1, [r4, #0]
  4010f2:	428a      	cmp	r2, r1
  4010f4:	d202      	bcs.n	4010fc <prvCopyDataToQueue+0x5c>
  4010f6:	6862      	ldr	r2, [r4, #4]
  4010f8:	4413      	add	r3, r2
  4010fa:	60e3      	str	r3, [r4, #12]
  4010fc:	2d02      	cmp	r5, #2
  4010fe:	d10a      	bne.n	401116 <prvCopyDataToQueue+0x76>
  401100:	6ba3      	ldr	r3, [r4, #56]	; 0x38
  401102:	b153      	cbz	r3, 40111a <prvCopyDataToQueue+0x7a>
  401104:	6ba3      	ldr	r3, [r4, #56]	; 0x38
  401106:	3b01      	subs	r3, #1
  401108:	63a3      	str	r3, [r4, #56]	; 0x38
  40110a:	2000      	movs	r0, #0
  40110c:	e7d5      	b.n	4010ba <prvCopyDataToQueue+0x1a>
  40110e:	2000      	movs	r0, #0
  401110:	e7d3      	b.n	4010ba <prvCopyDataToQueue+0x1a>
  401112:	2000      	movs	r0, #0
  401114:	e7d1      	b.n	4010ba <prvCopyDataToQueue+0x1a>
  401116:	2000      	movs	r0, #0
  401118:	e7cf      	b.n	4010ba <prvCopyDataToQueue+0x1a>
  40111a:	2000      	movs	r0, #0
  40111c:	e7cd      	b.n	4010ba <prvCopyDataToQueue+0x1a>
  40111e:	bf00      	nop
  401120:	004024a1 	.word	0x004024a1
  401124:	00403729 	.word	0x00403729

00401128 <prvNotifyQueueSetContainer>:
  401128:	b530      	push	{r4, r5, lr}
  40112a:	b083      	sub	sp, #12
  40112c:	9001      	str	r0, [sp, #4]
  40112e:	6d44      	ldr	r4, [r0, #84]	; 0x54
  401130:	b174      	cbz	r4, 401150 <prvNotifyQueueSetContainer+0x28>
  401132:	6ba2      	ldr	r2, [r4, #56]	; 0x38
  401134:	6be3      	ldr	r3, [r4, #60]	; 0x3c
  401136:	429a      	cmp	r2, r3
  401138:	d315      	bcc.n	401166 <prvNotifyQueueSetContainer+0x3e>
  40113a:	f04f 0380 	mov.w	r3, #128	; 0x80
  40113e:	b672      	cpsid	i
  401140:	f383 8811 	msr	BASEPRI, r3
  401144:	f3bf 8f6f 	isb	sy
  401148:	f3bf 8f4f 	dsb	sy
  40114c:	b662      	cpsie	i
  40114e:	e7fe      	b.n	40114e <prvNotifyQueueSetContainer+0x26>
  401150:	f04f 0380 	mov.w	r3, #128	; 0x80
  401154:	b672      	cpsid	i
  401156:	f383 8811 	msr	BASEPRI, r3
  40115a:	f3bf 8f6f 	isb	sy
  40115e:	f3bf 8f4f 	dsb	sy
  401162:	b662      	cpsie	i
  401164:	e7fe      	b.n	401164 <prvNotifyQueueSetContainer+0x3c>
  401166:	6ba2      	ldr	r2, [r4, #56]	; 0x38
  401168:	4293      	cmp	r3, r2
  40116a:	d803      	bhi.n	401174 <prvNotifyQueueSetContainer+0x4c>
  40116c:	2500      	movs	r5, #0
  40116e:	4628      	mov	r0, r5
  401170:	b003      	add	sp, #12
  401172:	bd30      	pop	{r4, r5, pc}
  401174:	460a      	mov	r2, r1
  401176:	a901      	add	r1, sp, #4
  401178:	4620      	mov	r0, r4
  40117a:	4b0b      	ldr	r3, [pc, #44]	; (4011a8 <prvNotifyQueueSetContainer+0x80>)
  40117c:	4798      	blx	r3
  40117e:	4605      	mov	r5, r0
  401180:	6ca3      	ldr	r3, [r4, #72]	; 0x48
  401182:	f1b3 3fff 	cmp.w	r3, #4294967295
  401186:	d10a      	bne.n	40119e <prvNotifyQueueSetContainer+0x76>
  401188:	6a63      	ldr	r3, [r4, #36]	; 0x24
  40118a:	2b00      	cmp	r3, #0
  40118c:	d0ef      	beq.n	40116e <prvNotifyQueueSetContainer+0x46>
  40118e:	f104 0024 	add.w	r0, r4, #36	; 0x24
  401192:	4b06      	ldr	r3, [pc, #24]	; (4011ac <prvNotifyQueueSetContainer+0x84>)
  401194:	4798      	blx	r3
  401196:	2800      	cmp	r0, #0
  401198:	bf18      	it	ne
  40119a:	2501      	movne	r5, #1
  40119c:	e7e7      	b.n	40116e <prvNotifyQueueSetContainer+0x46>
  40119e:	6ca3      	ldr	r3, [r4, #72]	; 0x48
  4011a0:	3301      	adds	r3, #1
  4011a2:	64a3      	str	r3, [r4, #72]	; 0x48
  4011a4:	e7e3      	b.n	40116e <prvNotifyQueueSetContainer+0x46>
  4011a6:	bf00      	nop
  4011a8:	004010a1 	.word	0x004010a1
  4011ac:	00402275 	.word	0x00402275

004011b0 <prvCopyDataFromQueue>:
  4011b0:	6c02      	ldr	r2, [r0, #64]	; 0x40
  4011b2:	b172      	cbz	r2, 4011d2 <prvCopyDataFromQueue+0x22>
  4011b4:	b510      	push	{r4, lr}
  4011b6:	4603      	mov	r3, r0
  4011b8:	68c4      	ldr	r4, [r0, #12]
  4011ba:	4414      	add	r4, r2
  4011bc:	60c4      	str	r4, [r0, #12]
  4011be:	6840      	ldr	r0, [r0, #4]
  4011c0:	4284      	cmp	r4, r0
  4011c2:	d301      	bcc.n	4011c8 <prvCopyDataFromQueue+0x18>
  4011c4:	6818      	ldr	r0, [r3, #0]
  4011c6:	60d8      	str	r0, [r3, #12]
  4011c8:	4608      	mov	r0, r1
  4011ca:	68d9      	ldr	r1, [r3, #12]
  4011cc:	4b01      	ldr	r3, [pc, #4]	; (4011d4 <prvCopyDataFromQueue+0x24>)
  4011ce:	4798      	blx	r3
  4011d0:	bd10      	pop	{r4, pc}
  4011d2:	4770      	bx	lr
  4011d4:	00403729 	.word	0x00403729

004011d8 <prvUnlockQueue>:
  4011d8:	b5f8      	push	{r3, r4, r5, r6, r7, lr}
  4011da:	4604      	mov	r4, r0
  4011dc:	4b22      	ldr	r3, [pc, #136]	; (401268 <prvUnlockQueue+0x90>)
  4011de:	4798      	blx	r3
  4011e0:	6ca3      	ldr	r3, [r4, #72]	; 0x48
  4011e2:	2b00      	cmp	r3, #0
  4011e4:	dd1b      	ble.n	40121e <prvUnlockQueue+0x46>
  4011e6:	4d21      	ldr	r5, [pc, #132]	; (40126c <prvUnlockQueue+0x94>)
  4011e8:	4f21      	ldr	r7, [pc, #132]	; (401270 <prvUnlockQueue+0x98>)
  4011ea:	4e22      	ldr	r6, [pc, #136]	; (401274 <prvUnlockQueue+0x9c>)
  4011ec:	e00b      	b.n	401206 <prvUnlockQueue+0x2e>
  4011ee:	6a63      	ldr	r3, [r4, #36]	; 0x24
  4011f0:	b1ab      	cbz	r3, 40121e <prvUnlockQueue+0x46>
  4011f2:	f104 0024 	add.w	r0, r4, #36	; 0x24
  4011f6:	47b0      	blx	r6
  4011f8:	b978      	cbnz	r0, 40121a <prvUnlockQueue+0x42>
  4011fa:	6ca3      	ldr	r3, [r4, #72]	; 0x48
  4011fc:	3b01      	subs	r3, #1
  4011fe:	64a3      	str	r3, [r4, #72]	; 0x48
  401200:	6ca3      	ldr	r3, [r4, #72]	; 0x48
  401202:	2b00      	cmp	r3, #0
  401204:	dd0b      	ble.n	40121e <prvUnlockQueue+0x46>
  401206:	6d63      	ldr	r3, [r4, #84]	; 0x54
  401208:	2b00      	cmp	r3, #0
  40120a:	d0f0      	beq.n	4011ee <prvUnlockQueue+0x16>
  40120c:	2100      	movs	r1, #0
  40120e:	4620      	mov	r0, r4
  401210:	47a8      	blx	r5
  401212:	2801      	cmp	r0, #1
  401214:	d1f1      	bne.n	4011fa <prvUnlockQueue+0x22>
  401216:	47b8      	blx	r7
  401218:	e7ef      	b.n	4011fa <prvUnlockQueue+0x22>
  40121a:	47b8      	blx	r7
  40121c:	e7ed      	b.n	4011fa <prvUnlockQueue+0x22>
  40121e:	f04f 33ff 	mov.w	r3, #4294967295
  401222:	64a3      	str	r3, [r4, #72]	; 0x48
  401224:	4b14      	ldr	r3, [pc, #80]	; (401278 <prvUnlockQueue+0xa0>)
  401226:	4798      	blx	r3
  401228:	4b0f      	ldr	r3, [pc, #60]	; (401268 <prvUnlockQueue+0x90>)
  40122a:	4798      	blx	r3
  40122c:	6c63      	ldr	r3, [r4, #68]	; 0x44
  40122e:	2b00      	cmp	r3, #0
  401230:	dd14      	ble.n	40125c <prvUnlockQueue+0x84>
  401232:	6923      	ldr	r3, [r4, #16]
  401234:	b193      	cbz	r3, 40125c <prvUnlockQueue+0x84>
  401236:	f104 0610 	add.w	r6, r4, #16
  40123a:	4d0e      	ldr	r5, [pc, #56]	; (401274 <prvUnlockQueue+0x9c>)
  40123c:	4f0c      	ldr	r7, [pc, #48]	; (401270 <prvUnlockQueue+0x98>)
  40123e:	e007      	b.n	401250 <prvUnlockQueue+0x78>
  401240:	6c63      	ldr	r3, [r4, #68]	; 0x44
  401242:	3b01      	subs	r3, #1
  401244:	6463      	str	r3, [r4, #68]	; 0x44
  401246:	6c63      	ldr	r3, [r4, #68]	; 0x44
  401248:	2b00      	cmp	r3, #0
  40124a:	dd07      	ble.n	40125c <prvUnlockQueue+0x84>
  40124c:	6923      	ldr	r3, [r4, #16]
  40124e:	b12b      	cbz	r3, 40125c <prvUnlockQueue+0x84>
  401250:	4630      	mov	r0, r6
  401252:	47a8      	blx	r5
  401254:	2800      	cmp	r0, #0
  401256:	d0f3      	beq.n	401240 <prvUnlockQueue+0x68>
  401258:	47b8      	blx	r7
  40125a:	e7f1      	b.n	401240 <prvUnlockQueue+0x68>
  40125c:	f04f 33ff 	mov.w	r3, #4294967295
  401260:	6463      	str	r3, [r4, #68]	; 0x44
  401262:	4b05      	ldr	r3, [pc, #20]	; (401278 <prvUnlockQueue+0xa0>)
  401264:	4798      	blx	r3
  401266:	bdf8      	pop	{r3, r4, r5, r6, r7, pc}
  401268:	00400df1 	.word	0x00400df1
  40126c:	00401129 	.word	0x00401129
  401270:	004023d1 	.word	0x004023d1
  401274:	00402275 	.word	0x00402275
  401278:	00400e3d 	.word	0x00400e3d

0040127c <xQueueGenericReset>:
  40127c:	b538      	push	{r3, r4, r5, lr}
  40127e:	b308      	cbz	r0, 4012c4 <xQueueGenericReset+0x48>
  401280:	4604      	mov	r4, r0
  401282:	460d      	mov	r5, r1
  401284:	4b1d      	ldr	r3, [pc, #116]	; (4012fc <xQueueGenericReset+0x80>)
  401286:	4798      	blx	r3
  401288:	6822      	ldr	r2, [r4, #0]
  40128a:	6c21      	ldr	r1, [r4, #64]	; 0x40
  40128c:	6be3      	ldr	r3, [r4, #60]	; 0x3c
  40128e:	fb03 f301 	mul.w	r3, r3, r1
  401292:	18d0      	adds	r0, r2, r3
  401294:	6060      	str	r0, [r4, #4]
  401296:	2000      	movs	r0, #0
  401298:	63a0      	str	r0, [r4, #56]	; 0x38
  40129a:	60a2      	str	r2, [r4, #8]
  40129c:	1a5b      	subs	r3, r3, r1
  40129e:	4413      	add	r3, r2
  4012a0:	60e3      	str	r3, [r4, #12]
  4012a2:	f04f 33ff 	mov.w	r3, #4294967295
  4012a6:	6463      	str	r3, [r4, #68]	; 0x44
  4012a8:	64a3      	str	r3, [r4, #72]	; 0x48
  4012aa:	b9fd      	cbnz	r5, 4012ec <xQueueGenericReset+0x70>
  4012ac:	6923      	ldr	r3, [r4, #16]
  4012ae:	b12b      	cbz	r3, 4012bc <xQueueGenericReset+0x40>
  4012b0:	f104 0010 	add.w	r0, r4, #16
  4012b4:	4b12      	ldr	r3, [pc, #72]	; (401300 <xQueueGenericReset+0x84>)
  4012b6:	4798      	blx	r3
  4012b8:	2801      	cmp	r0, #1
  4012ba:	d00e      	beq.n	4012da <xQueueGenericReset+0x5e>
  4012bc:	4b11      	ldr	r3, [pc, #68]	; (401304 <xQueueGenericReset+0x88>)
  4012be:	4798      	blx	r3
  4012c0:	2001      	movs	r0, #1
  4012c2:	bd38      	pop	{r3, r4, r5, pc}
  4012c4:	f04f 0380 	mov.w	r3, #128	; 0x80
  4012c8:	b672      	cpsid	i
  4012ca:	f383 8811 	msr	BASEPRI, r3
  4012ce:	f3bf 8f6f 	isb	sy
  4012d2:	f3bf 8f4f 	dsb	sy
  4012d6:	b662      	cpsie	i
  4012d8:	e7fe      	b.n	4012d8 <xQueueGenericReset+0x5c>
  4012da:	f04f 5280 	mov.w	r2, #268435456	; 0x10000000
  4012de:	4b0a      	ldr	r3, [pc, #40]	; (401308 <xQueueGenericReset+0x8c>)
  4012e0:	601a      	str	r2, [r3, #0]
  4012e2:	f3bf 8f4f 	dsb	sy
  4012e6:	f3bf 8f6f 	isb	sy
  4012ea:	e7e7      	b.n	4012bc <xQueueGenericReset+0x40>
  4012ec:	f104 0010 	add.w	r0, r4, #16
  4012f0:	4d06      	ldr	r5, [pc, #24]	; (40130c <xQueueGenericReset+0x90>)
  4012f2:	47a8      	blx	r5
  4012f4:	f104 0024 	add.w	r0, r4, #36	; 0x24
  4012f8:	47a8      	blx	r5
  4012fa:	e7df      	b.n	4012bc <xQueueGenericReset+0x40>
  4012fc:	00400df1 	.word	0x00400df1
  401300:	00402275 	.word	0x00402275
  401304:	00400e3d 	.word	0x00400e3d
  401308:	e000ed04 	.word	0xe000ed04
  40130c:	00400ca5 	.word	0x00400ca5

00401310 <xQueueGenericCreate>:
  401310:	b5f8      	push	{r3, r4, r5, r6, r7, lr}
  401312:	b950      	cbnz	r0, 40132a <xQueueGenericCreate+0x1a>
  401314:	f04f 0380 	mov.w	r3, #128	; 0x80
  401318:	b672      	cpsid	i
  40131a:	f383 8811 	msr	BASEPRI, r3
  40131e:	f3bf 8f6f 	isb	sy
  401322:	f3bf 8f4f 	dsb	sy
  401326:	b662      	cpsie	i
  401328:	e7fe      	b.n	401328 <xQueueGenericCreate+0x18>
  40132a:	4606      	mov	r6, r0
  40132c:	4617      	mov	r7, r2
  40132e:	460d      	mov	r5, r1
  401330:	b189      	cbz	r1, 401356 <xQueueGenericCreate+0x46>
  401332:	fb01 f000 	mul.w	r0, r1, r0
  401336:	3059      	adds	r0, #89	; 0x59
  401338:	4b12      	ldr	r3, [pc, #72]	; (401384 <xQueueGenericCreate+0x74>)
  40133a:	4798      	blx	r3
  40133c:	4604      	mov	r4, r0
  40133e:	b9e8      	cbnz	r0, 40137c <xQueueGenericCreate+0x6c>
  401340:	f04f 0380 	mov.w	r3, #128	; 0x80
  401344:	b672      	cpsid	i
  401346:	f383 8811 	msr	BASEPRI, r3
  40134a:	f3bf 8f6f 	isb	sy
  40134e:	f3bf 8f4f 	dsb	sy
  401352:	b662      	cpsie	i
  401354:	e7fe      	b.n	401354 <xQueueGenericCreate+0x44>
  401356:	2058      	movs	r0, #88	; 0x58
  401358:	4b0a      	ldr	r3, [pc, #40]	; (401384 <xQueueGenericCreate+0x74>)
  40135a:	4798      	blx	r3
  40135c:	4604      	mov	r4, r0
  40135e:	2800      	cmp	r0, #0
  401360:	d0ee      	beq.n	401340 <xQueueGenericCreate+0x30>
  401362:	6020      	str	r0, [r4, #0]
  401364:	63e6      	str	r6, [r4, #60]	; 0x3c
  401366:	6425      	str	r5, [r4, #64]	; 0x40
  401368:	2101      	movs	r1, #1
  40136a:	4620      	mov	r0, r4
  40136c:	4b06      	ldr	r3, [pc, #24]	; (401388 <xQueueGenericCreate+0x78>)
  40136e:	4798      	blx	r3
  401370:	f884 7050 	strb.w	r7, [r4, #80]	; 0x50
  401374:	2300      	movs	r3, #0
  401376:	6563      	str	r3, [r4, #84]	; 0x54
  401378:	4620      	mov	r0, r4
  40137a:	bdf8      	pop	{r3, r4, r5, r6, r7, pc}
  40137c:	f100 0358 	add.w	r3, r0, #88	; 0x58
  401380:	6003      	str	r3, [r0, #0]
  401382:	e7ef      	b.n	401364 <xQueueGenericCreate+0x54>
  401384:	0040104d 	.word	0x0040104d
  401388:	0040127d 	.word	0x0040127d

0040138c <xQueueGenericSend>:
  40138c:	e92d 4ff0 	stmdb	sp!, {r4, r5, r6, r7, r8, r9, sl, fp, lr}
  401390:	b085      	sub	sp, #20
  401392:	9201      	str	r2, [sp, #4]
  401394:	b1b8      	cbz	r0, 4013c6 <xQueueGenericSend+0x3a>
  401396:	4604      	mov	r4, r0
  401398:	b301      	cbz	r1, 4013dc <xQueueGenericSend+0x50>
  40139a:	2b02      	cmp	r3, #2
  40139c:	d02c      	beq.n	4013f8 <xQueueGenericSend+0x6c>
  40139e:	461d      	mov	r5, r3
  4013a0:	4688      	mov	r8, r1
  4013a2:	4b66      	ldr	r3, [pc, #408]	; (40153c <xQueueGenericSend+0x1b0>)
  4013a4:	4798      	blx	r3
  4013a6:	2800      	cmp	r0, #0
  4013a8:	d134      	bne.n	401414 <xQueueGenericSend+0x88>
  4013aa:	9b01      	ldr	r3, [sp, #4]
  4013ac:	2b00      	cmp	r3, #0
  4013ae:	d038      	beq.n	401422 <xQueueGenericSend+0x96>
  4013b0:	f04f 0380 	mov.w	r3, #128	; 0x80
  4013b4:	b672      	cpsid	i
  4013b6:	f383 8811 	msr	BASEPRI, r3
  4013ba:	f3bf 8f6f 	isb	sy
  4013be:	f3bf 8f4f 	dsb	sy
  4013c2:	b662      	cpsie	i
  4013c4:	e7fe      	b.n	4013c4 <xQueueGenericSend+0x38>
  4013c6:	f04f 0380 	mov.w	r3, #128	; 0x80
  4013ca:	b672      	cpsid	i
  4013cc:	f383 8811 	msr	BASEPRI, r3
  4013d0:	f3bf 8f6f 	isb	sy
  4013d4:	f3bf 8f4f 	dsb	sy
  4013d8:	b662      	cpsie	i
  4013da:	e7fe      	b.n	4013da <xQueueGenericSend+0x4e>
  4013dc:	6c02      	ldr	r2, [r0, #64]	; 0x40
  4013de:	2a00      	cmp	r2, #0
  4013e0:	d0db      	beq.n	40139a <xQueueGenericSend+0xe>
  4013e2:	f04f 0380 	mov.w	r3, #128	; 0x80
  4013e6:	b672      	cpsid	i
  4013e8:	f383 8811 	msr	BASEPRI, r3
  4013ec:	f3bf 8f6f 	isb	sy
  4013f0:	f3bf 8f4f 	dsb	sy
  4013f4:	b662      	cpsie	i
  4013f6:	e7fe      	b.n	4013f6 <xQueueGenericSend+0x6a>
  4013f8:	6be2      	ldr	r2, [r4, #60]	; 0x3c
  4013fa:	2a01      	cmp	r2, #1
  4013fc:	d0cf      	beq.n	40139e <xQueueGenericSend+0x12>
  4013fe:	f04f 0380 	mov.w	r3, #128	; 0x80
  401402:	b672      	cpsid	i
  401404:	f383 8811 	msr	BASEPRI, r3
  401408:	f3bf 8f6f 	isb	sy
  40140c:	f3bf 8f4f 	dsb	sy
  401410:	b662      	cpsie	i
  401412:	e7fe      	b.n	401412 <xQueueGenericSend+0x86>
  401414:	2700      	movs	r7, #0
  401416:	4e4a      	ldr	r6, [pc, #296]	; (401540 <xQueueGenericSend+0x1b4>)
  401418:	f8df a150 	ldr.w	sl, [pc, #336]	; 40156c <xQueueGenericSend+0x1e0>
  40141c:	f8df 912c 	ldr.w	r9, [pc, #300]	; 40154c <xQueueGenericSend+0x1c0>
  401420:	e042      	b.n	4014a8 <xQueueGenericSend+0x11c>
  401422:	2700      	movs	r7, #0
  401424:	e7f7      	b.n	401416 <xQueueGenericSend+0x8a>
  401426:	462a      	mov	r2, r5
  401428:	4641      	mov	r1, r8
  40142a:	4620      	mov	r0, r4
  40142c:	4b45      	ldr	r3, [pc, #276]	; (401544 <xQueueGenericSend+0x1b8>)
  40142e:	4798      	blx	r3
  401430:	6d63      	ldr	r3, [r4, #84]	; 0x54
  401432:	b19b      	cbz	r3, 40145c <xQueueGenericSend+0xd0>
  401434:	4629      	mov	r1, r5
  401436:	4620      	mov	r0, r4
  401438:	4b43      	ldr	r3, [pc, #268]	; (401548 <xQueueGenericSend+0x1bc>)
  40143a:	4798      	blx	r3
  40143c:	2801      	cmp	r0, #1
  40143e:	d107      	bne.n	401450 <xQueueGenericSend+0xc4>
  401440:	f04f 5280 	mov.w	r2, #268435456	; 0x10000000
  401444:	4b41      	ldr	r3, [pc, #260]	; (40154c <xQueueGenericSend+0x1c0>)
  401446:	601a      	str	r2, [r3, #0]
  401448:	f3bf 8f4f 	dsb	sy
  40144c:	f3bf 8f6f 	isb	sy
  401450:	4b3f      	ldr	r3, [pc, #252]	; (401550 <xQueueGenericSend+0x1c4>)
  401452:	4798      	blx	r3
  401454:	2001      	movs	r0, #1
  401456:	b005      	add	sp, #20
  401458:	e8bd 8ff0 	ldmia.w	sp!, {r4, r5, r6, r7, r8, r9, sl, fp, pc}
  40145c:	6a63      	ldr	r3, [r4, #36]	; 0x24
  40145e:	b173      	cbz	r3, 40147e <xQueueGenericSend+0xf2>
  401460:	f104 0024 	add.w	r0, r4, #36	; 0x24
  401464:	4b3b      	ldr	r3, [pc, #236]	; (401554 <xQueueGenericSend+0x1c8>)
  401466:	4798      	blx	r3
  401468:	2801      	cmp	r0, #1
  40146a:	d1f1      	bne.n	401450 <xQueueGenericSend+0xc4>
  40146c:	f04f 5280 	mov.w	r2, #268435456	; 0x10000000
  401470:	4b36      	ldr	r3, [pc, #216]	; (40154c <xQueueGenericSend+0x1c0>)
  401472:	601a      	str	r2, [r3, #0]
  401474:	f3bf 8f4f 	dsb	sy
  401478:	f3bf 8f6f 	isb	sy
  40147c:	e7e8      	b.n	401450 <xQueueGenericSend+0xc4>
  40147e:	2800      	cmp	r0, #0
  401480:	d0e6      	beq.n	401450 <xQueueGenericSend+0xc4>
  401482:	f04f 5280 	mov.w	r2, #268435456	; 0x10000000
  401486:	4b31      	ldr	r3, [pc, #196]	; (40154c <xQueueGenericSend+0x1c0>)
  401488:	601a      	str	r2, [r3, #0]
  40148a:	f3bf 8f4f 	dsb	sy
  40148e:	f3bf 8f6f 	isb	sy
  401492:	e7dd      	b.n	401450 <xQueueGenericSend+0xc4>
  401494:	4b2e      	ldr	r3, [pc, #184]	; (401550 <xQueueGenericSend+0x1c4>)
  401496:	4798      	blx	r3
  401498:	2000      	movs	r0, #0
  40149a:	e7dc      	b.n	401456 <xQueueGenericSend+0xca>
  40149c:	4620      	mov	r0, r4
  40149e:	4b2e      	ldr	r3, [pc, #184]	; (401558 <xQueueGenericSend+0x1cc>)
  4014a0:	4798      	blx	r3
  4014a2:	4b2e      	ldr	r3, [pc, #184]	; (40155c <xQueueGenericSend+0x1d0>)
  4014a4:	4798      	blx	r3
  4014a6:	2701      	movs	r7, #1
  4014a8:	47b0      	blx	r6
  4014aa:	6ba2      	ldr	r2, [r4, #56]	; 0x38
  4014ac:	6be3      	ldr	r3, [r4, #60]	; 0x3c
  4014ae:	429a      	cmp	r2, r3
  4014b0:	d3b9      	bcc.n	401426 <xQueueGenericSend+0x9a>
  4014b2:	2d02      	cmp	r5, #2
  4014b4:	d0b7      	beq.n	401426 <xQueueGenericSend+0x9a>
  4014b6:	9b01      	ldr	r3, [sp, #4]
  4014b8:	2b00      	cmp	r3, #0
  4014ba:	d0eb      	beq.n	401494 <xQueueGenericSend+0x108>
  4014bc:	b90f      	cbnz	r7, 4014c2 <xQueueGenericSend+0x136>
  4014be:	a802      	add	r0, sp, #8
  4014c0:	47d0      	blx	sl
  4014c2:	4b23      	ldr	r3, [pc, #140]	; (401550 <xQueueGenericSend+0x1c4>)
  4014c4:	4798      	blx	r3
  4014c6:	4b26      	ldr	r3, [pc, #152]	; (401560 <xQueueGenericSend+0x1d4>)
  4014c8:	4798      	blx	r3
  4014ca:	47b0      	blx	r6
  4014cc:	6c63      	ldr	r3, [r4, #68]	; 0x44
  4014ce:	f1b3 3fff 	cmp.w	r3, #4294967295
  4014d2:	d101      	bne.n	4014d8 <xQueueGenericSend+0x14c>
  4014d4:	2300      	movs	r3, #0
  4014d6:	6463      	str	r3, [r4, #68]	; 0x44
  4014d8:	6ca3      	ldr	r3, [r4, #72]	; 0x48
  4014da:	f1b3 3fff 	cmp.w	r3, #4294967295
  4014de:	d101      	bne.n	4014e4 <xQueueGenericSend+0x158>
  4014e0:	2300      	movs	r3, #0
  4014e2:	64a3      	str	r3, [r4, #72]	; 0x48
  4014e4:	4b1a      	ldr	r3, [pc, #104]	; (401550 <xQueueGenericSend+0x1c4>)
  4014e6:	4798      	blx	r3
  4014e8:	a901      	add	r1, sp, #4
  4014ea:	a802      	add	r0, sp, #8
  4014ec:	4b1d      	ldr	r3, [pc, #116]	; (401564 <xQueueGenericSend+0x1d8>)
  4014ee:	4798      	blx	r3
  4014f0:	b9e0      	cbnz	r0, 40152c <xQueueGenericSend+0x1a0>
  4014f2:	47b0      	blx	r6
  4014f4:	f8d4 b038 	ldr.w	fp, [r4, #56]	; 0x38
  4014f8:	6be7      	ldr	r7, [r4, #60]	; 0x3c
  4014fa:	4b15      	ldr	r3, [pc, #84]	; (401550 <xQueueGenericSend+0x1c4>)
  4014fc:	4798      	blx	r3
  4014fe:	45bb      	cmp	fp, r7
  401500:	d1cc      	bne.n	40149c <xQueueGenericSend+0x110>
  401502:	9901      	ldr	r1, [sp, #4]
  401504:	f104 0010 	add.w	r0, r4, #16
  401508:	4b17      	ldr	r3, [pc, #92]	; (401568 <xQueueGenericSend+0x1dc>)
  40150a:	4798      	blx	r3
  40150c:	4620      	mov	r0, r4
  40150e:	4b12      	ldr	r3, [pc, #72]	; (401558 <xQueueGenericSend+0x1cc>)
  401510:	4798      	blx	r3
  401512:	4b12      	ldr	r3, [pc, #72]	; (40155c <xQueueGenericSend+0x1d0>)
  401514:	4798      	blx	r3
  401516:	2800      	cmp	r0, #0
  401518:	d1c5      	bne.n	4014a6 <xQueueGenericSend+0x11a>
  40151a:	f04f 5380 	mov.w	r3, #268435456	; 0x10000000
  40151e:	f8c9 3000 	str.w	r3, [r9]
  401522:	f3bf 8f4f 	dsb	sy
  401526:	f3bf 8f6f 	isb	sy
  40152a:	e7bc      	b.n	4014a6 <xQueueGenericSend+0x11a>
  40152c:	4620      	mov	r0, r4
  40152e:	4b0a      	ldr	r3, [pc, #40]	; (401558 <xQueueGenericSend+0x1cc>)
  401530:	4798      	blx	r3
  401532:	4b0a      	ldr	r3, [pc, #40]	; (40155c <xQueueGenericSend+0x1d0>)
  401534:	4798      	blx	r3
  401536:	2000      	movs	r0, #0
  401538:	e78d      	b.n	401456 <xQueueGenericSend+0xca>
  40153a:	bf00      	nop
  40153c:	004023dd 	.word	0x004023dd
  401540:	00400df1 	.word	0x00400df1
  401544:	004010a1 	.word	0x004010a1
  401548:	00401129 	.word	0x00401129
  40154c:	e000ed04 	.word	0xe000ed04
  401550:	00400e3d 	.word	0x00400e3d
  401554:	00402275 	.word	0x00402275
  401558:	004011d9 	.word	0x004011d9
  40155c:	00401e59 	.word	0x00401e59
  401560:	00401cf1 	.word	0x00401cf1
  401564:	0040233d 	.word	0x0040233d
  401568:	00402171 	.word	0x00402171
  40156c:	0040230d 	.word	0x0040230d

00401570 <xQueueGenericSendFromISR>:
  401570:	2800      	cmp	r0, #0
  401572:	d036      	beq.n	4015e2 <xQueueGenericSendFromISR+0x72>
  401574:	e92d 41f0 	stmdb	sp!, {r4, r5, r6, r7, r8, lr}
  401578:	4604      	mov	r4, r0
  40157a:	2900      	cmp	r1, #0
  40157c:	d03c      	beq.n	4015f8 <xQueueGenericSendFromISR+0x88>
  40157e:	2b02      	cmp	r3, #2
  401580:	d048      	beq.n	401614 <xQueueGenericSendFromISR+0xa4>
  401582:	461e      	mov	r6, r3
  401584:	4615      	mov	r5, r2
  401586:	4688      	mov	r8, r1
  401588:	4b35      	ldr	r3, [pc, #212]	; (401660 <xQueueGenericSendFromISR+0xf0>)
  40158a:	4798      	blx	r3
  40158c:	f3ef 8711 	mrs	r7, BASEPRI
  401590:	f04f 0380 	mov.w	r3, #128	; 0x80
  401594:	b672      	cpsid	i
  401596:	f383 8811 	msr	BASEPRI, r3
  40159a:	f3bf 8f6f 	isb	sy
  40159e:	f3bf 8f4f 	dsb	sy
  4015a2:	b662      	cpsie	i
  4015a4:	6ba2      	ldr	r2, [r4, #56]	; 0x38
  4015a6:	6be3      	ldr	r3, [r4, #60]	; 0x3c
  4015a8:	429a      	cmp	r2, r3
  4015aa:	d301      	bcc.n	4015b0 <xQueueGenericSendFromISR+0x40>
  4015ac:	2e02      	cmp	r6, #2
  4015ae:	d14f      	bne.n	401650 <xQueueGenericSendFromISR+0xe0>
  4015b0:	4632      	mov	r2, r6
  4015b2:	4641      	mov	r1, r8
  4015b4:	4620      	mov	r0, r4
  4015b6:	4b2b      	ldr	r3, [pc, #172]	; (401664 <xQueueGenericSendFromISR+0xf4>)
  4015b8:	4798      	blx	r3
  4015ba:	6ca3      	ldr	r3, [r4, #72]	; 0x48
  4015bc:	f1b3 3fff 	cmp.w	r3, #4294967295
  4015c0:	d141      	bne.n	401646 <xQueueGenericSendFromISR+0xd6>
  4015c2:	6d63      	ldr	r3, [r4, #84]	; 0x54
  4015c4:	2b00      	cmp	r3, #0
  4015c6:	d033      	beq.n	401630 <xQueueGenericSendFromISR+0xc0>
  4015c8:	4631      	mov	r1, r6
  4015ca:	4620      	mov	r0, r4
  4015cc:	4b26      	ldr	r3, [pc, #152]	; (401668 <xQueueGenericSendFromISR+0xf8>)
  4015ce:	4798      	blx	r3
  4015d0:	2d00      	cmp	r5, #0
  4015d2:	d03f      	beq.n	401654 <xQueueGenericSendFromISR+0xe4>
  4015d4:	2801      	cmp	r0, #1
  4015d6:	d13d      	bne.n	401654 <xQueueGenericSendFromISR+0xe4>
  4015d8:	6028      	str	r0, [r5, #0]
  4015da:	f387 8811 	msr	BASEPRI, r7
  4015de:	e8bd 81f0 	ldmia.w	sp!, {r4, r5, r6, r7, r8, pc}
  4015e2:	f04f 0380 	mov.w	r3, #128	; 0x80
  4015e6:	b672      	cpsid	i
  4015e8:	f383 8811 	msr	BASEPRI, r3
  4015ec:	f3bf 8f6f 	isb	sy
  4015f0:	f3bf 8f4f 	dsb	sy
  4015f4:	b662      	cpsie	i
  4015f6:	e7fe      	b.n	4015f6 <xQueueGenericSendFromISR+0x86>
  4015f8:	6c00      	ldr	r0, [r0, #64]	; 0x40
  4015fa:	2800      	cmp	r0, #0
  4015fc:	d0bf      	beq.n	40157e <xQueueGenericSendFromISR+0xe>
  4015fe:	f04f 0380 	mov.w	r3, #128	; 0x80
  401602:	b672      	cpsid	i
  401604:	f383 8811 	msr	BASEPRI, r3
  401608:	f3bf 8f6f 	isb	sy
  40160c:	f3bf 8f4f 	dsb	sy
  401610:	b662      	cpsie	i
  401612:	e7fe      	b.n	401612 <xQueueGenericSendFromISR+0xa2>
  401614:	6be0      	ldr	r0, [r4, #60]	; 0x3c
  401616:	2801      	cmp	r0, #1
  401618:	d0b3      	beq.n	401582 <xQueueGenericSendFromISR+0x12>
  40161a:	f04f 0380 	mov.w	r3, #128	; 0x80
  40161e:	b672      	cpsid	i
  401620:	f383 8811 	msr	BASEPRI, r3
  401624:	f3bf 8f6f 	isb	sy
  401628:	f3bf 8f4f 	dsb	sy
  40162c:	b662      	cpsie	i
  40162e:	e7fe      	b.n	40162e <xQueueGenericSendFromISR+0xbe>
  401630:	6a63      	ldr	r3, [r4, #36]	; 0x24
  401632:	b18b      	cbz	r3, 401658 <xQueueGenericSendFromISR+0xe8>
  401634:	f104 0024 	add.w	r0, r4, #36	; 0x24
  401638:	4b0c      	ldr	r3, [pc, #48]	; (40166c <xQueueGenericSendFromISR+0xfc>)
  40163a:	4798      	blx	r3
  40163c:	b175      	cbz	r5, 40165c <xQueueGenericSendFromISR+0xec>
  40163e:	b168      	cbz	r0, 40165c <xQueueGenericSendFromISR+0xec>
  401640:	2001      	movs	r0, #1
  401642:	6028      	str	r0, [r5, #0]
  401644:	e7c9      	b.n	4015da <xQueueGenericSendFromISR+0x6a>
  401646:	6ca3      	ldr	r3, [r4, #72]	; 0x48
  401648:	3301      	adds	r3, #1
  40164a:	64a3      	str	r3, [r4, #72]	; 0x48
  40164c:	2001      	movs	r0, #1
  40164e:	e7c4      	b.n	4015da <xQueueGenericSendFromISR+0x6a>
  401650:	2000      	movs	r0, #0
  401652:	e7c2      	b.n	4015da <xQueueGenericSendFromISR+0x6a>
  401654:	2001      	movs	r0, #1
  401656:	e7c0      	b.n	4015da <xQueueGenericSendFromISR+0x6a>
  401658:	2001      	movs	r0, #1
  40165a:	e7be      	b.n	4015da <xQueueGenericSendFromISR+0x6a>
  40165c:	2001      	movs	r0, #1
  40165e:	e7bc      	b.n	4015da <xQueueGenericSendFromISR+0x6a>
  401660:	00400fe9 	.word	0x00400fe9
  401664:	004010a1 	.word	0x004010a1
  401668:	00401129 	.word	0x00401129
  40166c:	00402275 	.word	0x00402275

00401670 <xQueueGiveFromISR>:
  401670:	b170      	cbz	r0, 401690 <xQueueGiveFromISR+0x20>
  401672:	b570      	push	{r4, r5, r6, lr}
  401674:	4604      	mov	r4, r0
  401676:	6c03      	ldr	r3, [r0, #64]	; 0x40
  401678:	b1ab      	cbz	r3, 4016a6 <xQueueGiveFromISR+0x36>
  40167a:	f04f 0380 	mov.w	r3, #128	; 0x80
  40167e:	b672      	cpsid	i
  401680:	f383 8811 	msr	BASEPRI, r3
  401684:	f3bf 8f6f 	isb	sy
  401688:	f3bf 8f4f 	dsb	sy
  40168c:	b662      	cpsie	i
  40168e:	e7fe      	b.n	40168e <xQueueGiveFromISR+0x1e>
  401690:	f04f 0380 	mov.w	r3, #128	; 0x80
  401694:	b672      	cpsid	i
  401696:	f383 8811 	msr	BASEPRI, r3
  40169a:	f3bf 8f6f 	isb	sy
  40169e:	f3bf 8f4f 	dsb	sy
  4016a2:	b662      	cpsie	i
  4016a4:	e7fe      	b.n	4016a4 <xQueueGiveFromISR+0x34>
  4016a6:	6803      	ldr	r3, [r0, #0]
  4016a8:	b333      	cbz	r3, 4016f8 <xQueueGiveFromISR+0x88>
  4016aa:	460d      	mov	r5, r1
  4016ac:	4b25      	ldr	r3, [pc, #148]	; (401744 <xQueueGiveFromISR+0xd4>)
  4016ae:	4798      	blx	r3
  4016b0:	f3ef 8611 	mrs	r6, BASEPRI
  4016b4:	f04f 0380 	mov.w	r3, #128	; 0x80
  4016b8:	b672      	cpsid	i
  4016ba:	f383 8811 	msr	BASEPRI, r3
  4016be:	f3bf 8f6f 	isb	sy
  4016c2:	f3bf 8f4f 	dsb	sy
  4016c6:	b662      	cpsie	i
  4016c8:	6ba2      	ldr	r2, [r4, #56]	; 0x38
  4016ca:	6be3      	ldr	r3, [r4, #60]	; 0x3c
  4016cc:	429a      	cmp	r2, r3
  4016ce:	d231      	bcs.n	401734 <xQueueGiveFromISR+0xc4>
  4016d0:	6ba3      	ldr	r3, [r4, #56]	; 0x38
  4016d2:	3301      	adds	r3, #1
  4016d4:	63a3      	str	r3, [r4, #56]	; 0x38
  4016d6:	6ca3      	ldr	r3, [r4, #72]	; 0x48
  4016d8:	f1b3 3fff 	cmp.w	r3, #4294967295
  4016dc:	d125      	bne.n	40172a <xQueueGiveFromISR+0xba>
  4016de:	6d63      	ldr	r3, [r4, #84]	; 0x54
  4016e0:	b1c3      	cbz	r3, 401714 <xQueueGiveFromISR+0xa4>
  4016e2:	2100      	movs	r1, #0
  4016e4:	4620      	mov	r0, r4
  4016e6:	4b18      	ldr	r3, [pc, #96]	; (401748 <xQueueGiveFromISR+0xd8>)
  4016e8:	4798      	blx	r3
  4016ea:	b32d      	cbz	r5, 401738 <xQueueGiveFromISR+0xc8>
  4016ec:	2801      	cmp	r0, #1
  4016ee:	d123      	bne.n	401738 <xQueueGiveFromISR+0xc8>
  4016f0:	6028      	str	r0, [r5, #0]
  4016f2:	f386 8811 	msr	BASEPRI, r6
  4016f6:	bd70      	pop	{r4, r5, r6, pc}
  4016f8:	6843      	ldr	r3, [r0, #4]
  4016fa:	2b00      	cmp	r3, #0
  4016fc:	d0d5      	beq.n	4016aa <xQueueGiveFromISR+0x3a>
  4016fe:	f04f 0380 	mov.w	r3, #128	; 0x80
  401702:	b672      	cpsid	i
  401704:	f383 8811 	msr	BASEPRI, r3
  401708:	f3bf 8f6f 	isb	sy
  40170c:	f3bf 8f4f 	dsb	sy
  401710:	b662      	cpsie	i
  401712:	e7fe      	b.n	401712 <xQueueGiveFromISR+0xa2>
  401714:	6a63      	ldr	r3, [r4, #36]	; 0x24
  401716:	b18b      	cbz	r3, 40173c <xQueueGiveFromISR+0xcc>
  401718:	f104 0024 	add.w	r0, r4, #36	; 0x24
  40171c:	4b0b      	ldr	r3, [pc, #44]	; (40174c <xQueueGiveFromISR+0xdc>)
  40171e:	4798      	blx	r3
  401720:	b175      	cbz	r5, 401740 <xQueueGiveFromISR+0xd0>
  401722:	b168      	cbz	r0, 401740 <xQueueGiveFromISR+0xd0>
  401724:	2001      	movs	r0, #1
  401726:	6028      	str	r0, [r5, #0]
  401728:	e7e3      	b.n	4016f2 <xQueueGiveFromISR+0x82>
  40172a:	6ca3      	ldr	r3, [r4, #72]	; 0x48
  40172c:	3301      	adds	r3, #1
  40172e:	64a3      	str	r3, [r4, #72]	; 0x48
  401730:	2001      	movs	r0, #1
  401732:	e7de      	b.n	4016f2 <xQueueGiveFromISR+0x82>
  401734:	2000      	movs	r0, #0
  401736:	e7dc      	b.n	4016f2 <xQueueGiveFromISR+0x82>
  401738:	2001      	movs	r0, #1
  40173a:	e7da      	b.n	4016f2 <xQueueGiveFromISR+0x82>
  40173c:	2001      	movs	r0, #1
  40173e:	e7d8      	b.n	4016f2 <xQueueGiveFromISR+0x82>
  401740:	2001      	movs	r0, #1
  401742:	e7d6      	b.n	4016f2 <xQueueGiveFromISR+0x82>
  401744:	00400fe9 	.word	0x00400fe9
  401748:	00401129 	.word	0x00401129
  40174c:	00402275 	.word	0x00402275

00401750 <xQueueGenericReceive>:
  401750:	e92d 47f0 	stmdb	sp!, {r4, r5, r6, r7, r8, r9, sl, lr}
  401754:	b084      	sub	sp, #16
  401756:	9201      	str	r2, [sp, #4]
  401758:	b198      	cbz	r0, 401782 <xQueueGenericReceive+0x32>
  40175a:	4604      	mov	r4, r0
  40175c:	b1e1      	cbz	r1, 401798 <xQueueGenericReceive+0x48>
  40175e:	4698      	mov	r8, r3
  401760:	460f      	mov	r7, r1
  401762:	4b61      	ldr	r3, [pc, #388]	; (4018e8 <xQueueGenericReceive+0x198>)
  401764:	4798      	blx	r3
  401766:	bb28      	cbnz	r0, 4017b4 <xQueueGenericReceive+0x64>
  401768:	9b01      	ldr	r3, [sp, #4]
  40176a:	b353      	cbz	r3, 4017c2 <xQueueGenericReceive+0x72>
  40176c:	f04f 0380 	mov.w	r3, #128	; 0x80
  401770:	b672      	cpsid	i
  401772:	f383 8811 	msr	BASEPRI, r3
  401776:	f3bf 8f6f 	isb	sy
  40177a:	f3bf 8f4f 	dsb	sy
  40177e:	b662      	cpsie	i
  401780:	e7fe      	b.n	401780 <xQueueGenericReceive+0x30>
  401782:	f04f 0380 	mov.w	r3, #128	; 0x80
  401786:	b672      	cpsid	i
  401788:	f383 8811 	msr	BASEPRI, r3
  40178c:	f3bf 8f6f 	isb	sy
  401790:	f3bf 8f4f 	dsb	sy
  401794:	b662      	cpsie	i
  401796:	e7fe      	b.n	401796 <xQueueGenericReceive+0x46>
  401798:	6c02      	ldr	r2, [r0, #64]	; 0x40
  40179a:	2a00      	cmp	r2, #0
  40179c:	d0df      	beq.n	40175e <xQueueGenericReceive+0xe>
  40179e:	f04f 0380 	mov.w	r3, #128	; 0x80
  4017a2:	b672      	cpsid	i
  4017a4:	f383 8811 	msr	BASEPRI, r3
  4017a8:	f3bf 8f6f 	isb	sy
  4017ac:	f3bf 8f4f 	dsb	sy
  4017b0:	b662      	cpsie	i
  4017b2:	e7fe      	b.n	4017b2 <xQueueGenericReceive+0x62>
  4017b4:	2600      	movs	r6, #0
  4017b6:	4d4d      	ldr	r5, [pc, #308]	; (4018ec <xQueueGenericReceive+0x19c>)
  4017b8:	f8df a160 	ldr.w	sl, [pc, #352]	; 40191c <xQueueGenericReceive+0x1cc>
  4017bc:	f8df 913c 	ldr.w	r9, [pc, #316]	; 4018fc <xQueueGenericReceive+0x1ac>
  4017c0:	e04b      	b.n	40185a <xQueueGenericReceive+0x10a>
  4017c2:	2600      	movs	r6, #0
  4017c4:	e7f7      	b.n	4017b6 <xQueueGenericReceive+0x66>
  4017c6:	68e5      	ldr	r5, [r4, #12]
  4017c8:	4639      	mov	r1, r7
  4017ca:	4620      	mov	r0, r4
  4017cc:	4b48      	ldr	r3, [pc, #288]	; (4018f0 <xQueueGenericReceive+0x1a0>)
  4017ce:	4798      	blx	r3
  4017d0:	f1b8 0f00 	cmp.w	r8, #0
  4017d4:	d11d      	bne.n	401812 <xQueueGenericReceive+0xc2>
  4017d6:	6ba3      	ldr	r3, [r4, #56]	; 0x38
  4017d8:	3b01      	subs	r3, #1
  4017da:	63a3      	str	r3, [r4, #56]	; 0x38
  4017dc:	6823      	ldr	r3, [r4, #0]
  4017de:	b913      	cbnz	r3, 4017e6 <xQueueGenericReceive+0x96>
  4017e0:	4b44      	ldr	r3, [pc, #272]	; (4018f4 <xQueueGenericReceive+0x1a4>)
  4017e2:	4798      	blx	r3
  4017e4:	6060      	str	r0, [r4, #4]
  4017e6:	6923      	ldr	r3, [r4, #16]
  4017e8:	b16b      	cbz	r3, 401806 <xQueueGenericReceive+0xb6>
  4017ea:	f104 0010 	add.w	r0, r4, #16
  4017ee:	4b42      	ldr	r3, [pc, #264]	; (4018f8 <xQueueGenericReceive+0x1a8>)
  4017f0:	4798      	blx	r3
  4017f2:	2801      	cmp	r0, #1
  4017f4:	d107      	bne.n	401806 <xQueueGenericReceive+0xb6>
  4017f6:	f04f 5280 	mov.w	r2, #268435456	; 0x10000000
  4017fa:	4b40      	ldr	r3, [pc, #256]	; (4018fc <xQueueGenericReceive+0x1ac>)
  4017fc:	601a      	str	r2, [r3, #0]
  4017fe:	f3bf 8f4f 	dsb	sy
  401802:	f3bf 8f6f 	isb	sy
  401806:	4b3e      	ldr	r3, [pc, #248]	; (401900 <xQueueGenericReceive+0x1b0>)
  401808:	4798      	blx	r3
  40180a:	2001      	movs	r0, #1
  40180c:	b004      	add	sp, #16
  40180e:	e8bd 87f0 	ldmia.w	sp!, {r4, r5, r6, r7, r8, r9, sl, pc}
  401812:	60e5      	str	r5, [r4, #12]
  401814:	6a63      	ldr	r3, [r4, #36]	; 0x24
  401816:	2b00      	cmp	r3, #0
  401818:	d0f5      	beq.n	401806 <xQueueGenericReceive+0xb6>
  40181a:	f104 0024 	add.w	r0, r4, #36	; 0x24
  40181e:	4b36      	ldr	r3, [pc, #216]	; (4018f8 <xQueueGenericReceive+0x1a8>)
  401820:	4798      	blx	r3
  401822:	2800      	cmp	r0, #0
  401824:	d0ef      	beq.n	401806 <xQueueGenericReceive+0xb6>
  401826:	f04f 5280 	mov.w	r2, #268435456	; 0x10000000
  40182a:	4b34      	ldr	r3, [pc, #208]	; (4018fc <xQueueGenericReceive+0x1ac>)
  40182c:	601a      	str	r2, [r3, #0]
  40182e:	f3bf 8f4f 	dsb	sy
  401832:	f3bf 8f6f 	isb	sy
  401836:	e7e6      	b.n	401806 <xQueueGenericReceive+0xb6>
  401838:	4b31      	ldr	r3, [pc, #196]	; (401900 <xQueueGenericReceive+0x1b0>)
  40183a:	4798      	blx	r3
  40183c:	2000      	movs	r0, #0
  40183e:	e7e5      	b.n	40180c <xQueueGenericReceive+0xbc>
  401840:	47a8      	blx	r5
  401842:	6860      	ldr	r0, [r4, #4]
  401844:	4b2f      	ldr	r3, [pc, #188]	; (401904 <xQueueGenericReceive+0x1b4>)
  401846:	4798      	blx	r3
  401848:	4b2d      	ldr	r3, [pc, #180]	; (401900 <xQueueGenericReceive+0x1b0>)
  40184a:	4798      	blx	r3
  40184c:	e030      	b.n	4018b0 <xQueueGenericReceive+0x160>
  40184e:	4620      	mov	r0, r4
  401850:	4b2d      	ldr	r3, [pc, #180]	; (401908 <xQueueGenericReceive+0x1b8>)
  401852:	4798      	blx	r3
  401854:	4b2d      	ldr	r3, [pc, #180]	; (40190c <xQueueGenericReceive+0x1bc>)
  401856:	4798      	blx	r3
  401858:	2601      	movs	r6, #1
  40185a:	47a8      	blx	r5
  40185c:	6ba3      	ldr	r3, [r4, #56]	; 0x38
  40185e:	2b00      	cmp	r3, #0
  401860:	d1b1      	bne.n	4017c6 <xQueueGenericReceive+0x76>
  401862:	9b01      	ldr	r3, [sp, #4]
  401864:	2b00      	cmp	r3, #0
  401866:	d0e7      	beq.n	401838 <xQueueGenericReceive+0xe8>
  401868:	b90e      	cbnz	r6, 40186e <xQueueGenericReceive+0x11e>
  40186a:	a802      	add	r0, sp, #8
  40186c:	47d0      	blx	sl
  40186e:	4b24      	ldr	r3, [pc, #144]	; (401900 <xQueueGenericReceive+0x1b0>)
  401870:	4798      	blx	r3
  401872:	4b27      	ldr	r3, [pc, #156]	; (401910 <xQueueGenericReceive+0x1c0>)
  401874:	4798      	blx	r3
  401876:	47a8      	blx	r5
  401878:	6c63      	ldr	r3, [r4, #68]	; 0x44
  40187a:	f1b3 3fff 	cmp.w	r3, #4294967295
  40187e:	d101      	bne.n	401884 <xQueueGenericReceive+0x134>
  401880:	2300      	movs	r3, #0
  401882:	6463      	str	r3, [r4, #68]	; 0x44
  401884:	6ca3      	ldr	r3, [r4, #72]	; 0x48
  401886:	f1b3 3fff 	cmp.w	r3, #4294967295
  40188a:	d101      	bne.n	401890 <xQueueGenericReceive+0x140>
  40188c:	2300      	movs	r3, #0
  40188e:	64a3      	str	r3, [r4, #72]	; 0x48
  401890:	4b1b      	ldr	r3, [pc, #108]	; (401900 <xQueueGenericReceive+0x1b0>)
  401892:	4798      	blx	r3
  401894:	a901      	add	r1, sp, #4
  401896:	a802      	add	r0, sp, #8
  401898:	4b1e      	ldr	r3, [pc, #120]	; (401914 <xQueueGenericReceive+0x1c4>)
  40189a:	4798      	blx	r3
  40189c:	b9e8      	cbnz	r0, 4018da <xQueueGenericReceive+0x18a>
  40189e:	47a8      	blx	r5
  4018a0:	6ba6      	ldr	r6, [r4, #56]	; 0x38
  4018a2:	4b17      	ldr	r3, [pc, #92]	; (401900 <xQueueGenericReceive+0x1b0>)
  4018a4:	4798      	blx	r3
  4018a6:	2e00      	cmp	r6, #0
  4018a8:	d1d1      	bne.n	40184e <xQueueGenericReceive+0xfe>
  4018aa:	6823      	ldr	r3, [r4, #0]
  4018ac:	2b00      	cmp	r3, #0
  4018ae:	d0c7      	beq.n	401840 <xQueueGenericReceive+0xf0>
  4018b0:	9901      	ldr	r1, [sp, #4]
  4018b2:	f104 0024 	add.w	r0, r4, #36	; 0x24
  4018b6:	4b18      	ldr	r3, [pc, #96]	; (401918 <xQueueGenericReceive+0x1c8>)
  4018b8:	4798      	blx	r3
  4018ba:	4620      	mov	r0, r4
  4018bc:	4b12      	ldr	r3, [pc, #72]	; (401908 <xQueueGenericReceive+0x1b8>)
  4018be:	4798      	blx	r3
  4018c0:	4b12      	ldr	r3, [pc, #72]	; (40190c <xQueueGenericReceive+0x1bc>)
  4018c2:	4798      	blx	r3
  4018c4:	2800      	cmp	r0, #0
  4018c6:	d1c7      	bne.n	401858 <xQueueGenericReceive+0x108>
  4018c8:	f04f 5380 	mov.w	r3, #268435456	; 0x10000000
  4018cc:	f8c9 3000 	str.w	r3, [r9]
  4018d0:	f3bf 8f4f 	dsb	sy
  4018d4:	f3bf 8f6f 	isb	sy
  4018d8:	e7be      	b.n	401858 <xQueueGenericReceive+0x108>
  4018da:	4620      	mov	r0, r4
  4018dc:	4b0a      	ldr	r3, [pc, #40]	; (401908 <xQueueGenericReceive+0x1b8>)
  4018de:	4798      	blx	r3
  4018e0:	4b0a      	ldr	r3, [pc, #40]	; (40190c <xQueueGenericReceive+0x1bc>)
  4018e2:	4798      	blx	r3
  4018e4:	2000      	movs	r0, #0
  4018e6:	e791      	b.n	40180c <xQueueGenericReceive+0xbc>
  4018e8:	004023dd 	.word	0x004023dd
  4018ec:	00400df1 	.word	0x00400df1
  4018f0:	004011b1 	.word	0x004011b1
  4018f4:	0040255d 	.word	0x0040255d
  4018f8:	00402275 	.word	0x00402275
  4018fc:	e000ed04 	.word	0xe000ed04
  401900:	00400e3d 	.word	0x00400e3d
  401904:	004023fd 	.word	0x004023fd
  401908:	004011d9 	.word	0x004011d9
  40190c:	00401e59 	.word	0x00401e59
  401910:	00401cf1 	.word	0x00401cf1
  401914:	0040233d 	.word	0x0040233d
  401918:	00402171 	.word	0x00402171
  40191c:	0040230d 	.word	0x0040230d

00401920 <vQueueAddToRegistry>:
  401920:	b410      	push	{r4}
  401922:	4b0b      	ldr	r3, [pc, #44]	; (401950 <vQueueAddToRegistry+0x30>)
  401924:	681b      	ldr	r3, [r3, #0]
  401926:	b153      	cbz	r3, 40193e <vQueueAddToRegistry+0x1e>
  401928:	2301      	movs	r3, #1
  40192a:	4c09      	ldr	r4, [pc, #36]	; (401950 <vQueueAddToRegistry+0x30>)
  40192c:	f854 2033 	ldr.w	r2, [r4, r3, lsl #3]
  401930:	b132      	cbz	r2, 401940 <vQueueAddToRegistry+0x20>
  401932:	3301      	adds	r3, #1
  401934:	2b08      	cmp	r3, #8
  401936:	d1f9      	bne.n	40192c <vQueueAddToRegistry+0xc>
  401938:	f85d 4b04 	ldr.w	r4, [sp], #4
  40193c:	4770      	bx	lr
  40193e:	2300      	movs	r3, #0
  401940:	4a03      	ldr	r2, [pc, #12]	; (401950 <vQueueAddToRegistry+0x30>)
  401942:	f842 1033 	str.w	r1, [r2, r3, lsl #3]
  401946:	eb02 03c3 	add.w	r3, r2, r3, lsl #3
  40194a:	6058      	str	r0, [r3, #4]
  40194c:	e7f4      	b.n	401938 <vQueueAddToRegistry+0x18>
  40194e:	bf00      	nop
  401950:	20400be0 	.word	0x20400be0

00401954 <vQueueWaitForMessageRestricted>:
  401954:	b570      	push	{r4, r5, r6, lr}
  401956:	4604      	mov	r4, r0
  401958:	460d      	mov	r5, r1
  40195a:	4616      	mov	r6, r2
  40195c:	4b0f      	ldr	r3, [pc, #60]	; (40199c <vQueueWaitForMessageRestricted+0x48>)
  40195e:	4798      	blx	r3
  401960:	6c63      	ldr	r3, [r4, #68]	; 0x44
  401962:	f1b3 3fff 	cmp.w	r3, #4294967295
  401966:	d00b      	beq.n	401980 <vQueueWaitForMessageRestricted+0x2c>
  401968:	6ca3      	ldr	r3, [r4, #72]	; 0x48
  40196a:	f1b3 3fff 	cmp.w	r3, #4294967295
  40196e:	d00a      	beq.n	401986 <vQueueWaitForMessageRestricted+0x32>
  401970:	4b0b      	ldr	r3, [pc, #44]	; (4019a0 <vQueueWaitForMessageRestricted+0x4c>)
  401972:	4798      	blx	r3
  401974:	6ba3      	ldr	r3, [r4, #56]	; 0x38
  401976:	b14b      	cbz	r3, 40198c <vQueueWaitForMessageRestricted+0x38>
  401978:	4620      	mov	r0, r4
  40197a:	4b0a      	ldr	r3, [pc, #40]	; (4019a4 <vQueueWaitForMessageRestricted+0x50>)
  40197c:	4798      	blx	r3
  40197e:	bd70      	pop	{r4, r5, r6, pc}
  401980:	2300      	movs	r3, #0
  401982:	6463      	str	r3, [r4, #68]	; 0x44
  401984:	e7f0      	b.n	401968 <vQueueWaitForMessageRestricted+0x14>
  401986:	2300      	movs	r3, #0
  401988:	64a3      	str	r3, [r4, #72]	; 0x48
  40198a:	e7f1      	b.n	401970 <vQueueWaitForMessageRestricted+0x1c>
  40198c:	4632      	mov	r2, r6
  40198e:	4629      	mov	r1, r5
  401990:	f104 0024 	add.w	r0, r4, #36	; 0x24
  401994:	4b04      	ldr	r3, [pc, #16]	; (4019a8 <vQueueWaitForMessageRestricted+0x54>)
  401996:	4798      	blx	r3
  401998:	e7ee      	b.n	401978 <vQueueWaitForMessageRestricted+0x24>
  40199a:	bf00      	nop
  40199c:	00400df1 	.word	0x00400df1
  4019a0:	00400e3d 	.word	0x00400e3d
  4019a4:	004011d9 	.word	0x004011d9
  4019a8:	004021f5 	.word	0x004021f5

004019ac <prvResetNextTaskUnblockTime>:
  4019ac:	4b08      	ldr	r3, [pc, #32]	; (4019d0 <prvResetNextTaskUnblockTime+0x24>)
  4019ae:	681b      	ldr	r3, [r3, #0]
  4019b0:	681b      	ldr	r3, [r3, #0]
  4019b2:	b13b      	cbz	r3, 4019c4 <prvResetNextTaskUnblockTime+0x18>
  4019b4:	4b06      	ldr	r3, [pc, #24]	; (4019d0 <prvResetNextTaskUnblockTime+0x24>)
  4019b6:	681b      	ldr	r3, [r3, #0]
  4019b8:	68db      	ldr	r3, [r3, #12]
  4019ba:	68db      	ldr	r3, [r3, #12]
  4019bc:	685a      	ldr	r2, [r3, #4]
  4019be:	4b05      	ldr	r3, [pc, #20]	; (4019d4 <prvResetNextTaskUnblockTime+0x28>)
  4019c0:	601a      	str	r2, [r3, #0]
  4019c2:	4770      	bx	lr
  4019c4:	f04f 32ff 	mov.w	r2, #4294967295
  4019c8:	4b02      	ldr	r3, [pc, #8]	; (4019d4 <prvResetNextTaskUnblockTime+0x28>)
  4019ca:	601a      	str	r2, [r3, #0]
  4019cc:	4770      	bx	lr
  4019ce:	bf00      	nop
  4019d0:	20400a6c 	.word	0x20400a6c
  4019d4:	20400b18 	.word	0x20400b18

004019d8 <prvAddCurrentTaskToDelayedList>:
  4019d8:	b510      	push	{r4, lr}
  4019da:	4b0f      	ldr	r3, [pc, #60]	; (401a18 <prvAddCurrentTaskToDelayedList+0x40>)
  4019dc:	681b      	ldr	r3, [r3, #0]
  4019de:	6058      	str	r0, [r3, #4]
  4019e0:	4b0e      	ldr	r3, [pc, #56]	; (401a1c <prvAddCurrentTaskToDelayedList+0x44>)
  4019e2:	681b      	ldr	r3, [r3, #0]
  4019e4:	4298      	cmp	r0, r3
  4019e6:	d30e      	bcc.n	401a06 <prvAddCurrentTaskToDelayedList+0x2e>
  4019e8:	4604      	mov	r4, r0
  4019ea:	4b0d      	ldr	r3, [pc, #52]	; (401a20 <prvAddCurrentTaskToDelayedList+0x48>)
  4019ec:	6818      	ldr	r0, [r3, #0]
  4019ee:	4b0a      	ldr	r3, [pc, #40]	; (401a18 <prvAddCurrentTaskToDelayedList+0x40>)
  4019f0:	6819      	ldr	r1, [r3, #0]
  4019f2:	3104      	adds	r1, #4
  4019f4:	4b0b      	ldr	r3, [pc, #44]	; (401a24 <prvAddCurrentTaskToDelayedList+0x4c>)
  4019f6:	4798      	blx	r3
  4019f8:	4b0b      	ldr	r3, [pc, #44]	; (401a28 <prvAddCurrentTaskToDelayedList+0x50>)
  4019fa:	681b      	ldr	r3, [r3, #0]
  4019fc:	429c      	cmp	r4, r3
  4019fe:	d201      	bcs.n	401a04 <prvAddCurrentTaskToDelayedList+0x2c>
  401a00:	4b09      	ldr	r3, [pc, #36]	; (401a28 <prvAddCurrentTaskToDelayedList+0x50>)
  401a02:	601c      	str	r4, [r3, #0]
  401a04:	bd10      	pop	{r4, pc}
  401a06:	4b09      	ldr	r3, [pc, #36]	; (401a2c <prvAddCurrentTaskToDelayedList+0x54>)
  401a08:	6818      	ldr	r0, [r3, #0]
  401a0a:	4b03      	ldr	r3, [pc, #12]	; (401a18 <prvAddCurrentTaskToDelayedList+0x40>)
  401a0c:	6819      	ldr	r1, [r3, #0]
  401a0e:	3104      	adds	r1, #4
  401a10:	4b04      	ldr	r3, [pc, #16]	; (401a24 <prvAddCurrentTaskToDelayedList+0x4c>)
  401a12:	4798      	blx	r3
  401a14:	bd10      	pop	{r4, pc}
  401a16:	bf00      	nop
  401a18:	20400a68 	.word	0x20400a68
  401a1c:	20400b60 	.word	0x20400b60
  401a20:	20400a6c 	.word	0x20400a6c
  401a24:	00400cd9 	.word	0x00400cd9
  401a28:	20400b18 	.word	0x20400b18
  401a2c:	20400a70 	.word	0x20400a70

00401a30 <xTaskGenericCreate>:
  401a30:	e92d 4ff0 	stmdb	sp!, {r4, r5, r6, r7, r8, r9, sl, fp, lr}
  401a34:	b083      	sub	sp, #12
  401a36:	9d0c      	ldr	r5, [sp, #48]	; 0x30
  401a38:	f8dd a034 	ldr.w	sl, [sp, #52]	; 0x34
  401a3c:	9e0e      	ldr	r6, [sp, #56]	; 0x38
  401a3e:	b160      	cbz	r0, 401a5a <xTaskGenericCreate+0x2a>
  401a40:	2d04      	cmp	r5, #4
  401a42:	d915      	bls.n	401a70 <xTaskGenericCreate+0x40>
  401a44:	f04f 0380 	mov.w	r3, #128	; 0x80
  401a48:	b672      	cpsid	i
  401a4a:	f383 8811 	msr	BASEPRI, r3
  401a4e:	f3bf 8f6f 	isb	sy
  401a52:	f3bf 8f4f 	dsb	sy
  401a56:	b662      	cpsie	i
  401a58:	e7fe      	b.n	401a58 <xTaskGenericCreate+0x28>
  401a5a:	f04f 0380 	mov.w	r3, #128	; 0x80
  401a5e:	b672      	cpsid	i
  401a60:	f383 8811 	msr	BASEPRI, r3
  401a64:	f3bf 8f6f 	isb	sy
  401a68:	f3bf 8f4f 	dsb	sy
  401a6c:	b662      	cpsie	i
  401a6e:	e7fe      	b.n	401a6e <xTaskGenericCreate+0x3e>
  401a70:	9001      	str	r0, [sp, #4]
  401a72:	4698      	mov	r8, r3
  401a74:	4691      	mov	r9, r2
  401a76:	460f      	mov	r7, r1
  401a78:	b936      	cbnz	r6, 401a88 <xTaskGenericCreate+0x58>
  401a7a:	0090      	lsls	r0, r2, #2
  401a7c:	4b62      	ldr	r3, [pc, #392]	; (401c08 <xTaskGenericCreate+0x1d8>)
  401a7e:	4798      	blx	r3
  401a80:	4606      	mov	r6, r0
  401a82:	2800      	cmp	r0, #0
  401a84:	f000 809e 	beq.w	401bc4 <xTaskGenericCreate+0x194>
  401a88:	2058      	movs	r0, #88	; 0x58
  401a8a:	4b5f      	ldr	r3, [pc, #380]	; (401c08 <xTaskGenericCreate+0x1d8>)
  401a8c:	4798      	blx	r3
  401a8e:	4604      	mov	r4, r0
  401a90:	2800      	cmp	r0, #0
  401a92:	f000 8094 	beq.w	401bbe <xTaskGenericCreate+0x18e>
  401a96:	6306      	str	r6, [r0, #48]	; 0x30
  401a98:	ea4f 0289 	mov.w	r2, r9, lsl #2
  401a9c:	21a5      	movs	r1, #165	; 0xa5
  401a9e:	4630      	mov	r0, r6
  401aa0:	4b5a      	ldr	r3, [pc, #360]	; (401c0c <xTaskGenericCreate+0x1dc>)
  401aa2:	4798      	blx	r3
  401aa4:	f06f 4640 	mvn.w	r6, #3221225472	; 0xc0000000
  401aa8:	444e      	add	r6, r9
  401aaa:	6b23      	ldr	r3, [r4, #48]	; 0x30
  401aac:	eb03 0386 	add.w	r3, r3, r6, lsl #2
  401ab0:	f023 0607 	bic.w	r6, r3, #7
  401ab4:	783b      	ldrb	r3, [r7, #0]
  401ab6:	f884 3034 	strb.w	r3, [r4, #52]	; 0x34
  401aba:	783b      	ldrb	r3, [r7, #0]
  401abc:	2b00      	cmp	r3, #0
  401abe:	f040 8084 	bne.w	401bca <xTaskGenericCreate+0x19a>
  401ac2:	2700      	movs	r7, #0
  401ac4:	f884 703d 	strb.w	r7, [r4, #61]	; 0x3d
  401ac8:	62e5      	str	r5, [r4, #44]	; 0x2c
  401aca:	64a5      	str	r5, [r4, #72]	; 0x48
  401acc:	64e7      	str	r7, [r4, #76]	; 0x4c
  401ace:	f104 0904 	add.w	r9, r4, #4
  401ad2:	4648      	mov	r0, r9
  401ad4:	f8df b184 	ldr.w	fp, [pc, #388]	; 401c5c <xTaskGenericCreate+0x22c>
  401ad8:	47d8      	blx	fp
  401ada:	f104 0018 	add.w	r0, r4, #24
  401ade:	47d8      	blx	fp
  401ae0:	6124      	str	r4, [r4, #16]
  401ae2:	f1c5 0305 	rsb	r3, r5, #5
  401ae6:	61a3      	str	r3, [r4, #24]
  401ae8:	6264      	str	r4, [r4, #36]	; 0x24
  401aea:	6527      	str	r7, [r4, #80]	; 0x50
  401aec:	f884 7054 	strb.w	r7, [r4, #84]	; 0x54
  401af0:	4642      	mov	r2, r8
  401af2:	9901      	ldr	r1, [sp, #4]
  401af4:	4630      	mov	r0, r6
  401af6:	4b46      	ldr	r3, [pc, #280]	; (401c10 <xTaskGenericCreate+0x1e0>)
  401af8:	4798      	blx	r3
  401afa:	6020      	str	r0, [r4, #0]
  401afc:	f1ba 0f00 	cmp.w	sl, #0
  401b00:	d001      	beq.n	401b06 <xTaskGenericCreate+0xd6>
  401b02:	f8ca 4000 	str.w	r4, [sl]
  401b06:	4b43      	ldr	r3, [pc, #268]	; (401c14 <xTaskGenericCreate+0x1e4>)
  401b08:	4798      	blx	r3
  401b0a:	4a43      	ldr	r2, [pc, #268]	; (401c18 <xTaskGenericCreate+0x1e8>)
  401b0c:	6813      	ldr	r3, [r2, #0]
  401b0e:	3301      	adds	r3, #1
  401b10:	6013      	str	r3, [r2, #0]
  401b12:	4b42      	ldr	r3, [pc, #264]	; (401c1c <xTaskGenericCreate+0x1ec>)
  401b14:	681b      	ldr	r3, [r3, #0]
  401b16:	2b00      	cmp	r3, #0
  401b18:	d166      	bne.n	401be8 <xTaskGenericCreate+0x1b8>
  401b1a:	4b40      	ldr	r3, [pc, #256]	; (401c1c <xTaskGenericCreate+0x1ec>)
  401b1c:	601c      	str	r4, [r3, #0]
  401b1e:	6813      	ldr	r3, [r2, #0]
  401b20:	2b01      	cmp	r3, #1
  401b22:	d121      	bne.n	401b68 <xTaskGenericCreate+0x138>
  401b24:	4f3e      	ldr	r7, [pc, #248]	; (401c20 <xTaskGenericCreate+0x1f0>)
  401b26:	4638      	mov	r0, r7
  401b28:	4e3e      	ldr	r6, [pc, #248]	; (401c24 <xTaskGenericCreate+0x1f4>)
  401b2a:	47b0      	blx	r6
  401b2c:	f107 0014 	add.w	r0, r7, #20
  401b30:	47b0      	blx	r6
  401b32:	f107 0028 	add.w	r0, r7, #40	; 0x28
  401b36:	47b0      	blx	r6
  401b38:	f107 003c 	add.w	r0, r7, #60	; 0x3c
  401b3c:	47b0      	blx	r6
  401b3e:	f107 0050 	add.w	r0, r7, #80	; 0x50
  401b42:	47b0      	blx	r6
  401b44:	f8df 8118 	ldr.w	r8, [pc, #280]	; 401c60 <xTaskGenericCreate+0x230>
  401b48:	4640      	mov	r0, r8
  401b4a:	47b0      	blx	r6
  401b4c:	4f36      	ldr	r7, [pc, #216]	; (401c28 <xTaskGenericCreate+0x1f8>)
  401b4e:	4638      	mov	r0, r7
  401b50:	47b0      	blx	r6
  401b52:	4836      	ldr	r0, [pc, #216]	; (401c2c <xTaskGenericCreate+0x1fc>)
  401b54:	47b0      	blx	r6
  401b56:	4836      	ldr	r0, [pc, #216]	; (401c30 <xTaskGenericCreate+0x200>)
  401b58:	47b0      	blx	r6
  401b5a:	4836      	ldr	r0, [pc, #216]	; (401c34 <xTaskGenericCreate+0x204>)
  401b5c:	47b0      	blx	r6
  401b5e:	4b36      	ldr	r3, [pc, #216]	; (401c38 <xTaskGenericCreate+0x208>)
  401b60:	f8c3 8000 	str.w	r8, [r3]
  401b64:	4b35      	ldr	r3, [pc, #212]	; (401c3c <xTaskGenericCreate+0x20c>)
  401b66:	601f      	str	r7, [r3, #0]
  401b68:	4a35      	ldr	r2, [pc, #212]	; (401c40 <xTaskGenericCreate+0x210>)
  401b6a:	6813      	ldr	r3, [r2, #0]
  401b6c:	3301      	adds	r3, #1
  401b6e:	6013      	str	r3, [r2, #0]
  401b70:	6423      	str	r3, [r4, #64]	; 0x40
  401b72:	6ae0      	ldr	r0, [r4, #44]	; 0x2c
  401b74:	4a33      	ldr	r2, [pc, #204]	; (401c44 <xTaskGenericCreate+0x214>)
  401b76:	6811      	ldr	r1, [r2, #0]
  401b78:	2301      	movs	r3, #1
  401b7a:	4083      	lsls	r3, r0
  401b7c:	430b      	orrs	r3, r1
  401b7e:	6013      	str	r3, [r2, #0]
  401b80:	eb00 0080 	add.w	r0, r0, r0, lsl #2
  401b84:	4649      	mov	r1, r9
  401b86:	4b26      	ldr	r3, [pc, #152]	; (401c20 <xTaskGenericCreate+0x1f0>)
  401b88:	eb03 0080 	add.w	r0, r3, r0, lsl #2
  401b8c:	4b2e      	ldr	r3, [pc, #184]	; (401c48 <xTaskGenericCreate+0x218>)
  401b8e:	4798      	blx	r3
  401b90:	4b2e      	ldr	r3, [pc, #184]	; (401c4c <xTaskGenericCreate+0x21c>)
  401b92:	4798      	blx	r3
  401b94:	4b2e      	ldr	r3, [pc, #184]	; (401c50 <xTaskGenericCreate+0x220>)
  401b96:	681b      	ldr	r3, [r3, #0]
  401b98:	2b00      	cmp	r3, #0
  401b9a:	d031      	beq.n	401c00 <xTaskGenericCreate+0x1d0>
  401b9c:	4b1f      	ldr	r3, [pc, #124]	; (401c1c <xTaskGenericCreate+0x1ec>)
  401b9e:	681b      	ldr	r3, [r3, #0]
  401ba0:	6adb      	ldr	r3, [r3, #44]	; 0x2c
  401ba2:	429d      	cmp	r5, r3
  401ba4:	d92e      	bls.n	401c04 <xTaskGenericCreate+0x1d4>
  401ba6:	f04f 5280 	mov.w	r2, #268435456	; 0x10000000
  401baa:	4b2a      	ldr	r3, [pc, #168]	; (401c54 <xTaskGenericCreate+0x224>)
  401bac:	601a      	str	r2, [r3, #0]
  401bae:	f3bf 8f4f 	dsb	sy
  401bb2:	f3bf 8f6f 	isb	sy
  401bb6:	2001      	movs	r0, #1
  401bb8:	b003      	add	sp, #12
  401bba:	e8bd 8ff0 	ldmia.w	sp!, {r4, r5, r6, r7, r8, r9, sl, fp, pc}
  401bbe:	4630      	mov	r0, r6
  401bc0:	4b25      	ldr	r3, [pc, #148]	; (401c58 <xTaskGenericCreate+0x228>)
  401bc2:	4798      	blx	r3
  401bc4:	f04f 30ff 	mov.w	r0, #4294967295
  401bc8:	e7f6      	b.n	401bb8 <xTaskGenericCreate+0x188>
  401bca:	463b      	mov	r3, r7
  401bcc:	f104 0234 	add.w	r2, r4, #52	; 0x34
  401bd0:	3709      	adds	r7, #9
  401bd2:	7859      	ldrb	r1, [r3, #1]
  401bd4:	f802 1f01 	strb.w	r1, [r2, #1]!
  401bd8:	f813 1f01 	ldrb.w	r1, [r3, #1]!
  401bdc:	2900      	cmp	r1, #0
  401bde:	f43f af70 	beq.w	401ac2 <xTaskGenericCreate+0x92>
  401be2:	42bb      	cmp	r3, r7
  401be4:	d1f5      	bne.n	401bd2 <xTaskGenericCreate+0x1a2>
  401be6:	e76c      	b.n	401ac2 <xTaskGenericCreate+0x92>
  401be8:	4b19      	ldr	r3, [pc, #100]	; (401c50 <xTaskGenericCreate+0x220>)
  401bea:	681b      	ldr	r3, [r3, #0]
  401bec:	2b00      	cmp	r3, #0
  401bee:	d1bb      	bne.n	401b68 <xTaskGenericCreate+0x138>
  401bf0:	4b0a      	ldr	r3, [pc, #40]	; (401c1c <xTaskGenericCreate+0x1ec>)
  401bf2:	681b      	ldr	r3, [r3, #0]
  401bf4:	6adb      	ldr	r3, [r3, #44]	; 0x2c
  401bf6:	429d      	cmp	r5, r3
  401bf8:	d3b6      	bcc.n	401b68 <xTaskGenericCreate+0x138>
  401bfa:	4b08      	ldr	r3, [pc, #32]	; (401c1c <xTaskGenericCreate+0x1ec>)
  401bfc:	601c      	str	r4, [r3, #0]
  401bfe:	e7b3      	b.n	401b68 <xTaskGenericCreate+0x138>
  401c00:	2001      	movs	r0, #1
  401c02:	e7d9      	b.n	401bb8 <xTaskGenericCreate+0x188>
  401c04:	2001      	movs	r0, #1
  401c06:	e7d7      	b.n	401bb8 <xTaskGenericCreate+0x188>
  401c08:	0040104d 	.word	0x0040104d
  401c0c:	0040385d 	.word	0x0040385d
  401c10:	00400da5 	.word	0x00400da5
  401c14:	00400df1 	.word	0x00400df1
  401c18:	20400ad8 	.word	0x20400ad8
  401c1c:	20400a68 	.word	0x20400a68
  401c20:	20400a74 	.word	0x20400a74
  401c24:	00400ca5 	.word	0x00400ca5
  401c28:	20400b04 	.word	0x20400b04
  401c2c:	20400b20 	.word	0x20400b20
  401c30:	20400b4c 	.word	0x20400b4c
  401c34:	20400b38 	.word	0x20400b38
  401c38:	20400a6c 	.word	0x20400a6c
  401c3c:	20400a70 	.word	0x20400a70
  401c40:	20400ae4 	.word	0x20400ae4
  401c44:	20400aec 	.word	0x20400aec
  401c48:	00400cc1 	.word	0x00400cc1
  401c4c:	00400e3d 	.word	0x00400e3d
  401c50:	20400b34 	.word	0x20400b34
  401c54:	e000ed04 	.word	0xe000ed04
  401c58:	0040107d 	.word	0x0040107d
  401c5c:	00400cbb 	.word	0x00400cbb
  401c60:	20400af0 	.word	0x20400af0

00401c64 <vTaskStartScheduler>:
  401c64:	b510      	push	{r4, lr}
  401c66:	b084      	sub	sp, #16
  401c68:	2300      	movs	r3, #0
  401c6a:	9303      	str	r3, [sp, #12]
  401c6c:	9302      	str	r3, [sp, #8]
  401c6e:	9301      	str	r3, [sp, #4]
  401c70:	9300      	str	r3, [sp, #0]
  401c72:	2282      	movs	r2, #130	; 0x82
  401c74:	4916      	ldr	r1, [pc, #88]	; (401cd0 <vTaskStartScheduler+0x6c>)
  401c76:	4817      	ldr	r0, [pc, #92]	; (401cd4 <vTaskStartScheduler+0x70>)
  401c78:	4c17      	ldr	r4, [pc, #92]	; (401cd8 <vTaskStartScheduler+0x74>)
  401c7a:	47a0      	blx	r4
  401c7c:	2801      	cmp	r0, #1
  401c7e:	d00b      	beq.n	401c98 <vTaskStartScheduler+0x34>
  401c80:	bb20      	cbnz	r0, 401ccc <vTaskStartScheduler+0x68>
  401c82:	f04f 0380 	mov.w	r3, #128	; 0x80
  401c86:	b672      	cpsid	i
  401c88:	f383 8811 	msr	BASEPRI, r3
  401c8c:	f3bf 8f6f 	isb	sy
  401c90:	f3bf 8f4f 	dsb	sy
  401c94:	b662      	cpsie	i
  401c96:	e7fe      	b.n	401c96 <vTaskStartScheduler+0x32>
  401c98:	4b10      	ldr	r3, [pc, #64]	; (401cdc <vTaskStartScheduler+0x78>)
  401c9a:	4798      	blx	r3
  401c9c:	2801      	cmp	r0, #1
  401c9e:	d1ef      	bne.n	401c80 <vTaskStartScheduler+0x1c>
  401ca0:	f04f 0380 	mov.w	r3, #128	; 0x80
  401ca4:	b672      	cpsid	i
  401ca6:	f383 8811 	msr	BASEPRI, r3
  401caa:	f3bf 8f6f 	isb	sy
  401cae:	f3bf 8f4f 	dsb	sy
  401cb2:	b662      	cpsie	i
  401cb4:	f04f 32ff 	mov.w	r2, #4294967295
  401cb8:	4b09      	ldr	r3, [pc, #36]	; (401ce0 <vTaskStartScheduler+0x7c>)
  401cba:	601a      	str	r2, [r3, #0]
  401cbc:	2201      	movs	r2, #1
  401cbe:	4b09      	ldr	r3, [pc, #36]	; (401ce4 <vTaskStartScheduler+0x80>)
  401cc0:	601a      	str	r2, [r3, #0]
  401cc2:	2200      	movs	r2, #0
  401cc4:	4b08      	ldr	r3, [pc, #32]	; (401ce8 <vTaskStartScheduler+0x84>)
  401cc6:	601a      	str	r2, [r3, #0]
  401cc8:	4b08      	ldr	r3, [pc, #32]	; (401cec <vTaskStartScheduler+0x88>)
  401cca:	4798      	blx	r3
  401ccc:	b004      	add	sp, #16
  401cce:	bd10      	pop	{r4, pc}
  401cd0:	004060d8 	.word	0x004060d8
  401cd4:	00402009 	.word	0x00402009
  401cd8:	00401a31 	.word	0x00401a31
  401cdc:	00402649 	.word	0x00402649
  401ce0:	20400b18 	.word	0x20400b18
  401ce4:	20400b34 	.word	0x20400b34
  401ce8:	20400b60 	.word	0x20400b60
  401cec:	00400f25 	.word	0x00400f25

00401cf0 <vTaskSuspendAll>:
  401cf0:	4a02      	ldr	r2, [pc, #8]	; (401cfc <vTaskSuspendAll+0xc>)
  401cf2:	6813      	ldr	r3, [r2, #0]
  401cf4:	3301      	adds	r3, #1
  401cf6:	6013      	str	r3, [r2, #0]
  401cf8:	4770      	bx	lr
  401cfa:	bf00      	nop
  401cfc:	20400ae0 	.word	0x20400ae0

00401d00 <xTaskGetTickCount>:
  401d00:	4b01      	ldr	r3, [pc, #4]	; (401d08 <xTaskGetTickCount+0x8>)
  401d02:	6818      	ldr	r0, [r3, #0]
  401d04:	4770      	bx	lr
  401d06:	bf00      	nop
  401d08:	20400b60 	.word	0x20400b60

00401d0c <xTaskIncrementTick>:
  401d0c:	e92d 47f0 	stmdb	sp!, {r4, r5, r6, r7, r8, r9, sl, lr}
  401d10:	4b42      	ldr	r3, [pc, #264]	; (401e1c <xTaskIncrementTick+0x110>)
  401d12:	681b      	ldr	r3, [r3, #0]
  401d14:	2b00      	cmp	r3, #0
  401d16:	d178      	bne.n	401e0a <xTaskIncrementTick+0xfe>
  401d18:	4b41      	ldr	r3, [pc, #260]	; (401e20 <xTaskIncrementTick+0x114>)
  401d1a:	681a      	ldr	r2, [r3, #0]
  401d1c:	3201      	adds	r2, #1
  401d1e:	601a      	str	r2, [r3, #0]
  401d20:	681e      	ldr	r6, [r3, #0]
  401d22:	b9d6      	cbnz	r6, 401d5a <xTaskIncrementTick+0x4e>
  401d24:	4b3f      	ldr	r3, [pc, #252]	; (401e24 <xTaskIncrementTick+0x118>)
  401d26:	681b      	ldr	r3, [r3, #0]
  401d28:	681b      	ldr	r3, [r3, #0]
  401d2a:	b153      	cbz	r3, 401d42 <xTaskIncrementTick+0x36>
  401d2c:	f04f 0380 	mov.w	r3, #128	; 0x80
  401d30:	b672      	cpsid	i
  401d32:	f383 8811 	msr	BASEPRI, r3
  401d36:	f3bf 8f6f 	isb	sy
  401d3a:	f3bf 8f4f 	dsb	sy
  401d3e:	b662      	cpsie	i
  401d40:	e7fe      	b.n	401d40 <xTaskIncrementTick+0x34>
  401d42:	4a38      	ldr	r2, [pc, #224]	; (401e24 <xTaskIncrementTick+0x118>)
  401d44:	6811      	ldr	r1, [r2, #0]
  401d46:	4b38      	ldr	r3, [pc, #224]	; (401e28 <xTaskIncrementTick+0x11c>)
  401d48:	6818      	ldr	r0, [r3, #0]
  401d4a:	6010      	str	r0, [r2, #0]
  401d4c:	6019      	str	r1, [r3, #0]
  401d4e:	4a37      	ldr	r2, [pc, #220]	; (401e2c <xTaskIncrementTick+0x120>)
  401d50:	6813      	ldr	r3, [r2, #0]
  401d52:	3301      	adds	r3, #1
  401d54:	6013      	str	r3, [r2, #0]
  401d56:	4b36      	ldr	r3, [pc, #216]	; (401e30 <xTaskIncrementTick+0x124>)
  401d58:	4798      	blx	r3
  401d5a:	4b36      	ldr	r3, [pc, #216]	; (401e34 <xTaskIncrementTick+0x128>)
  401d5c:	681b      	ldr	r3, [r3, #0]
  401d5e:	429e      	cmp	r6, r3
  401d60:	d218      	bcs.n	401d94 <xTaskIncrementTick+0x88>
  401d62:	2400      	movs	r4, #0
  401d64:	4b34      	ldr	r3, [pc, #208]	; (401e38 <xTaskIncrementTick+0x12c>)
  401d66:	681b      	ldr	r3, [r3, #0]
  401d68:	6adb      	ldr	r3, [r3, #44]	; 0x2c
  401d6a:	eb03 0383 	add.w	r3, r3, r3, lsl #2
  401d6e:	4a33      	ldr	r2, [pc, #204]	; (401e3c <xTaskIncrementTick+0x130>)
  401d70:	f852 3023 	ldr.w	r3, [r2, r3, lsl #2]
  401d74:	2b02      	cmp	r3, #2
  401d76:	bf28      	it	cs
  401d78:	2401      	movcs	r4, #1
  401d7a:	4b31      	ldr	r3, [pc, #196]	; (401e40 <xTaskIncrementTick+0x134>)
  401d7c:	681b      	ldr	r3, [r3, #0]
  401d7e:	b90b      	cbnz	r3, 401d84 <xTaskIncrementTick+0x78>
  401d80:	4b30      	ldr	r3, [pc, #192]	; (401e44 <xTaskIncrementTick+0x138>)
  401d82:	4798      	blx	r3
  401d84:	4b30      	ldr	r3, [pc, #192]	; (401e48 <xTaskIncrementTick+0x13c>)
  401d86:	681b      	ldr	r3, [r3, #0]
  401d88:	2b00      	cmp	r3, #0
  401d8a:	bf0c      	ite	eq
  401d8c:	4620      	moveq	r0, r4
  401d8e:	2001      	movne	r0, #1
  401d90:	e8bd 87f0 	ldmia.w	sp!, {r4, r5, r6, r7, r8, r9, sl, pc}
  401d94:	2400      	movs	r4, #0
  401d96:	f8df 908c 	ldr.w	r9, [pc, #140]	; 401e24 <xTaskIncrementTick+0x118>
  401d9a:	f8df 80b8 	ldr.w	r8, [pc, #184]	; 401e54 <xTaskIncrementTick+0x148>
  401d9e:	4f2b      	ldr	r7, [pc, #172]	; (401e4c <xTaskIncrementTick+0x140>)
  401da0:	e01f      	b.n	401de2 <xTaskIncrementTick+0xd6>
  401da2:	f04f 32ff 	mov.w	r2, #4294967295
  401da6:	4b23      	ldr	r3, [pc, #140]	; (401e34 <xTaskIncrementTick+0x128>)
  401da8:	601a      	str	r2, [r3, #0]
  401daa:	e7db      	b.n	401d64 <xTaskIncrementTick+0x58>
  401dac:	4a21      	ldr	r2, [pc, #132]	; (401e34 <xTaskIncrementTick+0x128>)
  401dae:	6013      	str	r3, [r2, #0]
  401db0:	e7d8      	b.n	401d64 <xTaskIncrementTick+0x58>
  401db2:	f105 0018 	add.w	r0, r5, #24
  401db6:	47c0      	blx	r8
  401db8:	6ae8      	ldr	r0, [r5, #44]	; 0x2c
  401dba:	683a      	ldr	r2, [r7, #0]
  401dbc:	2301      	movs	r3, #1
  401dbe:	4083      	lsls	r3, r0
  401dc0:	4313      	orrs	r3, r2
  401dc2:	603b      	str	r3, [r7, #0]
  401dc4:	eb00 0080 	add.w	r0, r0, r0, lsl #2
  401dc8:	4651      	mov	r1, sl
  401dca:	4b1c      	ldr	r3, [pc, #112]	; (401e3c <xTaskIncrementTick+0x130>)
  401dcc:	eb03 0080 	add.w	r0, r3, r0, lsl #2
  401dd0:	4b1f      	ldr	r3, [pc, #124]	; (401e50 <xTaskIncrementTick+0x144>)
  401dd2:	4798      	blx	r3
  401dd4:	4b18      	ldr	r3, [pc, #96]	; (401e38 <xTaskIncrementTick+0x12c>)
  401dd6:	681b      	ldr	r3, [r3, #0]
  401dd8:	6aea      	ldr	r2, [r5, #44]	; 0x2c
  401dda:	6adb      	ldr	r3, [r3, #44]	; 0x2c
  401ddc:	429a      	cmp	r2, r3
  401dde:	bf28      	it	cs
  401de0:	2401      	movcs	r4, #1
  401de2:	f8d9 3000 	ldr.w	r3, [r9]
  401de6:	681b      	ldr	r3, [r3, #0]
  401de8:	2b00      	cmp	r3, #0
  401dea:	d0da      	beq.n	401da2 <xTaskIncrementTick+0x96>
  401dec:	f8d9 3000 	ldr.w	r3, [r9]
  401df0:	68db      	ldr	r3, [r3, #12]
  401df2:	68dd      	ldr	r5, [r3, #12]
  401df4:	686b      	ldr	r3, [r5, #4]
  401df6:	429e      	cmp	r6, r3
  401df8:	d3d8      	bcc.n	401dac <xTaskIncrementTick+0xa0>
  401dfa:	f105 0a04 	add.w	sl, r5, #4
  401dfe:	4650      	mov	r0, sl
  401e00:	47c0      	blx	r8
  401e02:	6aab      	ldr	r3, [r5, #40]	; 0x28
  401e04:	2b00      	cmp	r3, #0
  401e06:	d1d4      	bne.n	401db2 <xTaskIncrementTick+0xa6>
  401e08:	e7d6      	b.n	401db8 <xTaskIncrementTick+0xac>
  401e0a:	4a0d      	ldr	r2, [pc, #52]	; (401e40 <xTaskIncrementTick+0x134>)
  401e0c:	6813      	ldr	r3, [r2, #0]
  401e0e:	3301      	adds	r3, #1
  401e10:	6013      	str	r3, [r2, #0]
  401e12:	4b0c      	ldr	r3, [pc, #48]	; (401e44 <xTaskIncrementTick+0x138>)
  401e14:	4798      	blx	r3
  401e16:	2400      	movs	r4, #0
  401e18:	e7b4      	b.n	401d84 <xTaskIncrementTick+0x78>
  401e1a:	bf00      	nop
  401e1c:	20400ae0 	.word	0x20400ae0
  401e20:	20400b60 	.word	0x20400b60
  401e24:	20400a6c 	.word	0x20400a6c
  401e28:	20400a70 	.word	0x20400a70
  401e2c:	20400b1c 	.word	0x20400b1c
  401e30:	004019ad 	.word	0x004019ad
  401e34:	20400b18 	.word	0x20400b18
  401e38:	20400a68 	.word	0x20400a68
  401e3c:	20400a74 	.word	0x20400a74
  401e40:	20400adc 	.word	0x20400adc
  401e44:	00402e6d 	.word	0x00402e6d
  401e48:	20400b64 	.word	0x20400b64
  401e4c:	20400aec 	.word	0x20400aec
  401e50:	00400cc1 	.word	0x00400cc1
  401e54:	00400d0d 	.word	0x00400d0d

00401e58 <xTaskResumeAll>:
  401e58:	e92d 43f8 	stmdb	sp!, {r3, r4, r5, r6, r7, r8, r9, lr}
  401e5c:	4b38      	ldr	r3, [pc, #224]	; (401f40 <xTaskResumeAll+0xe8>)
  401e5e:	681b      	ldr	r3, [r3, #0]
  401e60:	b953      	cbnz	r3, 401e78 <xTaskResumeAll+0x20>
  401e62:	f04f 0380 	mov.w	r3, #128	; 0x80
  401e66:	b672      	cpsid	i
  401e68:	f383 8811 	msr	BASEPRI, r3
  401e6c:	f3bf 8f6f 	isb	sy
  401e70:	f3bf 8f4f 	dsb	sy
  401e74:	b662      	cpsie	i
  401e76:	e7fe      	b.n	401e76 <xTaskResumeAll+0x1e>
  401e78:	4b32      	ldr	r3, [pc, #200]	; (401f44 <xTaskResumeAll+0xec>)
  401e7a:	4798      	blx	r3
  401e7c:	4b30      	ldr	r3, [pc, #192]	; (401f40 <xTaskResumeAll+0xe8>)
  401e7e:	681a      	ldr	r2, [r3, #0]
  401e80:	3a01      	subs	r2, #1
  401e82:	601a      	str	r2, [r3, #0]
  401e84:	681b      	ldr	r3, [r3, #0]
  401e86:	2b00      	cmp	r3, #0
  401e88:	d155      	bne.n	401f36 <xTaskResumeAll+0xde>
  401e8a:	4b2f      	ldr	r3, [pc, #188]	; (401f48 <xTaskResumeAll+0xf0>)
  401e8c:	681b      	ldr	r3, [r3, #0]
  401e8e:	2b00      	cmp	r3, #0
  401e90:	d132      	bne.n	401ef8 <xTaskResumeAll+0xa0>
  401e92:	2400      	movs	r4, #0
  401e94:	4b2d      	ldr	r3, [pc, #180]	; (401f4c <xTaskResumeAll+0xf4>)
  401e96:	4798      	blx	r3
  401e98:	4620      	mov	r0, r4
  401e9a:	e8bd 83f8 	ldmia.w	sp!, {r3, r4, r5, r6, r7, r8, r9, pc}
  401e9e:	68fb      	ldr	r3, [r7, #12]
  401ea0:	68dc      	ldr	r4, [r3, #12]
  401ea2:	f104 0018 	add.w	r0, r4, #24
  401ea6:	47b0      	blx	r6
  401ea8:	f104 0804 	add.w	r8, r4, #4
  401eac:	4640      	mov	r0, r8
  401eae:	47b0      	blx	r6
  401eb0:	6ae0      	ldr	r0, [r4, #44]	; 0x2c
  401eb2:	682a      	ldr	r2, [r5, #0]
  401eb4:	2301      	movs	r3, #1
  401eb6:	4083      	lsls	r3, r0
  401eb8:	4313      	orrs	r3, r2
  401eba:	602b      	str	r3, [r5, #0]
  401ebc:	eb00 0080 	add.w	r0, r0, r0, lsl #2
  401ec0:	4641      	mov	r1, r8
  401ec2:	eb09 0080 	add.w	r0, r9, r0, lsl #2
  401ec6:	4b22      	ldr	r3, [pc, #136]	; (401f50 <xTaskResumeAll+0xf8>)
  401ec8:	4798      	blx	r3
  401eca:	4b22      	ldr	r3, [pc, #136]	; (401f54 <xTaskResumeAll+0xfc>)
  401ecc:	681b      	ldr	r3, [r3, #0]
  401ece:	6ae2      	ldr	r2, [r4, #44]	; 0x2c
  401ed0:	6adb      	ldr	r3, [r3, #44]	; 0x2c
  401ed2:	429a      	cmp	r2, r3
  401ed4:	d20c      	bcs.n	401ef0 <xTaskResumeAll+0x98>
  401ed6:	683b      	ldr	r3, [r7, #0]
  401ed8:	2b00      	cmp	r3, #0
  401eda:	d1e0      	bne.n	401e9e <xTaskResumeAll+0x46>
  401edc:	4b1e      	ldr	r3, [pc, #120]	; (401f58 <xTaskResumeAll+0x100>)
  401ede:	681b      	ldr	r3, [r3, #0]
  401ee0:	b1db      	cbz	r3, 401f1a <xTaskResumeAll+0xc2>
  401ee2:	4b1d      	ldr	r3, [pc, #116]	; (401f58 <xTaskResumeAll+0x100>)
  401ee4:	681b      	ldr	r3, [r3, #0]
  401ee6:	b1c3      	cbz	r3, 401f1a <xTaskResumeAll+0xc2>
  401ee8:	4e1c      	ldr	r6, [pc, #112]	; (401f5c <xTaskResumeAll+0x104>)
  401eea:	4d1d      	ldr	r5, [pc, #116]	; (401f60 <xTaskResumeAll+0x108>)
  401eec:	4c1a      	ldr	r4, [pc, #104]	; (401f58 <xTaskResumeAll+0x100>)
  401eee:	e00e      	b.n	401f0e <xTaskResumeAll+0xb6>
  401ef0:	2201      	movs	r2, #1
  401ef2:	4b1b      	ldr	r3, [pc, #108]	; (401f60 <xTaskResumeAll+0x108>)
  401ef4:	601a      	str	r2, [r3, #0]
  401ef6:	e7ee      	b.n	401ed6 <xTaskResumeAll+0x7e>
  401ef8:	4f1a      	ldr	r7, [pc, #104]	; (401f64 <xTaskResumeAll+0x10c>)
  401efa:	4e1b      	ldr	r6, [pc, #108]	; (401f68 <xTaskResumeAll+0x110>)
  401efc:	4d1b      	ldr	r5, [pc, #108]	; (401f6c <xTaskResumeAll+0x114>)
  401efe:	f8df 9074 	ldr.w	r9, [pc, #116]	; 401f74 <xTaskResumeAll+0x11c>
  401f02:	e7e8      	b.n	401ed6 <xTaskResumeAll+0x7e>
  401f04:	6823      	ldr	r3, [r4, #0]
  401f06:	3b01      	subs	r3, #1
  401f08:	6023      	str	r3, [r4, #0]
  401f0a:	6823      	ldr	r3, [r4, #0]
  401f0c:	b12b      	cbz	r3, 401f1a <xTaskResumeAll+0xc2>
  401f0e:	47b0      	blx	r6
  401f10:	2800      	cmp	r0, #0
  401f12:	d0f7      	beq.n	401f04 <xTaskResumeAll+0xac>
  401f14:	2301      	movs	r3, #1
  401f16:	602b      	str	r3, [r5, #0]
  401f18:	e7f4      	b.n	401f04 <xTaskResumeAll+0xac>
  401f1a:	4b11      	ldr	r3, [pc, #68]	; (401f60 <xTaskResumeAll+0x108>)
  401f1c:	681b      	ldr	r3, [r3, #0]
  401f1e:	2b01      	cmp	r3, #1
  401f20:	d10b      	bne.n	401f3a <xTaskResumeAll+0xe2>
  401f22:	f04f 5280 	mov.w	r2, #268435456	; 0x10000000
  401f26:	4b12      	ldr	r3, [pc, #72]	; (401f70 <xTaskResumeAll+0x118>)
  401f28:	601a      	str	r2, [r3, #0]
  401f2a:	f3bf 8f4f 	dsb	sy
  401f2e:	f3bf 8f6f 	isb	sy
  401f32:	2401      	movs	r4, #1
  401f34:	e7ae      	b.n	401e94 <xTaskResumeAll+0x3c>
  401f36:	2400      	movs	r4, #0
  401f38:	e7ac      	b.n	401e94 <xTaskResumeAll+0x3c>
  401f3a:	2400      	movs	r4, #0
  401f3c:	e7aa      	b.n	401e94 <xTaskResumeAll+0x3c>
  401f3e:	bf00      	nop
  401f40:	20400ae0 	.word	0x20400ae0
  401f44:	00400df1 	.word	0x00400df1
  401f48:	20400ad8 	.word	0x20400ad8
  401f4c:	00400e3d 	.word	0x00400e3d
  401f50:	00400cc1 	.word	0x00400cc1
  401f54:	20400a68 	.word	0x20400a68
  401f58:	20400adc 	.word	0x20400adc
  401f5c:	00401d0d 	.word	0x00401d0d
  401f60:	20400b64 	.word	0x20400b64
  401f64:	20400b20 	.word	0x20400b20
  401f68:	00400d0d 	.word	0x00400d0d
  401f6c:	20400aec 	.word	0x20400aec
  401f70:	e000ed04 	.word	0xe000ed04
  401f74:	20400a74 	.word	0x20400a74

00401f78 <vTaskDelay>:
  401f78:	b510      	push	{r4, lr}
  401f7a:	2800      	cmp	r0, #0
  401f7c:	d029      	beq.n	401fd2 <vTaskDelay+0x5a>
  401f7e:	4604      	mov	r4, r0
  401f80:	4b18      	ldr	r3, [pc, #96]	; (401fe4 <vTaskDelay+0x6c>)
  401f82:	681b      	ldr	r3, [r3, #0]
  401f84:	b153      	cbz	r3, 401f9c <vTaskDelay+0x24>
  401f86:	f04f 0380 	mov.w	r3, #128	; 0x80
  401f8a:	b672      	cpsid	i
  401f8c:	f383 8811 	msr	BASEPRI, r3
  401f90:	f3bf 8f6f 	isb	sy
  401f94:	f3bf 8f4f 	dsb	sy
  401f98:	b662      	cpsie	i
  401f9a:	e7fe      	b.n	401f9a <vTaskDelay+0x22>
  401f9c:	4b12      	ldr	r3, [pc, #72]	; (401fe8 <vTaskDelay+0x70>)
  401f9e:	4798      	blx	r3
  401fa0:	4b12      	ldr	r3, [pc, #72]	; (401fec <vTaskDelay+0x74>)
  401fa2:	681b      	ldr	r3, [r3, #0]
  401fa4:	441c      	add	r4, r3
  401fa6:	4b12      	ldr	r3, [pc, #72]	; (401ff0 <vTaskDelay+0x78>)
  401fa8:	6818      	ldr	r0, [r3, #0]
  401faa:	3004      	adds	r0, #4
  401fac:	4b11      	ldr	r3, [pc, #68]	; (401ff4 <vTaskDelay+0x7c>)
  401fae:	4798      	blx	r3
  401fb0:	b948      	cbnz	r0, 401fc6 <vTaskDelay+0x4e>
  401fb2:	4b0f      	ldr	r3, [pc, #60]	; (401ff0 <vTaskDelay+0x78>)
  401fb4:	681a      	ldr	r2, [r3, #0]
  401fb6:	4910      	ldr	r1, [pc, #64]	; (401ff8 <vTaskDelay+0x80>)
  401fb8:	680b      	ldr	r3, [r1, #0]
  401fba:	6ad0      	ldr	r0, [r2, #44]	; 0x2c
  401fbc:	2201      	movs	r2, #1
  401fbe:	4082      	lsls	r2, r0
  401fc0:	ea23 0302 	bic.w	r3, r3, r2
  401fc4:	600b      	str	r3, [r1, #0]
  401fc6:	4620      	mov	r0, r4
  401fc8:	4b0c      	ldr	r3, [pc, #48]	; (401ffc <vTaskDelay+0x84>)
  401fca:	4798      	blx	r3
  401fcc:	4b0c      	ldr	r3, [pc, #48]	; (402000 <vTaskDelay+0x88>)
  401fce:	4798      	blx	r3
  401fd0:	b938      	cbnz	r0, 401fe2 <vTaskDelay+0x6a>
  401fd2:	f04f 5280 	mov.w	r2, #268435456	; 0x10000000
  401fd6:	4b0b      	ldr	r3, [pc, #44]	; (402004 <vTaskDelay+0x8c>)
  401fd8:	601a      	str	r2, [r3, #0]
  401fda:	f3bf 8f4f 	dsb	sy
  401fde:	f3bf 8f6f 	isb	sy
  401fe2:	bd10      	pop	{r4, pc}
  401fe4:	20400ae0 	.word	0x20400ae0
  401fe8:	00401cf1 	.word	0x00401cf1
  401fec:	20400b60 	.word	0x20400b60
  401ff0:	20400a68 	.word	0x20400a68
  401ff4:	00400d0d 	.word	0x00400d0d
  401ff8:	20400aec 	.word	0x20400aec
  401ffc:	004019d9 	.word	0x004019d9
  402000:	00401e59 	.word	0x00401e59
  402004:	e000ed04 	.word	0xe000ed04

00402008 <prvIdleTask>:
  402008:	b580      	push	{r7, lr}
  40200a:	f8df 8088 	ldr.w	r8, [pc, #136]	; 402094 <prvIdleTask+0x8c>
  40200e:	4e19      	ldr	r6, [pc, #100]	; (402074 <prvIdleTask+0x6c>)
  402010:	f8df 9084 	ldr.w	r9, [pc, #132]	; 402098 <prvIdleTask+0x90>
  402014:	e02a      	b.n	40206c <prvIdleTask+0x64>
  402016:	4b18      	ldr	r3, [pc, #96]	; (402078 <prvIdleTask+0x70>)
  402018:	681b      	ldr	r3, [r3, #0]
  40201a:	2b01      	cmp	r3, #1
  40201c:	d81e      	bhi.n	40205c <prvIdleTask+0x54>
  40201e:	682b      	ldr	r3, [r5, #0]
  402020:	2b00      	cmp	r3, #0
  402022:	d0f8      	beq.n	402016 <prvIdleTask+0xe>
  402024:	47c0      	blx	r8
  402026:	6834      	ldr	r4, [r6, #0]
  402028:	47b8      	blx	r7
  40202a:	2c00      	cmp	r4, #0
  40202c:	d0f7      	beq.n	40201e <prvIdleTask+0x16>
  40202e:	4b13      	ldr	r3, [pc, #76]	; (40207c <prvIdleTask+0x74>)
  402030:	4798      	blx	r3
  402032:	68f3      	ldr	r3, [r6, #12]
  402034:	68dc      	ldr	r4, [r3, #12]
  402036:	1d20      	adds	r0, r4, #4
  402038:	4b11      	ldr	r3, [pc, #68]	; (402080 <prvIdleTask+0x78>)
  40203a:	4798      	blx	r3
  40203c:	4a11      	ldr	r2, [pc, #68]	; (402084 <prvIdleTask+0x7c>)
  40203e:	6813      	ldr	r3, [r2, #0]
  402040:	3b01      	subs	r3, #1
  402042:	6013      	str	r3, [r2, #0]
  402044:	682b      	ldr	r3, [r5, #0]
  402046:	3b01      	subs	r3, #1
  402048:	602b      	str	r3, [r5, #0]
  40204a:	4b0f      	ldr	r3, [pc, #60]	; (402088 <prvIdleTask+0x80>)
  40204c:	4798      	blx	r3
  40204e:	6b20      	ldr	r0, [r4, #48]	; 0x30
  402050:	f8df a048 	ldr.w	sl, [pc, #72]	; 40209c <prvIdleTask+0x94>
  402054:	47d0      	blx	sl
  402056:	4620      	mov	r0, r4
  402058:	47d0      	blx	sl
  40205a:	e7e0      	b.n	40201e <prvIdleTask+0x16>
  40205c:	f04f 5380 	mov.w	r3, #268435456	; 0x10000000
  402060:	f8c9 3000 	str.w	r3, [r9]
  402064:	f3bf 8f4f 	dsb	sy
  402068:	f3bf 8f6f 	isb	sy
  40206c:	4d07      	ldr	r5, [pc, #28]	; (40208c <prvIdleTask+0x84>)
  40206e:	4f08      	ldr	r7, [pc, #32]	; (402090 <prvIdleTask+0x88>)
  402070:	e7d5      	b.n	40201e <prvIdleTask+0x16>
  402072:	bf00      	nop
  402074:	20400b4c 	.word	0x20400b4c
  402078:	20400a74 	.word	0x20400a74
  40207c:	00400df1 	.word	0x00400df1
  402080:	00400d0d 	.word	0x00400d0d
  402084:	20400ad8 	.word	0x20400ad8
  402088:	00400e3d 	.word	0x00400e3d
  40208c:	20400ae8 	.word	0x20400ae8
  402090:	00401e59 	.word	0x00401e59
  402094:	00401cf1 	.word	0x00401cf1
  402098:	e000ed04 	.word	0xe000ed04
  40209c:	0040107d 	.word	0x0040107d

004020a0 <vTaskSwitchContext>:
  4020a0:	4b2d      	ldr	r3, [pc, #180]	; (402158 <vTaskSwitchContext+0xb8>)
  4020a2:	681b      	ldr	r3, [r3, #0]
  4020a4:	2b00      	cmp	r3, #0
  4020a6:	d12c      	bne.n	402102 <vTaskSwitchContext+0x62>
  4020a8:	b510      	push	{r4, lr}
  4020aa:	2200      	movs	r2, #0
  4020ac:	4b2b      	ldr	r3, [pc, #172]	; (40215c <vTaskSwitchContext+0xbc>)
  4020ae:	601a      	str	r2, [r3, #0]
  4020b0:	4b2b      	ldr	r3, [pc, #172]	; (402160 <vTaskSwitchContext+0xc0>)
  4020b2:	681b      	ldr	r3, [r3, #0]
  4020b4:	6b1b      	ldr	r3, [r3, #48]	; 0x30
  4020b6:	681a      	ldr	r2, [r3, #0]
  4020b8:	f1b2 3fa5 	cmp.w	r2, #2779096485	; 0xa5a5a5a5
  4020bc:	d103      	bne.n	4020c6 <vTaskSwitchContext+0x26>
  4020be:	685a      	ldr	r2, [r3, #4]
  4020c0:	f1b2 3fa5 	cmp.w	r2, #2779096485	; 0xa5a5a5a5
  4020c4:	d021      	beq.n	40210a <vTaskSwitchContext+0x6a>
  4020c6:	4b26      	ldr	r3, [pc, #152]	; (402160 <vTaskSwitchContext+0xc0>)
  4020c8:	6818      	ldr	r0, [r3, #0]
  4020ca:	6819      	ldr	r1, [r3, #0]
  4020cc:	3134      	adds	r1, #52	; 0x34
  4020ce:	4b25      	ldr	r3, [pc, #148]	; (402164 <vTaskSwitchContext+0xc4>)
  4020d0:	4798      	blx	r3
  4020d2:	4b25      	ldr	r3, [pc, #148]	; (402168 <vTaskSwitchContext+0xc8>)
  4020d4:	681b      	ldr	r3, [r3, #0]
  4020d6:	fab3 f383 	clz	r3, r3
  4020da:	b2db      	uxtb	r3, r3
  4020dc:	f1c3 031f 	rsb	r3, r3, #31
  4020e0:	eb03 0183 	add.w	r1, r3, r3, lsl #2
  4020e4:	4a21      	ldr	r2, [pc, #132]	; (40216c <vTaskSwitchContext+0xcc>)
  4020e6:	f852 2021 	ldr.w	r2, [r2, r1, lsl #2]
  4020ea:	b9ba      	cbnz	r2, 40211c <vTaskSwitchContext+0x7c>
  4020ec:	f04f 0380 	mov.w	r3, #128	; 0x80
  4020f0:	b672      	cpsid	i
  4020f2:	f383 8811 	msr	BASEPRI, r3
  4020f6:	f3bf 8f6f 	isb	sy
  4020fa:	f3bf 8f4f 	dsb	sy
  4020fe:	b662      	cpsie	i
  402100:	e7fe      	b.n	402100 <vTaskSwitchContext+0x60>
  402102:	2201      	movs	r2, #1
  402104:	4b15      	ldr	r3, [pc, #84]	; (40215c <vTaskSwitchContext+0xbc>)
  402106:	601a      	str	r2, [r3, #0]
  402108:	4770      	bx	lr
  40210a:	689a      	ldr	r2, [r3, #8]
  40210c:	f1b2 3fa5 	cmp.w	r2, #2779096485	; 0xa5a5a5a5
  402110:	d1d9      	bne.n	4020c6 <vTaskSwitchContext+0x26>
  402112:	68db      	ldr	r3, [r3, #12]
  402114:	f1b3 3fa5 	cmp.w	r3, #2779096485	; 0xa5a5a5a5
  402118:	d1d5      	bne.n	4020c6 <vTaskSwitchContext+0x26>
  40211a:	e7da      	b.n	4020d2 <vTaskSwitchContext+0x32>
  40211c:	4a13      	ldr	r2, [pc, #76]	; (40216c <vTaskSwitchContext+0xcc>)
  40211e:	0099      	lsls	r1, r3, #2
  402120:	18c8      	adds	r0, r1, r3
  402122:	eb02 0080 	add.w	r0, r2, r0, lsl #2
  402126:	6844      	ldr	r4, [r0, #4]
  402128:	6864      	ldr	r4, [r4, #4]
  40212a:	6044      	str	r4, [r0, #4]
  40212c:	4419      	add	r1, r3
  40212e:	4602      	mov	r2, r0
  402130:	3208      	adds	r2, #8
  402132:	4294      	cmp	r4, r2
  402134:	d009      	beq.n	40214a <vTaskSwitchContext+0xaa>
  402136:	eb03 0383 	add.w	r3, r3, r3, lsl #2
  40213a:	4a0c      	ldr	r2, [pc, #48]	; (40216c <vTaskSwitchContext+0xcc>)
  40213c:	eb02 0383 	add.w	r3, r2, r3, lsl #2
  402140:	685b      	ldr	r3, [r3, #4]
  402142:	68da      	ldr	r2, [r3, #12]
  402144:	4b06      	ldr	r3, [pc, #24]	; (402160 <vTaskSwitchContext+0xc0>)
  402146:	601a      	str	r2, [r3, #0]
  402148:	bd10      	pop	{r4, pc}
  40214a:	6860      	ldr	r0, [r4, #4]
  40214c:	4a07      	ldr	r2, [pc, #28]	; (40216c <vTaskSwitchContext+0xcc>)
  40214e:	eb02 0281 	add.w	r2, r2, r1, lsl #2
  402152:	6050      	str	r0, [r2, #4]
  402154:	e7ef      	b.n	402136 <vTaskSwitchContext+0x96>
  402156:	bf00      	nop
  402158:	20400ae0 	.word	0x20400ae0
  40215c:	20400b64 	.word	0x20400b64
  402160:	20400a68 	.word	0x20400a68
  402164:	00402e55 	.word	0x00402e55
  402168:	20400aec 	.word	0x20400aec
  40216c:	20400a74 	.word	0x20400a74

00402170 <vTaskPlaceOnEventList>:
  402170:	b538      	push	{r3, r4, r5, lr}
  402172:	b1e0      	cbz	r0, 4021ae <vTaskPlaceOnEventList+0x3e>
  402174:	460c      	mov	r4, r1
  402176:	4d17      	ldr	r5, [pc, #92]	; (4021d4 <vTaskPlaceOnEventList+0x64>)
  402178:	6829      	ldr	r1, [r5, #0]
  40217a:	3118      	adds	r1, #24
  40217c:	4b16      	ldr	r3, [pc, #88]	; (4021d8 <vTaskPlaceOnEventList+0x68>)
  40217e:	4798      	blx	r3
  402180:	6828      	ldr	r0, [r5, #0]
  402182:	3004      	adds	r0, #4
  402184:	4b15      	ldr	r3, [pc, #84]	; (4021dc <vTaskPlaceOnEventList+0x6c>)
  402186:	4798      	blx	r3
  402188:	b940      	cbnz	r0, 40219c <vTaskPlaceOnEventList+0x2c>
  40218a:	682a      	ldr	r2, [r5, #0]
  40218c:	4914      	ldr	r1, [pc, #80]	; (4021e0 <vTaskPlaceOnEventList+0x70>)
  40218e:	680b      	ldr	r3, [r1, #0]
  402190:	6ad0      	ldr	r0, [r2, #44]	; 0x2c
  402192:	2201      	movs	r2, #1
  402194:	4082      	lsls	r2, r0
  402196:	ea23 0302 	bic.w	r3, r3, r2
  40219a:	600b      	str	r3, [r1, #0]
  40219c:	f1b4 3fff 	cmp.w	r4, #4294967295
  4021a0:	d010      	beq.n	4021c4 <vTaskPlaceOnEventList+0x54>
  4021a2:	4b10      	ldr	r3, [pc, #64]	; (4021e4 <vTaskPlaceOnEventList+0x74>)
  4021a4:	6818      	ldr	r0, [r3, #0]
  4021a6:	4420      	add	r0, r4
  4021a8:	4b0f      	ldr	r3, [pc, #60]	; (4021e8 <vTaskPlaceOnEventList+0x78>)
  4021aa:	4798      	blx	r3
  4021ac:	bd38      	pop	{r3, r4, r5, pc}
  4021ae:	f04f 0380 	mov.w	r3, #128	; 0x80
  4021b2:	b672      	cpsid	i
  4021b4:	f383 8811 	msr	BASEPRI, r3
  4021b8:	f3bf 8f6f 	isb	sy
  4021bc:	f3bf 8f4f 	dsb	sy
  4021c0:	b662      	cpsie	i
  4021c2:	e7fe      	b.n	4021c2 <vTaskPlaceOnEventList+0x52>
  4021c4:	4b03      	ldr	r3, [pc, #12]	; (4021d4 <vTaskPlaceOnEventList+0x64>)
  4021c6:	6819      	ldr	r1, [r3, #0]
  4021c8:	3104      	adds	r1, #4
  4021ca:	4808      	ldr	r0, [pc, #32]	; (4021ec <vTaskPlaceOnEventList+0x7c>)
  4021cc:	4b08      	ldr	r3, [pc, #32]	; (4021f0 <vTaskPlaceOnEventList+0x80>)
  4021ce:	4798      	blx	r3
  4021d0:	bd38      	pop	{r3, r4, r5, pc}
  4021d2:	bf00      	nop
  4021d4:	20400a68 	.word	0x20400a68
  4021d8:	00400cd9 	.word	0x00400cd9
  4021dc:	00400d0d 	.word	0x00400d0d
  4021e0:	20400aec 	.word	0x20400aec
  4021e4:	20400b60 	.word	0x20400b60
  4021e8:	004019d9 	.word	0x004019d9
  4021ec:	20400b38 	.word	0x20400b38
  4021f0:	00400cc1 	.word	0x00400cc1

004021f4 <vTaskPlaceOnEventListRestricted>:
  4021f4:	b1e8      	cbz	r0, 402232 <vTaskPlaceOnEventListRestricted+0x3e>
  4021f6:	b570      	push	{r4, r5, r6, lr}
  4021f8:	4615      	mov	r5, r2
  4021fa:	460c      	mov	r4, r1
  4021fc:	4e16      	ldr	r6, [pc, #88]	; (402258 <vTaskPlaceOnEventListRestricted+0x64>)
  4021fe:	6831      	ldr	r1, [r6, #0]
  402200:	3118      	adds	r1, #24
  402202:	4b16      	ldr	r3, [pc, #88]	; (40225c <vTaskPlaceOnEventListRestricted+0x68>)
  402204:	4798      	blx	r3
  402206:	6830      	ldr	r0, [r6, #0]
  402208:	3004      	adds	r0, #4
  40220a:	4b15      	ldr	r3, [pc, #84]	; (402260 <vTaskPlaceOnEventListRestricted+0x6c>)
  40220c:	4798      	blx	r3
  40220e:	b940      	cbnz	r0, 402222 <vTaskPlaceOnEventListRestricted+0x2e>
  402210:	6832      	ldr	r2, [r6, #0]
  402212:	4914      	ldr	r1, [pc, #80]	; (402264 <vTaskPlaceOnEventListRestricted+0x70>)
  402214:	680b      	ldr	r3, [r1, #0]
  402216:	6ad0      	ldr	r0, [r2, #44]	; 0x2c
  402218:	2201      	movs	r2, #1
  40221a:	4082      	lsls	r2, r0
  40221c:	ea23 0302 	bic.w	r3, r3, r2
  402220:	600b      	str	r3, [r1, #0]
  402222:	2d01      	cmp	r5, #1
  402224:	d010      	beq.n	402248 <vTaskPlaceOnEventListRestricted+0x54>
  402226:	4b10      	ldr	r3, [pc, #64]	; (402268 <vTaskPlaceOnEventListRestricted+0x74>)
  402228:	6818      	ldr	r0, [r3, #0]
  40222a:	4420      	add	r0, r4
  40222c:	4b0f      	ldr	r3, [pc, #60]	; (40226c <vTaskPlaceOnEventListRestricted+0x78>)
  40222e:	4798      	blx	r3
  402230:	bd70      	pop	{r4, r5, r6, pc}
  402232:	f04f 0380 	mov.w	r3, #128	; 0x80
  402236:	b672      	cpsid	i
  402238:	f383 8811 	msr	BASEPRI, r3
  40223c:	f3bf 8f6f 	isb	sy
  402240:	f3bf 8f4f 	dsb	sy
  402244:	b662      	cpsie	i
  402246:	e7fe      	b.n	402246 <vTaskPlaceOnEventListRestricted+0x52>
  402248:	4b03      	ldr	r3, [pc, #12]	; (402258 <vTaskPlaceOnEventListRestricted+0x64>)
  40224a:	6819      	ldr	r1, [r3, #0]
  40224c:	3104      	adds	r1, #4
  40224e:	4808      	ldr	r0, [pc, #32]	; (402270 <vTaskPlaceOnEventListRestricted+0x7c>)
  402250:	4b02      	ldr	r3, [pc, #8]	; (40225c <vTaskPlaceOnEventListRestricted+0x68>)
  402252:	4798      	blx	r3
  402254:	bd70      	pop	{r4, r5, r6, pc}
  402256:	bf00      	nop
  402258:	20400a68 	.word	0x20400a68
  40225c:	00400cc1 	.word	0x00400cc1
  402260:	00400d0d 	.word	0x00400d0d
  402264:	20400aec 	.word	0x20400aec
  402268:	20400b60 	.word	0x20400b60
  40226c:	004019d9 	.word	0x004019d9
  402270:	20400b38 	.word	0x20400b38

00402274 <xTaskRemoveFromEventList>:
  402274:	b538      	push	{r3, r4, r5, lr}
  402276:	68c3      	ldr	r3, [r0, #12]
  402278:	68dc      	ldr	r4, [r3, #12]
  40227a:	b324      	cbz	r4, 4022c6 <xTaskRemoveFromEventList+0x52>
  40227c:	f104 0518 	add.w	r5, r4, #24
  402280:	4628      	mov	r0, r5
  402282:	4b1a      	ldr	r3, [pc, #104]	; (4022ec <xTaskRemoveFromEventList+0x78>)
  402284:	4798      	blx	r3
  402286:	4b1a      	ldr	r3, [pc, #104]	; (4022f0 <xTaskRemoveFromEventList+0x7c>)
  402288:	681b      	ldr	r3, [r3, #0]
  40228a:	bb3b      	cbnz	r3, 4022dc <xTaskRemoveFromEventList+0x68>
  40228c:	1d25      	adds	r5, r4, #4
  40228e:	4628      	mov	r0, r5
  402290:	4b16      	ldr	r3, [pc, #88]	; (4022ec <xTaskRemoveFromEventList+0x78>)
  402292:	4798      	blx	r3
  402294:	6ae0      	ldr	r0, [r4, #44]	; 0x2c
  402296:	4a17      	ldr	r2, [pc, #92]	; (4022f4 <xTaskRemoveFromEventList+0x80>)
  402298:	6811      	ldr	r1, [r2, #0]
  40229a:	2301      	movs	r3, #1
  40229c:	4083      	lsls	r3, r0
  40229e:	430b      	orrs	r3, r1
  4022a0:	6013      	str	r3, [r2, #0]
  4022a2:	eb00 0080 	add.w	r0, r0, r0, lsl #2
  4022a6:	4629      	mov	r1, r5
  4022a8:	4b13      	ldr	r3, [pc, #76]	; (4022f8 <xTaskRemoveFromEventList+0x84>)
  4022aa:	eb03 0080 	add.w	r0, r3, r0, lsl #2
  4022ae:	4b13      	ldr	r3, [pc, #76]	; (4022fc <xTaskRemoveFromEventList+0x88>)
  4022b0:	4798      	blx	r3
  4022b2:	4b13      	ldr	r3, [pc, #76]	; (402300 <xTaskRemoveFromEventList+0x8c>)
  4022b4:	681b      	ldr	r3, [r3, #0]
  4022b6:	6ae2      	ldr	r2, [r4, #44]	; 0x2c
  4022b8:	6adb      	ldr	r3, [r3, #44]	; 0x2c
  4022ba:	429a      	cmp	r2, r3
  4022bc:	d913      	bls.n	4022e6 <xTaskRemoveFromEventList+0x72>
  4022be:	2001      	movs	r0, #1
  4022c0:	4b10      	ldr	r3, [pc, #64]	; (402304 <xTaskRemoveFromEventList+0x90>)
  4022c2:	6018      	str	r0, [r3, #0]
  4022c4:	bd38      	pop	{r3, r4, r5, pc}
  4022c6:	f04f 0380 	mov.w	r3, #128	; 0x80
  4022ca:	b672      	cpsid	i
  4022cc:	f383 8811 	msr	BASEPRI, r3
  4022d0:	f3bf 8f6f 	isb	sy
  4022d4:	f3bf 8f4f 	dsb	sy
  4022d8:	b662      	cpsie	i
  4022da:	e7fe      	b.n	4022da <xTaskRemoveFromEventList+0x66>
  4022dc:	4629      	mov	r1, r5
  4022de:	480a      	ldr	r0, [pc, #40]	; (402308 <xTaskRemoveFromEventList+0x94>)
  4022e0:	4b06      	ldr	r3, [pc, #24]	; (4022fc <xTaskRemoveFromEventList+0x88>)
  4022e2:	4798      	blx	r3
  4022e4:	e7e5      	b.n	4022b2 <xTaskRemoveFromEventList+0x3e>
  4022e6:	2000      	movs	r0, #0
  4022e8:	bd38      	pop	{r3, r4, r5, pc}
  4022ea:	bf00      	nop
  4022ec:	00400d0d 	.word	0x00400d0d
  4022f0:	20400ae0 	.word	0x20400ae0
  4022f4:	20400aec 	.word	0x20400aec
  4022f8:	20400a74 	.word	0x20400a74
  4022fc:	00400cc1 	.word	0x00400cc1
  402300:	20400a68 	.word	0x20400a68
  402304:	20400b64 	.word	0x20400b64
  402308:	20400b20 	.word	0x20400b20

0040230c <vTaskSetTimeOutState>:
  40230c:	b130      	cbz	r0, 40231c <vTaskSetTimeOutState+0x10>
  40230e:	4a09      	ldr	r2, [pc, #36]	; (402334 <vTaskSetTimeOutState+0x28>)
  402310:	6812      	ldr	r2, [r2, #0]
  402312:	6002      	str	r2, [r0, #0]
  402314:	4a08      	ldr	r2, [pc, #32]	; (402338 <vTaskSetTimeOutState+0x2c>)
  402316:	6812      	ldr	r2, [r2, #0]
  402318:	6042      	str	r2, [r0, #4]
  40231a:	4770      	bx	lr
  40231c:	f04f 0380 	mov.w	r3, #128	; 0x80
  402320:	b672      	cpsid	i
  402322:	f383 8811 	msr	BASEPRI, r3
  402326:	f3bf 8f6f 	isb	sy
  40232a:	f3bf 8f4f 	dsb	sy
  40232e:	b662      	cpsie	i
  402330:	e7fe      	b.n	402330 <vTaskSetTimeOutState+0x24>
  402332:	bf00      	nop
  402334:	20400b1c 	.word	0x20400b1c
  402338:	20400b60 	.word	0x20400b60

0040233c <xTaskCheckForTimeOut>:
  40233c:	b538      	push	{r3, r4, r5, lr}
  40233e:	b1c0      	cbz	r0, 402372 <xTaskCheckForTimeOut+0x36>
  402340:	4604      	mov	r4, r0
  402342:	b309      	cbz	r1, 402388 <xTaskCheckForTimeOut+0x4c>
  402344:	460d      	mov	r5, r1
  402346:	4b1d      	ldr	r3, [pc, #116]	; (4023bc <xTaskCheckForTimeOut+0x80>)
  402348:	4798      	blx	r3
  40234a:	4b1d      	ldr	r3, [pc, #116]	; (4023c0 <xTaskCheckForTimeOut+0x84>)
  40234c:	681a      	ldr	r2, [r3, #0]
  40234e:	682b      	ldr	r3, [r5, #0]
  402350:	f1b3 3fff 	cmp.w	r3, #4294967295
  402354:	d02e      	beq.n	4023b4 <xTaskCheckForTimeOut+0x78>
  402356:	491b      	ldr	r1, [pc, #108]	; (4023c4 <xTaskCheckForTimeOut+0x88>)
  402358:	6809      	ldr	r1, [r1, #0]
  40235a:	6820      	ldr	r0, [r4, #0]
  40235c:	4288      	cmp	r0, r1
  40235e:	d002      	beq.n	402366 <xTaskCheckForTimeOut+0x2a>
  402360:	6861      	ldr	r1, [r4, #4]
  402362:	428a      	cmp	r2, r1
  402364:	d228      	bcs.n	4023b8 <xTaskCheckForTimeOut+0x7c>
  402366:	6861      	ldr	r1, [r4, #4]
  402368:	1a50      	subs	r0, r2, r1
  40236a:	4283      	cmp	r3, r0
  40236c:	d817      	bhi.n	40239e <xTaskCheckForTimeOut+0x62>
  40236e:	2401      	movs	r4, #1
  402370:	e01c      	b.n	4023ac <xTaskCheckForTimeOut+0x70>
  402372:	f04f 0380 	mov.w	r3, #128	; 0x80
  402376:	b672      	cpsid	i
  402378:	f383 8811 	msr	BASEPRI, r3
  40237c:	f3bf 8f6f 	isb	sy
  402380:	f3bf 8f4f 	dsb	sy
  402384:	b662      	cpsie	i
  402386:	e7fe      	b.n	402386 <xTaskCheckForTimeOut+0x4a>
  402388:	f04f 0380 	mov.w	r3, #128	; 0x80
  40238c:	b672      	cpsid	i
  40238e:	f383 8811 	msr	BASEPRI, r3
  402392:	f3bf 8f6f 	isb	sy
  402396:	f3bf 8f4f 	dsb	sy
  40239a:	b662      	cpsie	i
  40239c:	e7fe      	b.n	40239c <xTaskCheckForTimeOut+0x60>
  40239e:	1a9b      	subs	r3, r3, r2
  4023a0:	440b      	add	r3, r1
  4023a2:	602b      	str	r3, [r5, #0]
  4023a4:	4620      	mov	r0, r4
  4023a6:	4b08      	ldr	r3, [pc, #32]	; (4023c8 <xTaskCheckForTimeOut+0x8c>)
  4023a8:	4798      	blx	r3
  4023aa:	2400      	movs	r4, #0
  4023ac:	4b07      	ldr	r3, [pc, #28]	; (4023cc <xTaskCheckForTimeOut+0x90>)
  4023ae:	4798      	blx	r3
  4023b0:	4620      	mov	r0, r4
  4023b2:	bd38      	pop	{r3, r4, r5, pc}
  4023b4:	2400      	movs	r4, #0
  4023b6:	e7f9      	b.n	4023ac <xTaskCheckForTimeOut+0x70>
  4023b8:	2401      	movs	r4, #1
  4023ba:	e7f7      	b.n	4023ac <xTaskCheckForTimeOut+0x70>
  4023bc:	00400df1 	.word	0x00400df1
  4023c0:	20400b60 	.word	0x20400b60
  4023c4:	20400b1c 	.word	0x20400b1c
  4023c8:	0040230d 	.word	0x0040230d
  4023cc:	00400e3d 	.word	0x00400e3d

004023d0 <vTaskMissedYield>:
  4023d0:	2201      	movs	r2, #1
  4023d2:	4b01      	ldr	r3, [pc, #4]	; (4023d8 <vTaskMissedYield+0x8>)
  4023d4:	601a      	str	r2, [r3, #0]
  4023d6:	4770      	bx	lr
  4023d8:	20400b64 	.word	0x20400b64

004023dc <xTaskGetSchedulerState>:
  4023dc:	4b05      	ldr	r3, [pc, #20]	; (4023f4 <xTaskGetSchedulerState+0x18>)
  4023de:	681b      	ldr	r3, [r3, #0]
  4023e0:	b133      	cbz	r3, 4023f0 <xTaskGetSchedulerState+0x14>
  4023e2:	4b05      	ldr	r3, [pc, #20]	; (4023f8 <xTaskGetSchedulerState+0x1c>)
  4023e4:	681b      	ldr	r3, [r3, #0]
  4023e6:	2b00      	cmp	r3, #0
  4023e8:	bf0c      	ite	eq
  4023ea:	2002      	moveq	r0, #2
  4023ec:	2000      	movne	r0, #0
  4023ee:	4770      	bx	lr
  4023f0:	2001      	movs	r0, #1
  4023f2:	4770      	bx	lr
  4023f4:	20400b34 	.word	0x20400b34
  4023f8:	20400ae0 	.word	0x20400ae0

004023fc <vTaskPriorityInherit>:
  4023fc:	2800      	cmp	r0, #0
  4023fe:	d044      	beq.n	40248a <vTaskPriorityInherit+0x8e>
  402400:	b538      	push	{r3, r4, r5, lr}
  402402:	4604      	mov	r4, r0
  402404:	6ac2      	ldr	r2, [r0, #44]	; 0x2c
  402406:	4921      	ldr	r1, [pc, #132]	; (40248c <vTaskPriorityInherit+0x90>)
  402408:	6809      	ldr	r1, [r1, #0]
  40240a:	6ac9      	ldr	r1, [r1, #44]	; 0x2c
  40240c:	428a      	cmp	r2, r1
  40240e:	d214      	bcs.n	40243a <vTaskPriorityInherit+0x3e>
  402410:	6981      	ldr	r1, [r0, #24]
  402412:	2900      	cmp	r1, #0
  402414:	db05      	blt.n	402422 <vTaskPriorityInherit+0x26>
  402416:	491d      	ldr	r1, [pc, #116]	; (40248c <vTaskPriorityInherit+0x90>)
  402418:	6809      	ldr	r1, [r1, #0]
  40241a:	6ac9      	ldr	r1, [r1, #44]	; 0x2c
  40241c:	f1c1 0105 	rsb	r1, r1, #5
  402420:	6181      	str	r1, [r0, #24]
  402422:	eb02 0282 	add.w	r2, r2, r2, lsl #2
  402426:	491a      	ldr	r1, [pc, #104]	; (402490 <vTaskPriorityInherit+0x94>)
  402428:	eb01 0282 	add.w	r2, r1, r2, lsl #2
  40242c:	6961      	ldr	r1, [r4, #20]
  40242e:	4291      	cmp	r1, r2
  402430:	d004      	beq.n	40243c <vTaskPriorityInherit+0x40>
  402432:	4a16      	ldr	r2, [pc, #88]	; (40248c <vTaskPriorityInherit+0x90>)
  402434:	6812      	ldr	r2, [r2, #0]
  402436:	6ad2      	ldr	r2, [r2, #44]	; 0x2c
  402438:	62e2      	str	r2, [r4, #44]	; 0x2c
  40243a:	bd38      	pop	{r3, r4, r5, pc}
  40243c:	1d25      	adds	r5, r4, #4
  40243e:	4628      	mov	r0, r5
  402440:	4b14      	ldr	r3, [pc, #80]	; (402494 <vTaskPriorityInherit+0x98>)
  402442:	4798      	blx	r3
  402444:	b970      	cbnz	r0, 402464 <vTaskPriorityInherit+0x68>
  402446:	6ae3      	ldr	r3, [r4, #44]	; 0x2c
  402448:	eb03 0183 	add.w	r1, r3, r3, lsl #2
  40244c:	4a10      	ldr	r2, [pc, #64]	; (402490 <vTaskPriorityInherit+0x94>)
  40244e:	f852 2021 	ldr.w	r2, [r2, r1, lsl #2]
  402452:	b93a      	cbnz	r2, 402464 <vTaskPriorityInherit+0x68>
  402454:	4810      	ldr	r0, [pc, #64]	; (402498 <vTaskPriorityInherit+0x9c>)
  402456:	6802      	ldr	r2, [r0, #0]
  402458:	2101      	movs	r1, #1
  40245a:	fa01 f303 	lsl.w	r3, r1, r3
  40245e:	ea22 0303 	bic.w	r3, r2, r3
  402462:	6003      	str	r3, [r0, #0]
  402464:	4b09      	ldr	r3, [pc, #36]	; (40248c <vTaskPriorityInherit+0x90>)
  402466:	681b      	ldr	r3, [r3, #0]
  402468:	6ad8      	ldr	r0, [r3, #44]	; 0x2c
  40246a:	62e0      	str	r0, [r4, #44]	; 0x2c
  40246c:	4a0a      	ldr	r2, [pc, #40]	; (402498 <vTaskPriorityInherit+0x9c>)
  40246e:	6811      	ldr	r1, [r2, #0]
  402470:	2301      	movs	r3, #1
  402472:	4083      	lsls	r3, r0
  402474:	430b      	orrs	r3, r1
  402476:	6013      	str	r3, [r2, #0]
  402478:	eb00 0080 	add.w	r0, r0, r0, lsl #2
  40247c:	4629      	mov	r1, r5
  40247e:	4b04      	ldr	r3, [pc, #16]	; (402490 <vTaskPriorityInherit+0x94>)
  402480:	eb03 0080 	add.w	r0, r3, r0, lsl #2
  402484:	4b05      	ldr	r3, [pc, #20]	; (40249c <vTaskPriorityInherit+0xa0>)
  402486:	4798      	blx	r3
  402488:	bd38      	pop	{r3, r4, r5, pc}
  40248a:	4770      	bx	lr
  40248c:	20400a68 	.word	0x20400a68
  402490:	20400a74 	.word	0x20400a74
  402494:	00400d0d 	.word	0x00400d0d
  402498:	20400aec 	.word	0x20400aec
  40249c:	00400cc1 	.word	0x00400cc1

004024a0 <xTaskPriorityDisinherit>:
  4024a0:	2800      	cmp	r0, #0
  4024a2:	d04d      	beq.n	402540 <xTaskPriorityDisinherit+0xa0>
  4024a4:	b538      	push	{r3, r4, r5, lr}
  4024a6:	4604      	mov	r4, r0
  4024a8:	4a27      	ldr	r2, [pc, #156]	; (402548 <xTaskPriorityDisinherit+0xa8>)
  4024aa:	6812      	ldr	r2, [r2, #0]
  4024ac:	4290      	cmp	r0, r2
  4024ae:	d00a      	beq.n	4024c6 <xTaskPriorityDisinherit+0x26>
  4024b0:	f04f 0380 	mov.w	r3, #128	; 0x80
  4024b4:	b672      	cpsid	i
  4024b6:	f383 8811 	msr	BASEPRI, r3
  4024ba:	f3bf 8f6f 	isb	sy
  4024be:	f3bf 8f4f 	dsb	sy
  4024c2:	b662      	cpsie	i
  4024c4:	e7fe      	b.n	4024c4 <xTaskPriorityDisinherit+0x24>
  4024c6:	6cc2      	ldr	r2, [r0, #76]	; 0x4c
  4024c8:	b952      	cbnz	r2, 4024e0 <xTaskPriorityDisinherit+0x40>
  4024ca:	f04f 0380 	mov.w	r3, #128	; 0x80
  4024ce:	b672      	cpsid	i
  4024d0:	f383 8811 	msr	BASEPRI, r3
  4024d4:	f3bf 8f6f 	isb	sy
  4024d8:	f3bf 8f4f 	dsb	sy
  4024dc:	b662      	cpsie	i
  4024de:	e7fe      	b.n	4024de <xTaskPriorityDisinherit+0x3e>
  4024e0:	3a01      	subs	r2, #1
  4024e2:	64c2      	str	r2, [r0, #76]	; 0x4c
  4024e4:	6ac0      	ldr	r0, [r0, #44]	; 0x2c
  4024e6:	6ca1      	ldr	r1, [r4, #72]	; 0x48
  4024e8:	4288      	cmp	r0, r1
  4024ea:	d02b      	beq.n	402544 <xTaskPriorityDisinherit+0xa4>
  4024ec:	bb52      	cbnz	r2, 402544 <xTaskPriorityDisinherit+0xa4>
  4024ee:	1d25      	adds	r5, r4, #4
  4024f0:	4628      	mov	r0, r5
  4024f2:	4b16      	ldr	r3, [pc, #88]	; (40254c <xTaskPriorityDisinherit+0xac>)
  4024f4:	4798      	blx	r3
  4024f6:	b968      	cbnz	r0, 402514 <xTaskPriorityDisinherit+0x74>
  4024f8:	6ae1      	ldr	r1, [r4, #44]	; 0x2c
  4024fa:	eb01 0281 	add.w	r2, r1, r1, lsl #2
  4024fe:	4b14      	ldr	r3, [pc, #80]	; (402550 <xTaskPriorityDisinherit+0xb0>)
  402500:	f853 3022 	ldr.w	r3, [r3, r2, lsl #2]
  402504:	b933      	cbnz	r3, 402514 <xTaskPriorityDisinherit+0x74>
  402506:	4813      	ldr	r0, [pc, #76]	; (402554 <xTaskPriorityDisinherit+0xb4>)
  402508:	6803      	ldr	r3, [r0, #0]
  40250a:	2201      	movs	r2, #1
  40250c:	408a      	lsls	r2, r1
  40250e:	ea23 0302 	bic.w	r3, r3, r2
  402512:	6003      	str	r3, [r0, #0]
  402514:	6ca0      	ldr	r0, [r4, #72]	; 0x48
  402516:	62e0      	str	r0, [r4, #44]	; 0x2c
  402518:	f1c0 0305 	rsb	r3, r0, #5
  40251c:	61a3      	str	r3, [r4, #24]
  40251e:	4a0d      	ldr	r2, [pc, #52]	; (402554 <xTaskPriorityDisinherit+0xb4>)
  402520:	6811      	ldr	r1, [r2, #0]
  402522:	2401      	movs	r4, #1
  402524:	fa04 f300 	lsl.w	r3, r4, r0
  402528:	430b      	orrs	r3, r1
  40252a:	6013      	str	r3, [r2, #0]
  40252c:	eb00 0080 	add.w	r0, r0, r0, lsl #2
  402530:	4629      	mov	r1, r5
  402532:	4b07      	ldr	r3, [pc, #28]	; (402550 <xTaskPriorityDisinherit+0xb0>)
  402534:	eb03 0080 	add.w	r0, r3, r0, lsl #2
  402538:	4b07      	ldr	r3, [pc, #28]	; (402558 <xTaskPriorityDisinherit+0xb8>)
  40253a:	4798      	blx	r3
  40253c:	4620      	mov	r0, r4
  40253e:	bd38      	pop	{r3, r4, r5, pc}
  402540:	2000      	movs	r0, #0
  402542:	4770      	bx	lr
  402544:	2000      	movs	r0, #0
  402546:	bd38      	pop	{r3, r4, r5, pc}
  402548:	20400a68 	.word	0x20400a68
  40254c:	00400d0d 	.word	0x00400d0d
  402550:	20400a74 	.word	0x20400a74
  402554:	20400aec 	.word	0x20400aec
  402558:	00400cc1 	.word	0x00400cc1

0040255c <pvTaskIncrementMutexHeldCount>:
  40255c:	4b05      	ldr	r3, [pc, #20]	; (402574 <pvTaskIncrementMutexHeldCount+0x18>)
  40255e:	681b      	ldr	r3, [r3, #0]
  402560:	b123      	cbz	r3, 40256c <pvTaskIncrementMutexHeldCount+0x10>
  402562:	4b04      	ldr	r3, [pc, #16]	; (402574 <pvTaskIncrementMutexHeldCount+0x18>)
  402564:	681a      	ldr	r2, [r3, #0]
  402566:	6cd3      	ldr	r3, [r2, #76]	; 0x4c
  402568:	3301      	adds	r3, #1
  40256a:	64d3      	str	r3, [r2, #76]	; 0x4c
  40256c:	4b01      	ldr	r3, [pc, #4]	; (402574 <pvTaskIncrementMutexHeldCount+0x18>)
  40256e:	6818      	ldr	r0, [r3, #0]
  402570:	4770      	bx	lr
  402572:	bf00      	nop
  402574:	20400a68 	.word	0x20400a68

00402578 <prvInsertTimerInActiveList>:
  402578:	b508      	push	{r3, lr}
  40257a:	6041      	str	r1, [r0, #4]
  40257c:	6100      	str	r0, [r0, #16]
  40257e:	4291      	cmp	r1, r2
  402580:	d80c      	bhi.n	40259c <prvInsertTimerInActiveList+0x24>
  402582:	1ad2      	subs	r2, r2, r3
  402584:	6983      	ldr	r3, [r0, #24]
  402586:	429a      	cmp	r2, r3
  402588:	d301      	bcc.n	40258e <prvInsertTimerInActiveList+0x16>
  40258a:	2001      	movs	r0, #1
  40258c:	bd08      	pop	{r3, pc}
  40258e:	1d01      	adds	r1, r0, #4
  402590:	4b09      	ldr	r3, [pc, #36]	; (4025b8 <prvInsertTimerInActiveList+0x40>)
  402592:	6818      	ldr	r0, [r3, #0]
  402594:	4b09      	ldr	r3, [pc, #36]	; (4025bc <prvInsertTimerInActiveList+0x44>)
  402596:	4798      	blx	r3
  402598:	2000      	movs	r0, #0
  40259a:	bd08      	pop	{r3, pc}
  40259c:	429a      	cmp	r2, r3
  40259e:	d203      	bcs.n	4025a8 <prvInsertTimerInActiveList+0x30>
  4025a0:	4299      	cmp	r1, r3
  4025a2:	d301      	bcc.n	4025a8 <prvInsertTimerInActiveList+0x30>
  4025a4:	2001      	movs	r0, #1
  4025a6:	bd08      	pop	{r3, pc}
  4025a8:	1d01      	adds	r1, r0, #4
  4025aa:	4b05      	ldr	r3, [pc, #20]	; (4025c0 <prvInsertTimerInActiveList+0x48>)
  4025ac:	6818      	ldr	r0, [r3, #0]
  4025ae:	4b03      	ldr	r3, [pc, #12]	; (4025bc <prvInsertTimerInActiveList+0x44>)
  4025b0:	4798      	blx	r3
  4025b2:	2000      	movs	r0, #0
  4025b4:	bd08      	pop	{r3, pc}
  4025b6:	bf00      	nop
  4025b8:	20400b6c 	.word	0x20400b6c
  4025bc:	00400cd9 	.word	0x00400cd9
  4025c0:	20400b68 	.word	0x20400b68

004025c4 <prvCheckForValidListAndQueue>:
  4025c4:	b570      	push	{r4, r5, r6, lr}
  4025c6:	4b15      	ldr	r3, [pc, #84]	; (40261c <prvCheckForValidListAndQueue+0x58>)
  4025c8:	4798      	blx	r3
  4025ca:	4b15      	ldr	r3, [pc, #84]	; (402620 <prvCheckForValidListAndQueue+0x5c>)
  4025cc:	681b      	ldr	r3, [r3, #0]
  4025ce:	b113      	cbz	r3, 4025d6 <prvCheckForValidListAndQueue+0x12>
  4025d0:	4b14      	ldr	r3, [pc, #80]	; (402624 <prvCheckForValidListAndQueue+0x60>)
  4025d2:	4798      	blx	r3
  4025d4:	bd70      	pop	{r4, r5, r6, pc}
  4025d6:	4d14      	ldr	r5, [pc, #80]	; (402628 <prvCheckForValidListAndQueue+0x64>)
  4025d8:	4628      	mov	r0, r5
  4025da:	4e14      	ldr	r6, [pc, #80]	; (40262c <prvCheckForValidListAndQueue+0x68>)
  4025dc:	47b0      	blx	r6
  4025de:	4c14      	ldr	r4, [pc, #80]	; (402630 <prvCheckForValidListAndQueue+0x6c>)
  4025e0:	4620      	mov	r0, r4
  4025e2:	47b0      	blx	r6
  4025e4:	4b13      	ldr	r3, [pc, #76]	; (402634 <prvCheckForValidListAndQueue+0x70>)
  4025e6:	601d      	str	r5, [r3, #0]
  4025e8:	4b13      	ldr	r3, [pc, #76]	; (402638 <prvCheckForValidListAndQueue+0x74>)
  4025ea:	601c      	str	r4, [r3, #0]
  4025ec:	2200      	movs	r2, #0
  4025ee:	2110      	movs	r1, #16
  4025f0:	2005      	movs	r0, #5
  4025f2:	4b12      	ldr	r3, [pc, #72]	; (40263c <prvCheckForValidListAndQueue+0x78>)
  4025f4:	4798      	blx	r3
  4025f6:	4b0a      	ldr	r3, [pc, #40]	; (402620 <prvCheckForValidListAndQueue+0x5c>)
  4025f8:	6018      	str	r0, [r3, #0]
  4025fa:	b118      	cbz	r0, 402604 <prvCheckForValidListAndQueue+0x40>
  4025fc:	4910      	ldr	r1, [pc, #64]	; (402640 <prvCheckForValidListAndQueue+0x7c>)
  4025fe:	4b11      	ldr	r3, [pc, #68]	; (402644 <prvCheckForValidListAndQueue+0x80>)
  402600:	4798      	blx	r3
  402602:	e7e5      	b.n	4025d0 <prvCheckForValidListAndQueue+0xc>
  402604:	f04f 0380 	mov.w	r3, #128	; 0x80
  402608:	b672      	cpsid	i
  40260a:	f383 8811 	msr	BASEPRI, r3
  40260e:	f3bf 8f6f 	isb	sy
  402612:	f3bf 8f4f 	dsb	sy
  402616:	b662      	cpsie	i
  402618:	e7fe      	b.n	402618 <prvCheckForValidListAndQueue+0x54>
  40261a:	bf00      	nop
  40261c:	00400df1 	.word	0x00400df1
  402620:	20400b9c 	.word	0x20400b9c
  402624:	00400e3d 	.word	0x00400e3d
  402628:	20400b70 	.word	0x20400b70
  40262c:	00400ca5 	.word	0x00400ca5
  402630:	20400b84 	.word	0x20400b84
  402634:	20400b68 	.word	0x20400b68
  402638:	20400b6c 	.word	0x20400b6c
  40263c:	00401311 	.word	0x00401311
  402640:	004060e0 	.word	0x004060e0
  402644:	00401921 	.word	0x00401921

00402648 <xTimerCreateTimerTask>:
  402648:	b510      	push	{r4, lr}
  40264a:	b084      	sub	sp, #16
  40264c:	4b0f      	ldr	r3, [pc, #60]	; (40268c <xTimerCreateTimerTask+0x44>)
  40264e:	4798      	blx	r3
  402650:	4b0f      	ldr	r3, [pc, #60]	; (402690 <xTimerCreateTimerTask+0x48>)
  402652:	681b      	ldr	r3, [r3, #0]
  402654:	b173      	cbz	r3, 402674 <xTimerCreateTimerTask+0x2c>
  402656:	2300      	movs	r3, #0
  402658:	9303      	str	r3, [sp, #12]
  40265a:	9302      	str	r3, [sp, #8]
  40265c:	9301      	str	r3, [sp, #4]
  40265e:	2204      	movs	r2, #4
  402660:	9200      	str	r2, [sp, #0]
  402662:	f44f 7282 	mov.w	r2, #260	; 0x104
  402666:	490b      	ldr	r1, [pc, #44]	; (402694 <xTimerCreateTimerTask+0x4c>)
  402668:	480b      	ldr	r0, [pc, #44]	; (402698 <xTimerCreateTimerTask+0x50>)
  40266a:	4c0c      	ldr	r4, [pc, #48]	; (40269c <xTimerCreateTimerTask+0x54>)
  40266c:	47a0      	blx	r4
  40266e:	b108      	cbz	r0, 402674 <xTimerCreateTimerTask+0x2c>
  402670:	b004      	add	sp, #16
  402672:	bd10      	pop	{r4, pc}
  402674:	f04f 0380 	mov.w	r3, #128	; 0x80
  402678:	b672      	cpsid	i
  40267a:	f383 8811 	msr	BASEPRI, r3
  40267e:	f3bf 8f6f 	isb	sy
  402682:	f3bf 8f4f 	dsb	sy
  402686:	b662      	cpsie	i
  402688:	e7fe      	b.n	402688 <xTimerCreateTimerTask+0x40>
  40268a:	bf00      	nop
  40268c:	004025c5 	.word	0x004025c5
  402690:	20400b9c 	.word	0x20400b9c
  402694:	004060e8 	.word	0x004060e8
  402698:	004027c9 	.word	0x004027c9
  40269c:	00401a31 	.word	0x00401a31

004026a0 <xTimerGenericCommand>:
  4026a0:	b1d8      	cbz	r0, 4026da <xTimerGenericCommand+0x3a>
  4026a2:	b530      	push	{r4, r5, lr}
  4026a4:	b085      	sub	sp, #20
  4026a6:	4615      	mov	r5, r2
  4026a8:	4604      	mov	r4, r0
  4026aa:	4a15      	ldr	r2, [pc, #84]	; (402700 <xTimerGenericCommand+0x60>)
  4026ac:	6810      	ldr	r0, [r2, #0]
  4026ae:	b320      	cbz	r0, 4026fa <xTimerGenericCommand+0x5a>
  4026b0:	461a      	mov	r2, r3
  4026b2:	9100      	str	r1, [sp, #0]
  4026b4:	9501      	str	r5, [sp, #4]
  4026b6:	9402      	str	r4, [sp, #8]
  4026b8:	2905      	cmp	r1, #5
  4026ba:	dc19      	bgt.n	4026f0 <xTimerGenericCommand+0x50>
  4026bc:	4b11      	ldr	r3, [pc, #68]	; (402704 <xTimerGenericCommand+0x64>)
  4026be:	4798      	blx	r3
  4026c0:	2802      	cmp	r0, #2
  4026c2:	f04f 0300 	mov.w	r3, #0
  4026c6:	bf0c      	ite	eq
  4026c8:	9a08      	ldreq	r2, [sp, #32]
  4026ca:	461a      	movne	r2, r3
  4026cc:	4669      	mov	r1, sp
  4026ce:	480c      	ldr	r0, [pc, #48]	; (402700 <xTimerGenericCommand+0x60>)
  4026d0:	6800      	ldr	r0, [r0, #0]
  4026d2:	4c0d      	ldr	r4, [pc, #52]	; (402708 <xTimerGenericCommand+0x68>)
  4026d4:	47a0      	blx	r4
  4026d6:	b005      	add	sp, #20
  4026d8:	bd30      	pop	{r4, r5, pc}
  4026da:	f04f 0380 	mov.w	r3, #128	; 0x80
  4026de:	b672      	cpsid	i
  4026e0:	f383 8811 	msr	BASEPRI, r3
  4026e4:	f3bf 8f6f 	isb	sy
  4026e8:	f3bf 8f4f 	dsb	sy
  4026ec:	b662      	cpsie	i
  4026ee:	e7fe      	b.n	4026ee <xTimerGenericCommand+0x4e>
  4026f0:	2300      	movs	r3, #0
  4026f2:	4669      	mov	r1, sp
  4026f4:	4c05      	ldr	r4, [pc, #20]	; (40270c <xTimerGenericCommand+0x6c>)
  4026f6:	47a0      	blx	r4
  4026f8:	e7ed      	b.n	4026d6 <xTimerGenericCommand+0x36>
  4026fa:	2000      	movs	r0, #0
  4026fc:	e7eb      	b.n	4026d6 <xTimerGenericCommand+0x36>
  4026fe:	bf00      	nop
  402700:	20400b9c 	.word	0x20400b9c
  402704:	004023dd 	.word	0x004023dd
  402708:	0040138d 	.word	0x0040138d
  40270c:	00401571 	.word	0x00401571

00402710 <prvSampleTimeNow>:
  402710:	e92d 47f0 	stmdb	sp!, {r4, r5, r6, r7, r8, r9, sl, lr}
  402714:	b082      	sub	sp, #8
  402716:	4680      	mov	r8, r0
  402718:	4b24      	ldr	r3, [pc, #144]	; (4027ac <prvSampleTimeNow+0x9c>)
  40271a:	4798      	blx	r3
  40271c:	4607      	mov	r7, r0
  40271e:	4b24      	ldr	r3, [pc, #144]	; (4027b0 <prvSampleTimeNow+0xa0>)
  402720:	681b      	ldr	r3, [r3, #0]
  402722:	4298      	cmp	r0, r3
  402724:	d31b      	bcc.n	40275e <prvSampleTimeNow+0x4e>
  402726:	2300      	movs	r3, #0
  402728:	f8c8 3000 	str.w	r3, [r8]
  40272c:	4b20      	ldr	r3, [pc, #128]	; (4027b0 <prvSampleTimeNow+0xa0>)
  40272e:	601f      	str	r7, [r3, #0]
  402730:	4638      	mov	r0, r7
  402732:	b002      	add	sp, #8
  402734:	e8bd 87f0 	ldmia.w	sp!, {r4, r5, r6, r7, r8, r9, sl, pc}
  402738:	2100      	movs	r1, #0
  40273a:	9100      	str	r1, [sp, #0]
  40273c:	460b      	mov	r3, r1
  40273e:	4652      	mov	r2, sl
  402740:	4620      	mov	r0, r4
  402742:	4c1c      	ldr	r4, [pc, #112]	; (4027b4 <prvSampleTimeNow+0xa4>)
  402744:	47a0      	blx	r4
  402746:	b960      	cbnz	r0, 402762 <prvSampleTimeNow+0x52>
  402748:	f04f 0380 	mov.w	r3, #128	; 0x80
  40274c:	b672      	cpsid	i
  40274e:	f383 8811 	msr	BASEPRI, r3
  402752:	f3bf 8f6f 	isb	sy
  402756:	f3bf 8f4f 	dsb	sy
  40275a:	b662      	cpsie	i
  40275c:	e7fe      	b.n	40275c <prvSampleTimeNow+0x4c>
  40275e:	4d16      	ldr	r5, [pc, #88]	; (4027b8 <prvSampleTimeNow+0xa8>)
  402760:	4e16      	ldr	r6, [pc, #88]	; (4027bc <prvSampleTimeNow+0xac>)
  402762:	682b      	ldr	r3, [r5, #0]
  402764:	681a      	ldr	r2, [r3, #0]
  402766:	b1c2      	cbz	r2, 40279a <prvSampleTimeNow+0x8a>
  402768:	68db      	ldr	r3, [r3, #12]
  40276a:	f8d3 a000 	ldr.w	sl, [r3]
  40276e:	68dc      	ldr	r4, [r3, #12]
  402770:	f104 0904 	add.w	r9, r4, #4
  402774:	4648      	mov	r0, r9
  402776:	47b0      	blx	r6
  402778:	6a63      	ldr	r3, [r4, #36]	; 0x24
  40277a:	4620      	mov	r0, r4
  40277c:	4798      	blx	r3
  40277e:	69e3      	ldr	r3, [r4, #28]
  402780:	2b01      	cmp	r3, #1
  402782:	d1ee      	bne.n	402762 <prvSampleTimeNow+0x52>
  402784:	69a3      	ldr	r3, [r4, #24]
  402786:	4453      	add	r3, sl
  402788:	459a      	cmp	sl, r3
  40278a:	d2d5      	bcs.n	402738 <prvSampleTimeNow+0x28>
  40278c:	6063      	str	r3, [r4, #4]
  40278e:	6124      	str	r4, [r4, #16]
  402790:	4649      	mov	r1, r9
  402792:	6828      	ldr	r0, [r5, #0]
  402794:	4b0a      	ldr	r3, [pc, #40]	; (4027c0 <prvSampleTimeNow+0xb0>)
  402796:	4798      	blx	r3
  402798:	e7e3      	b.n	402762 <prvSampleTimeNow+0x52>
  40279a:	4a0a      	ldr	r2, [pc, #40]	; (4027c4 <prvSampleTimeNow+0xb4>)
  40279c:	6810      	ldr	r0, [r2, #0]
  40279e:	4906      	ldr	r1, [pc, #24]	; (4027b8 <prvSampleTimeNow+0xa8>)
  4027a0:	6008      	str	r0, [r1, #0]
  4027a2:	6013      	str	r3, [r2, #0]
  4027a4:	2301      	movs	r3, #1
  4027a6:	f8c8 3000 	str.w	r3, [r8]
  4027aa:	e7bf      	b.n	40272c <prvSampleTimeNow+0x1c>
  4027ac:	00401d01 	.word	0x00401d01
  4027b0:	20400b98 	.word	0x20400b98
  4027b4:	004026a1 	.word	0x004026a1
  4027b8:	20400b68 	.word	0x20400b68
  4027bc:	00400d0d 	.word	0x00400d0d
  4027c0:	00400cd9 	.word	0x00400cd9
  4027c4:	20400b6c 	.word	0x20400b6c

004027c8 <prvTimerTask>:
  4027c8:	e92d 47f0 	stmdb	sp!, {r4, r5, r6, r7, r8, r9, sl, lr}
  4027cc:	b088      	sub	sp, #32
  4027ce:	4e75      	ldr	r6, [pc, #468]	; (4029a4 <prvTimerTask+0x1dc>)
  4027d0:	4f75      	ldr	r7, [pc, #468]	; (4029a8 <prvTimerTask+0x1e0>)
  4027d2:	f8df 91fc 	ldr.w	r9, [pc, #508]	; 4029d0 <prvTimerTask+0x208>
  4027d6:	f8df 81fc 	ldr.w	r8, [pc, #508]	; 4029d4 <prvTimerTask+0x20c>
  4027da:	6833      	ldr	r3, [r6, #0]
  4027dc:	681a      	ldr	r2, [r3, #0]
  4027de:	2a00      	cmp	r2, #0
  4027e0:	f000 80ce 	beq.w	402980 <prvTimerTask+0x1b8>
  4027e4:	68db      	ldr	r3, [r3, #12]
  4027e6:	681c      	ldr	r4, [r3, #0]
  4027e8:	47b8      	blx	r7
  4027ea:	a804      	add	r0, sp, #16
  4027ec:	4b6f      	ldr	r3, [pc, #444]	; (4029ac <prvTimerTask+0x1e4>)
  4027ee:	4798      	blx	r3
  4027f0:	4605      	mov	r5, r0
  4027f2:	9b04      	ldr	r3, [sp, #16]
  4027f4:	2b00      	cmp	r3, #0
  4027f6:	d144      	bne.n	402882 <prvTimerTask+0xba>
  4027f8:	42a0      	cmp	r0, r4
  4027fa:	d212      	bcs.n	402822 <prvTimerTask+0x5a>
  4027fc:	2200      	movs	r2, #0
  4027fe:	1b61      	subs	r1, r4, r5
  402800:	4b6b      	ldr	r3, [pc, #428]	; (4029b0 <prvTimerTask+0x1e8>)
  402802:	6818      	ldr	r0, [r3, #0]
  402804:	4b6b      	ldr	r3, [pc, #428]	; (4029b4 <prvTimerTask+0x1ec>)
  402806:	4798      	blx	r3
  402808:	4b6b      	ldr	r3, [pc, #428]	; (4029b8 <prvTimerTask+0x1f0>)
  40280a:	4798      	blx	r3
  40280c:	2800      	cmp	r0, #0
  40280e:	d13a      	bne.n	402886 <prvTimerTask+0xbe>
  402810:	f04f 5380 	mov.w	r3, #268435456	; 0x10000000
  402814:	f8c9 3000 	str.w	r3, [r9]
  402818:	f3bf 8f4f 	dsb	sy
  40281c:	f3bf 8f6f 	isb	sy
  402820:	e031      	b.n	402886 <prvTimerTask+0xbe>
  402822:	4b65      	ldr	r3, [pc, #404]	; (4029b8 <prvTimerTask+0x1f0>)
  402824:	4798      	blx	r3
  402826:	6833      	ldr	r3, [r6, #0]
  402828:	68db      	ldr	r3, [r3, #12]
  40282a:	f8d3 a00c 	ldr.w	sl, [r3, #12]
  40282e:	f10a 0004 	add.w	r0, sl, #4
  402832:	47c0      	blx	r8
  402834:	f8da 301c 	ldr.w	r3, [sl, #28]
  402838:	2b01      	cmp	r3, #1
  40283a:	d004      	beq.n	402846 <prvTimerTask+0x7e>
  40283c:	f8da 3024 	ldr.w	r3, [sl, #36]	; 0x24
  402840:	4650      	mov	r0, sl
  402842:	4798      	blx	r3
  402844:	e01f      	b.n	402886 <prvTimerTask+0xbe>
  402846:	f8da 1018 	ldr.w	r1, [sl, #24]
  40284a:	4623      	mov	r3, r4
  40284c:	462a      	mov	r2, r5
  40284e:	4421      	add	r1, r4
  402850:	4650      	mov	r0, sl
  402852:	4d5a      	ldr	r5, [pc, #360]	; (4029bc <prvTimerTask+0x1f4>)
  402854:	47a8      	blx	r5
  402856:	2801      	cmp	r0, #1
  402858:	d1f0      	bne.n	40283c <prvTimerTask+0x74>
  40285a:	2100      	movs	r1, #0
  40285c:	9100      	str	r1, [sp, #0]
  40285e:	460b      	mov	r3, r1
  402860:	4622      	mov	r2, r4
  402862:	4650      	mov	r0, sl
  402864:	4c56      	ldr	r4, [pc, #344]	; (4029c0 <prvTimerTask+0x1f8>)
  402866:	47a0      	blx	r4
  402868:	2800      	cmp	r0, #0
  40286a:	d1e7      	bne.n	40283c <prvTimerTask+0x74>
  40286c:	f04f 0380 	mov.w	r3, #128	; 0x80
  402870:	b672      	cpsid	i
  402872:	f383 8811 	msr	BASEPRI, r3
  402876:	f3bf 8f6f 	isb	sy
  40287a:	f3bf 8f4f 	dsb	sy
  40287e:	b662      	cpsie	i
  402880:	e7fe      	b.n	402880 <prvTimerTask+0xb8>
  402882:	4b4d      	ldr	r3, [pc, #308]	; (4029b8 <prvTimerTask+0x1f0>)
  402884:	4798      	blx	r3
  402886:	4d4a      	ldr	r5, [pc, #296]	; (4029b0 <prvTimerTask+0x1e8>)
  402888:	4c4e      	ldr	r4, [pc, #312]	; (4029c4 <prvTimerTask+0x1fc>)
  40288a:	e006      	b.n	40289a <prvTimerTask+0xd2>
  40288c:	9907      	ldr	r1, [sp, #28]
  40288e:	9806      	ldr	r0, [sp, #24]
  402890:	9b05      	ldr	r3, [sp, #20]
  402892:	4798      	blx	r3
  402894:	9b04      	ldr	r3, [sp, #16]
  402896:	2b00      	cmp	r3, #0
  402898:	da09      	bge.n	4028ae <prvTimerTask+0xe6>
  40289a:	2300      	movs	r3, #0
  40289c:	461a      	mov	r2, r3
  40289e:	a904      	add	r1, sp, #16
  4028a0:	6828      	ldr	r0, [r5, #0]
  4028a2:	47a0      	blx	r4
  4028a4:	2800      	cmp	r0, #0
  4028a6:	d098      	beq.n	4027da <prvTimerTask+0x12>
  4028a8:	9b04      	ldr	r3, [sp, #16]
  4028aa:	2b00      	cmp	r3, #0
  4028ac:	dbee      	blt.n	40288c <prvTimerTask+0xc4>
  4028ae:	f8dd a018 	ldr.w	sl, [sp, #24]
  4028b2:	f8da 3014 	ldr.w	r3, [sl, #20]
  4028b6:	b113      	cbz	r3, 4028be <prvTimerTask+0xf6>
  4028b8:	f10a 0004 	add.w	r0, sl, #4
  4028bc:	47c0      	blx	r8
  4028be:	a803      	add	r0, sp, #12
  4028c0:	4b3a      	ldr	r3, [pc, #232]	; (4029ac <prvTimerTask+0x1e4>)
  4028c2:	4798      	blx	r3
  4028c4:	9b04      	ldr	r3, [sp, #16]
  4028c6:	2b09      	cmp	r3, #9
  4028c8:	d8e7      	bhi.n	40289a <prvTimerTask+0xd2>
  4028ca:	a201      	add	r2, pc, #4	; (adr r2, 4028d0 <prvTimerTask+0x108>)
  4028cc:	f852 f023 	ldr.w	pc, [r2, r3, lsl #2]
  4028d0:	004028f9 	.word	0x004028f9
  4028d4:	004028f9 	.word	0x004028f9
  4028d8:	004028f9 	.word	0x004028f9
  4028dc:	0040289b 	.word	0x0040289b
  4028e0:	0040294d 	.word	0x0040294d
  4028e4:	00402979 	.word	0x00402979
  4028e8:	004028f9 	.word	0x004028f9
  4028ec:	004028f9 	.word	0x004028f9
  4028f0:	0040289b 	.word	0x0040289b
  4028f4:	0040294d 	.word	0x0040294d
  4028f8:	9c05      	ldr	r4, [sp, #20]
  4028fa:	f8da 1018 	ldr.w	r1, [sl, #24]
  4028fe:	4623      	mov	r3, r4
  402900:	4602      	mov	r2, r0
  402902:	4421      	add	r1, r4
  402904:	4650      	mov	r0, sl
  402906:	4c2d      	ldr	r4, [pc, #180]	; (4029bc <prvTimerTask+0x1f4>)
  402908:	47a0      	blx	r4
  40290a:	2801      	cmp	r0, #1
  40290c:	d1bc      	bne.n	402888 <prvTimerTask+0xc0>
  40290e:	f8da 3024 	ldr.w	r3, [sl, #36]	; 0x24
  402912:	4650      	mov	r0, sl
  402914:	4798      	blx	r3
  402916:	f8da 301c 	ldr.w	r3, [sl, #28]
  40291a:	2b01      	cmp	r3, #1
  40291c:	d1b4      	bne.n	402888 <prvTimerTask+0xc0>
  40291e:	f8da 2018 	ldr.w	r2, [sl, #24]
  402922:	2100      	movs	r1, #0
  402924:	9100      	str	r1, [sp, #0]
  402926:	460b      	mov	r3, r1
  402928:	9805      	ldr	r0, [sp, #20]
  40292a:	4402      	add	r2, r0
  40292c:	4650      	mov	r0, sl
  40292e:	4c24      	ldr	r4, [pc, #144]	; (4029c0 <prvTimerTask+0x1f8>)
  402930:	47a0      	blx	r4
  402932:	2800      	cmp	r0, #0
  402934:	d1a8      	bne.n	402888 <prvTimerTask+0xc0>
  402936:	f04f 0380 	mov.w	r3, #128	; 0x80
  40293a:	b672      	cpsid	i
  40293c:	f383 8811 	msr	BASEPRI, r3
  402940:	f3bf 8f6f 	isb	sy
  402944:	f3bf 8f4f 	dsb	sy
  402948:	b662      	cpsie	i
  40294a:	e7fe      	b.n	40294a <prvTimerTask+0x182>
  40294c:	9905      	ldr	r1, [sp, #20]
  40294e:	f8ca 1018 	str.w	r1, [sl, #24]
  402952:	b131      	cbz	r1, 402962 <prvTimerTask+0x19a>
  402954:	4603      	mov	r3, r0
  402956:	4602      	mov	r2, r0
  402958:	4401      	add	r1, r0
  40295a:	4650      	mov	r0, sl
  40295c:	4c17      	ldr	r4, [pc, #92]	; (4029bc <prvTimerTask+0x1f4>)
  40295e:	47a0      	blx	r4
  402960:	e792      	b.n	402888 <prvTimerTask+0xc0>
  402962:	f04f 0380 	mov.w	r3, #128	; 0x80
  402966:	b672      	cpsid	i
  402968:	f383 8811 	msr	BASEPRI, r3
  40296c:	f3bf 8f6f 	isb	sy
  402970:	f3bf 8f4f 	dsb	sy
  402974:	b662      	cpsie	i
  402976:	e7fe      	b.n	402976 <prvTimerTask+0x1ae>
  402978:	4650      	mov	r0, sl
  40297a:	4b13      	ldr	r3, [pc, #76]	; (4029c8 <prvTimerTask+0x200>)
  40297c:	4798      	blx	r3
  40297e:	e783      	b.n	402888 <prvTimerTask+0xc0>
  402980:	47b8      	blx	r7
  402982:	a804      	add	r0, sp, #16
  402984:	4b09      	ldr	r3, [pc, #36]	; (4029ac <prvTimerTask+0x1e4>)
  402986:	4798      	blx	r3
  402988:	4605      	mov	r5, r0
  40298a:	9b04      	ldr	r3, [sp, #16]
  40298c:	2b00      	cmp	r3, #0
  40298e:	f47f af78 	bne.w	402882 <prvTimerTask+0xba>
  402992:	4b0e      	ldr	r3, [pc, #56]	; (4029cc <prvTimerTask+0x204>)
  402994:	681b      	ldr	r3, [r3, #0]
  402996:	681a      	ldr	r2, [r3, #0]
  402998:	fab2 f282 	clz	r2, r2
  40299c:	0952      	lsrs	r2, r2, #5
  40299e:	2400      	movs	r4, #0
  4029a0:	e72d      	b.n	4027fe <prvTimerTask+0x36>
  4029a2:	bf00      	nop
  4029a4:	20400b68 	.word	0x20400b68
  4029a8:	00401cf1 	.word	0x00401cf1
  4029ac:	00402711 	.word	0x00402711
  4029b0:	20400b9c 	.word	0x20400b9c
  4029b4:	00401955 	.word	0x00401955
  4029b8:	00401e59 	.word	0x00401e59
  4029bc:	00402579 	.word	0x00402579
  4029c0:	004026a1 	.word	0x004026a1
  4029c4:	00401751 	.word	0x00401751
  4029c8:	0040107d 	.word	0x0040107d
  4029cc:	20400b6c 	.word	0x20400b6c
  4029d0:	e000ed04 	.word	0xe000ed04
  4029d4:	00400d0d 	.word	0x00400d0d

004029d8 <but_callback>:

/************************************************************************/
/* handlers / callbacks                                                 */
/************************************************************************/

void but_callback(void){
  4029d8:	b500      	push	{lr}
  4029da:	b083      	sub	sp, #12
	BaseType_t xHigherPriorityTaskWoken = pdTRUE;
  4029dc:	a902      	add	r1, sp, #8
  4029de:	2301      	movs	r3, #1
  4029e0:	f841 3d04 	str.w	r3, [r1, #-4]!
	xSemaphoreGiveFromISR(xSemaphoreBut, &xHigherPriorityTaskWoken);
  4029e4:	4b04      	ldr	r3, [pc, #16]	; (4029f8 <but_callback+0x20>)
  4029e6:	6818      	ldr	r0, [r3, #0]
  4029e8:	4b04      	ldr	r3, [pc, #16]	; (4029fc <but_callback+0x24>)
  4029ea:	4798      	blx	r3
	printf("apertado");
  4029ec:	4804      	ldr	r0, [pc, #16]	; (402a00 <but_callback+0x28>)
  4029ee:	4b05      	ldr	r3, [pc, #20]	; (402a04 <but_callback+0x2c>)
  4029f0:	4798      	blx	r3
}
  4029f2:	b003      	add	sp, #12
  4029f4:	f85d fb04 	ldr.w	pc, [sp], #4
  4029f8:	20400c24 	.word	0x20400c24
  4029fc:	00401671 	.word	0x00401671
  402a00:	004060f0 	.word	0x004060f0
  402a04:	00403181 	.word	0x00403181

00402a08 <usart_serial_getchar>:
 * \param p_usart   Base address of the USART instance.
 * \param data   Data to read
 *
 */
static inline void usart_serial_getchar(usart_if p_usart, uint8_t *data)
{
  402a08:	b5f0      	push	{r4, r5, r6, r7, lr}
  402a0a:	b083      	sub	sp, #12
  402a0c:	4605      	mov	r5, r0
  402a0e:	460c      	mov	r4, r1
	uint32_t val = 0;
  402a10:	2300      	movs	r3, #0
  402a12:	9301      	str	r3, [sp, #4]
	if (UART == (Uart*)p_usart) {
		while (uart_read((Uart*)p_usart, data));
	}
#else
# ifdef UART0
	if (UART0 == (Uart*)p_usart) {
  402a14:	4b2a      	ldr	r3, [pc, #168]	; (402ac0 <usart_serial_getchar+0xb8>)
  402a16:	4298      	cmp	r0, r3
  402a18:	d013      	beq.n	402a42 <usart_serial_getchar+0x3a>
		while (uart_read((Uart*)p_usart, data));
	}
# endif
# ifdef UART1
	if (UART1 == (Uart*)p_usart) {
  402a1a:	4b2a      	ldr	r3, [pc, #168]	; (402ac4 <usart_serial_getchar+0xbc>)
  402a1c:	4298      	cmp	r0, r3
  402a1e:	d018      	beq.n	402a52 <usart_serial_getchar+0x4a>
		while (uart_read((Uart*)p_usart, data));
	}
# endif
# ifdef UART2
	if (UART2 == (Uart*)p_usart) {
  402a20:	4b29      	ldr	r3, [pc, #164]	; (402ac8 <usart_serial_getchar+0xc0>)
  402a22:	4298      	cmp	r0, r3
  402a24:	d01d      	beq.n	402a62 <usart_serial_getchar+0x5a>
		while (uart_read((Uart*)p_usart, data));
	}
# endif
# ifdef UART3
	if (UART3 == (Uart*)p_usart) {
  402a26:	4b29      	ldr	r3, [pc, #164]	; (402acc <usart_serial_getchar+0xc4>)
  402a28:	429d      	cmp	r5, r3
  402a2a:	d022      	beq.n	402a72 <usart_serial_getchar+0x6a>
		while (usart_read(p_usart, &val));
		*data = (uint8_t)(val & 0xFF);
	}
#else
# ifdef USART0
	if (USART0 == p_usart) {
  402a2c:	4b28      	ldr	r3, [pc, #160]	; (402ad0 <usart_serial_getchar+0xc8>)
  402a2e:	429d      	cmp	r5, r3
  402a30:	d027      	beq.n	402a82 <usart_serial_getchar+0x7a>
		while (usart_read(p_usart, &val));
		*data = (uint8_t)(val & 0xFF);
	}
# endif
# ifdef USART1
	if (USART1 == p_usart) {
  402a32:	4b28      	ldr	r3, [pc, #160]	; (402ad4 <usart_serial_getchar+0xcc>)
  402a34:	429d      	cmp	r5, r3
  402a36:	d02e      	beq.n	402a96 <usart_serial_getchar+0x8e>
		while (usart_read(p_usart, &val));
		*data = (uint8_t)(val & 0xFF);
	}
# endif
# ifdef USART2
	if (USART2 == p_usart) {
  402a38:	4b27      	ldr	r3, [pc, #156]	; (402ad8 <usart_serial_getchar+0xd0>)
  402a3a:	429d      	cmp	r5, r3
  402a3c:	d035      	beq.n	402aaa <usart_serial_getchar+0xa2>
		*data = (uint8_t)(val & 0xFF);
	}
# endif
#endif /* ifdef USART */

}
  402a3e:	b003      	add	sp, #12
  402a40:	bdf0      	pop	{r4, r5, r6, r7, pc}
		while (uart_read((Uart*)p_usart, data));
  402a42:	461f      	mov	r7, r3
  402a44:	4e25      	ldr	r6, [pc, #148]	; (402adc <usart_serial_getchar+0xd4>)
  402a46:	4621      	mov	r1, r4
  402a48:	4638      	mov	r0, r7
  402a4a:	47b0      	blx	r6
  402a4c:	2800      	cmp	r0, #0
  402a4e:	d1fa      	bne.n	402a46 <usart_serial_getchar+0x3e>
  402a50:	e7e9      	b.n	402a26 <usart_serial_getchar+0x1e>
		while (uart_read((Uart*)p_usart, data));
  402a52:	461f      	mov	r7, r3
  402a54:	4e21      	ldr	r6, [pc, #132]	; (402adc <usart_serial_getchar+0xd4>)
  402a56:	4621      	mov	r1, r4
  402a58:	4638      	mov	r0, r7
  402a5a:	47b0      	blx	r6
  402a5c:	2800      	cmp	r0, #0
  402a5e:	d1fa      	bne.n	402a56 <usart_serial_getchar+0x4e>
  402a60:	e7e4      	b.n	402a2c <usart_serial_getchar+0x24>
		while (uart_read((Uart*)p_usart, data));
  402a62:	461f      	mov	r7, r3
  402a64:	4e1d      	ldr	r6, [pc, #116]	; (402adc <usart_serial_getchar+0xd4>)
  402a66:	4621      	mov	r1, r4
  402a68:	4638      	mov	r0, r7
  402a6a:	47b0      	blx	r6
  402a6c:	2800      	cmp	r0, #0
  402a6e:	d1fa      	bne.n	402a66 <usart_serial_getchar+0x5e>
  402a70:	e7df      	b.n	402a32 <usart_serial_getchar+0x2a>
		while (uart_read((Uart*)p_usart, data));
  402a72:	461f      	mov	r7, r3
  402a74:	4e19      	ldr	r6, [pc, #100]	; (402adc <usart_serial_getchar+0xd4>)
  402a76:	4621      	mov	r1, r4
  402a78:	4638      	mov	r0, r7
  402a7a:	47b0      	blx	r6
  402a7c:	2800      	cmp	r0, #0
  402a7e:	d1fa      	bne.n	402a76 <usart_serial_getchar+0x6e>
  402a80:	e7da      	b.n	402a38 <usart_serial_getchar+0x30>
		while (usart_read(p_usart, &val));
  402a82:	461e      	mov	r6, r3
  402a84:	4d16      	ldr	r5, [pc, #88]	; (402ae0 <usart_serial_getchar+0xd8>)
  402a86:	a901      	add	r1, sp, #4
  402a88:	4630      	mov	r0, r6
  402a8a:	47a8      	blx	r5
  402a8c:	2800      	cmp	r0, #0
  402a8e:	d1fa      	bne.n	402a86 <usart_serial_getchar+0x7e>
		*data = (uint8_t)(val & 0xFF);
  402a90:	9b01      	ldr	r3, [sp, #4]
  402a92:	7023      	strb	r3, [r4, #0]
  402a94:	e7d3      	b.n	402a3e <usart_serial_getchar+0x36>
		while (usart_read(p_usart, &val));
  402a96:	461e      	mov	r6, r3
  402a98:	4d11      	ldr	r5, [pc, #68]	; (402ae0 <usart_serial_getchar+0xd8>)
  402a9a:	a901      	add	r1, sp, #4
  402a9c:	4630      	mov	r0, r6
  402a9e:	47a8      	blx	r5
  402aa0:	2800      	cmp	r0, #0
  402aa2:	d1fa      	bne.n	402a9a <usart_serial_getchar+0x92>
		*data = (uint8_t)(val & 0xFF);
  402aa4:	9b01      	ldr	r3, [sp, #4]
  402aa6:	7023      	strb	r3, [r4, #0]
  402aa8:	e7c9      	b.n	402a3e <usart_serial_getchar+0x36>
		while (usart_read(p_usart, &val));
  402aaa:	461e      	mov	r6, r3
  402aac:	4d0c      	ldr	r5, [pc, #48]	; (402ae0 <usart_serial_getchar+0xd8>)
  402aae:	a901      	add	r1, sp, #4
  402ab0:	4630      	mov	r0, r6
  402ab2:	47a8      	blx	r5
  402ab4:	2800      	cmp	r0, #0
  402ab6:	d1fa      	bne.n	402aae <usart_serial_getchar+0xa6>
		*data = (uint8_t)(val & 0xFF);
  402ab8:	9b01      	ldr	r3, [sp, #4]
  402aba:	7023      	strb	r3, [r4, #0]
}
  402abc:	e7bf      	b.n	402a3e <usart_serial_getchar+0x36>
  402abe:	bf00      	nop
  402ac0:	400e0800 	.word	0x400e0800
  402ac4:	400e0a00 	.word	0x400e0a00
  402ac8:	400e1a00 	.word	0x400e1a00
  402acc:	400e1c00 	.word	0x400e1c00
  402ad0:	40024000 	.word	0x40024000
  402ad4:	40028000 	.word	0x40028000
  402ad8:	4002c000 	.word	0x4002c000
  402adc:	004008c7 	.word	0x004008c7
  402ae0:	004009db 	.word	0x004009db

00402ae4 <task_usart>:
	//printf("final int = %d\n", result);
	return result;

}

static void task_usart(void *pvParameters){
  402ae4:	e92d 47f0 	stmdb	sp!, {r4, r5, r6, r7, r8, r9, sl, lr}
  402ae8:	b08c      	sub	sp, #48	; 0x30
	
	CharQueue = xQueueCreate(32, sizeof(char) );
  402aea:	2200      	movs	r2, #0
  402aec:	2101      	movs	r1, #1
  402aee:	2020      	movs	r0, #32
  402af0:	4b55      	ldr	r3, [pc, #340]	; (402c48 <task_usart+0x164>)
  402af2:	4798      	blx	r3
  402af4:	4b55      	ldr	r3, [pc, #340]	; (402c4c <task_usart+0x168>)
  402af6:	6018      	str	r0, [r3, #0]
	//printf("Im running man\n");

	
	char c;
	int counter = 0;
	int flag_command = 0;
  402af8:	2600      	movs	r6, #0
	int counter = 0;
  402afa:	46b1      	mov	r9, r6
	for(;;){
		//printf("still alive\n");
		if(xQueueReceive(CharQueue, &c, ( TickType_t ) 10) == pdTRUE){
  402afc:	461d      	mov	r5, r3
  402afe:	4c54      	ldr	r4, [pc, #336]	; (402c50 <task_usart+0x16c>)
	char off[] = "off"; // 2
  402b00:	f8df 816c 	ldr.w	r8, [pc, #364]	; 402c70 <task_usart+0x18c>
  402b04:	e006      	b.n	402b14 <task_usart+0x30>
					buffer[counter++] = c;
					buffer[counter +1] = 165;
				} else {
					//printf("This is a command\n");
					flag_command = 1;
					buffer[counter++] = c;
  402b06:	aa0c      	add	r2, sp, #48	; 0x30
  402b08:	444a      	add	r2, r9
  402b0a:	f802 3c20 	strb.w	r3, [r2, #-32]
  402b0e:	f109 0901 	add.w	r9, r9, #1
					flag_command = 1;
  402b12:	2601      	movs	r6, #1
		if(xQueueReceive(CharQueue, &c, ( TickType_t ) 10) == pdTRUE){
  402b14:	2300      	movs	r3, #0
  402b16:	220a      	movs	r2, #10
  402b18:	f10d 010f 	add.w	r1, sp, #15
  402b1c:	6828      	ldr	r0, [r5, #0]
  402b1e:	47a0      	blx	r4
  402b20:	2801      	cmp	r0, #1
  402b22:	d1f7      	bne.n	402b14 <task_usart+0x30>
			if(c != '\n'){
  402b24:	f89d 300f 	ldrb.w	r3, [sp, #15]
  402b28:	2b0a      	cmp	r3, #10
  402b2a:	d00e      	beq.n	402b4a <task_usart+0x66>
				if((c >= 48) && (c <= 57)){
  402b2c:	f1a3 0230 	sub.w	r2, r3, #48	; 0x30
  402b30:	b2d2      	uxtb	r2, r2
  402b32:	2a09      	cmp	r2, #9
  402b34:	d8e7      	bhi.n	402b06 <task_usart+0x22>
					buffer[counter++] = c;
  402b36:	aa0c      	add	r2, sp, #48	; 0x30
  402b38:	444a      	add	r2, r9
  402b3a:	f802 3c20 	strb.w	r3, [r2, #-32]
					buffer[counter +1] = 165;
  402b3e:	23a5      	movs	r3, #165	; 0xa5
  402b40:	f802 3c1e 	strb.w	r3, [r2, #-30]
					buffer[counter++] = c;
  402b44:	f109 0901 	add.w	r9, r9, #1
  402b48:	e7e4      	b.n	402b14 <task_usart+0x30>
				}

			} else {
				counter = 0;
				if(flag_command){
  402b4a:	b356      	cbz	r6, 402ba2 <task_usart+0xbe>
	char on[] = "on"; // 1
  402b4c:	4b41      	ldr	r3, [pc, #260]	; (402c54 <task_usart+0x170>)
  402b4e:	681b      	ldr	r3, [r3, #0]
  402b50:	f8ad 3004 	strh.w	r3, [sp, #4]
  402b54:	0c1b      	lsrs	r3, r3, #16
  402b56:	f88d 3006 	strb.w	r3, [sp, #6]
	char off[] = "off"; // 2
  402b5a:	f8cd 8008 	str.w	r8, [sp, #8]
	for (int i = 0; buffer[i] != 165; i++){
  402b5e:	f89d 2010 	ldrb.w	r2, [sp, #16]
  402b62:	2aa5      	cmp	r2, #165	; 0xa5
  402b64:	d028      	beq.n	402bb8 <task_usart+0xd4>
